:100000000080001071010000ED010000F50100000A
:10001000FD010000050200000D02000000000000CC
:10002000000000000000000000000000510400007B
:100030001D020000000000004905000089050000C5
:1000400035020000350200003502000035020000D4
:1000500035020000C11E0000191F0000350200001B
:1000600035020000350200003502000035020000B4
:1000700035020000350200003502000035020000A4
:100080003502000035020000350200003502000094
:100090003502000035020000350200003502000084
:1000A0003502000035020000350200003502000074
:1000B0003502000035020000350200003502000064
:1000C00035020000350200003502000060390000F2
:1000D000000000100C0000006039000000C0072084
:1000E000000000000C0000100004000000C0072009
:1000F0000000000080B489B000AFF860B9607A6099
:10010000BB68FB61FB68BB6100237B610AE0BA69E5
:10011000131DBB61FB69191DF96112681A607B69C7
:1001200004337B617A697B689A42F0D300BF00BFD9
:100130002437BD4680BC704780B485B000AF78607E
:1001400039607B68FB600023BB6007E0FB681A1D19
:10015000FA6000221A60BB680433BB60BA683B686F
:100160009A42F3D300BF00BF1437BD4680BC70472E
:1001700080B584B000AF1A4BFB6013E0FB681A1D1A
:10018000FA601B683B60FB681A1DFA601B68BB6065
:10019000FB681A1DFA601B687B607A68B96838686A
:1001A000FFF7A8FFFB680F4A9342E7D30DE0FB6817
:1001B0001A1DFA601B68BB60FB681A1DFA601B6899
:1001C0007B607968B868FFF7B7FFFB68064A93421F
:1001D000EDD301F00DFB03F039F800BFFDE700BFE0
:1001E000CC000000E4000000F400000080B400AF88
:1001F00000BFFDE780B400AF00BFFDE780B400AFF3
:1002000000BFFDE780B400AF00BFFDE780B400AFE2
:1002100000BFFDE780B400AF00BFFDE780B400AFD2
:1002200000BFFDE780B400AF00BFFDE780B400AFC2
:1002300000BFFDE780B400AF00BFFDE780B400AFB2
:1002400030BF00BF00BFBD4680BC704780B584B0E2
:1002500000AF786000F038FE786803F003F8F860CB
:1002600000F040FEFB6818461037BD4680BD80B5E3
:1002700082B000AF78607B68002B06D000F024FECF
:10028000786803F053F800F02DFE00BF0837BD4634
:1002900080BD80B483B000AF78607B6803F1080252
:1002A0007B685A607B684FF0FF329A607B6803F18D
:1002B00008027B68DA607B6803F108027B681A61D8
:1002C0007B6800221A6000BF0C37BD4680BC7047B7
:1002D00080B483B000AF78607B6800221A6100BFF1
:1002E0000C37BD4680BC704780B485B000AF7860E5
:1002F00039607B685B68FB603B68FA685A60FB6842
:100300009A683B689A60FB689B683A685A60FB6829
:100310003A689A603B687A681A617B681B685A1C65
:100320007B681A6000BF1437BD4680BC704780B43C
:1003300085B000AF786039603B681B68BB60BB6804
:10034000B3F1FF3F03D17B681B69FB600CE07B6866
:100350000833FB6002E0FB685B68FB60FB685B687E
:100360001B68BA689A42F6D2FB685A683B685A60C2
:100370003B685B683A689A603B68FA689A60FB6819
:100380003A685A603B687A681A617B681B685A1C35
:100390007B681A6000BF1437BD4680BC704780B4CC
:1003A00085B000AF78607B685B687A6892689A6015
:1003B0007B689B687A6852685A607B681B69FB603F
:1003C000FB685B687A689A4203D17B689A68FB682D
:1003D0005A607B6800221A61FB681B685A1EFB6822
:1003E0001A60FB681B6818461437BD4680BC70470E
:1003F00080B485B000AFF860B9607A60FB68043BF8
:10040000FB60FB684FF080721A60FB68043BFB6086
:10041000BA68FB681A60FB68043BFB60084AFB682B
:100420001A60FB68143BFB607A68FB681A60FB6823
:10043000203BFB60FB6818461437BD4680BC704704
:100440004504000080B500AF00F070F800BFFDE784
:10045000064B19680868B0E8F00F80F309884FF080
:10046000000080F311884EF00D0E70470C00001054
:1004700000BF00BF04480068006880F3088862B6C7
:1004800000DF00BF00BF000008ED00E080B500AF56
:100490000A4B1B68094A43F478031360074B1B6837
:1004A000064A43F07843136000F082F8044B0022C0
:1004B0001A60FFF7DFFF0023184680BD20ED00E043
:1004C0000000001080B400AF054B4FF080521A605E
:1004D000BFF34F8FBFF36F8F00BFBD4680BC704727
:1004E00004ED00E080B500AF00F020F8054B1B687C
:1004F0000133044A1360BFF34F8FBFF36F8F00BF08
:1005000080BD00BF0000001080B500AF064B1B6827
:10051000013B054A1360044B1B68002B02D10020ED
:1005200000F00DF800BF80BD00000010EFF3118057
:100530004FF0280181F3118870470023184680F39B
:100540001188704700BFFFFFEFF309800C4B1A685A
:1005500020E9F00F10602DE908404FF0280080F3EB
:10056000118800F015FE4FF0000080F31188BDE8FF
:10057000084019680868B0E8F00F80F309887047F0
:100580000C00001000BF00BF80B500AFFFF7CEFF2A
:1005900000F038FD0346002B03D0044B4FF080528F
:1005A0001A600020FFF7CBFF00BF80BD04ED00E024
:1005B00080B400AF074B1B68074AA2FB03239B09CB
:1005C000064A013B1360064B07221A6000BFBD4676
:1005D00080BC70471C020010D34D621014E000E094
:1005E00010E000E080B584B000AF786039607B68CF
:1005F000FB60FFF777FFFB681A68FB68DB6BF96845
:10060000096C01FB03F31A44FB685A60FB68002283
:100610009A63FB681A68FB689A60FB681A68FB6853
:10062000DB6B013BF968096C01FB03F31A44FB68BF
:10063000DA60FB684FF0FF325A64FB684FF0FF321C
:100640009A643B68002B0ED1FB681B69002B14D009
:10065000FB681033184600F017FE0346012B0CD13F
:10066000FFF730FF09E0FB6810331846FFF711FE73
:10067000FB6824331846FFF70CFEFFF745FF012304
:1006800018461037BD4680BD80B588B000AFF86011
:10069000B9601346FB710023FB61FB68002B2AD075
:1006A0005020FFF7D3FDB861BB69002B23D0FB6856
:1006B000BA6802FB03F301337B617869FFF7C6FD7B
:1006C0000246BB691A60BB691B68002B10D0BB696E
:1006D000FA68DA63BB69BA681A640121B869FFF77E
:1006E00081FFBB69FA7983F84D20BB69FB6102E0A9
:1006F000B869FFF7BCFDFB6918462037BD4680BDD1
:1007000080B584B000AF0346FB715020FFF79EFD1B
:10071000F860FB68002B30D0FB6800225A60FB6851
:1007200000221A60FB6800229A60FB680022DA60EF
:10073000FB6800229A63FB680122DA63FB680022EF
:100740001A64FB684FF0FF325A64FB684FF0FF32C7
:100750009A64FB68FA7983F84D20FB6810331846D9
:10076000FFF797FDFB6824331846FFF792FD00233F
:1007700000220021F86800F005F8FB6818461037E1
:10078000BD4680BD80B588B000AFF860B9607A60C2
:100790003B600023FB61FB68BB61FFF7A3FEBB6905
:1007A0009A6BBB69DB6B9A4202D33B68022B16D172
:1007B0003A68B968B86900F067F9BB695B6A002BF1
:1007C00009D0BB692433184600F05EFD0346012BB7
:1007D00001D1FFF777FEFFF797FE012356E07B6814
:1007E000002B03D1FFF790FE00234FE0FB69002BA5
:1007F00006D107F11003184600F09CFD0123FB61B0
:10080000FFF782FE00F060FBFFF76CFEBB695B6CDC
:10081000B3F1FF3F02D1BB6900225A64BB699B6CF4
:10082000B3F1FF3F02D1BB6900229A64FFF76CFE6F
:100830003A1D07F110031146184600F091FD0346DA
:10084000002B1DD1B86900F00EFA0346002B11D021
:10085000BB6910337A681146184600F0E5FCB869A8
:1008600000F09FF900F03EFB0346002B95D1FFF707
:1008700029FE92E7B86900F094F900F033FB8CE7A9
:10088000B86900F08EF900F02DFB002318462037E0
:10089000BD4680BD80B588B000AFF860B9607A60B1
:1008A0003B60FB68BB61FFF741FE7861BB699A6BF7
:1008B000BB69DB6B9A4202D33B68022B24D13A68B6
:1008C000B968B86900F0E0F8BB699B6CB3F1FF3F11
:1008D00012D1BB695B6A002B13D0BB692433184665
:1008E00000F0D2FC0346002B0BD07B68002B08D015
:1008F0007B6801221A6004E0BB699B6C5A1CBB69CF
:100900009A640123FB6101E00023FB617869FFF732
:1009100016FEFB6918462037BD4680BD80B58AB0FB
:1009200000AFF860B9607A603B6000237B62FB68CF
:100930003B62FFF7D7FD3B6A9B6B002B3BD03B6ACA
:10094000DB68FB61B968386A00F005F93B68002B89
:100950001CD13B6A9B6B5A1E3B6A9A633B6A1B68BD
:10096000002B04D100F09EFE02463B6A5A603B6AAF
:100970001B69002B1BD03B6A1033184600F084FC27
:100980000346012B13D1FFF79DFD10E03B6AFA6986
:10099000DA603B6A5B6A002B09D03B6A2433184655
:1009A00000F072FC0346002B01D0FFF78BFDFFF730
:1009B000ABFD012364E07B68002B03D1FFF7A4FDAE
:1009C00000235DE07B6A002B06D107F11403184673
:1009D00000F0B0FC01237B62FFF796FD00F074FA93
:1009E000FFF780FD3B6A5B6CB3F1FF3F02D13B6ACE
:1009F00000225A643B6A9B6CB3F1FF3F02D13B6A11
:100A000000229A64FFF780FD3A1D07F11403114696
:100A1000184600F0A5FC0346002B2BD1386A00F0E5
:100A20000CF90346002B1FD03B6A1B68002B08D132
:100A3000FFF758FD3B6A5B68184600F041FEFFF780
:100A400063FD3B6A24337A681146184600F0ECFBDC
:100A5000386A00F0A6F800F045FA0346002B7FF450
:100A600068AFFFF72FFD64E7386A00F09AF800F0EE
:100A700039FA5EE7386A00F094F800F033FA0023A0
:100A800018462837BD4680BD80B584B000AFF860F9
:100A9000B9607A60FB681B6C002B0CD1FB681B688B
:100AA000002B4FD1FB685B68184600F063FEFB68C3
:100AB00000225A6046E07B68002B19D1FB689868D9
:100AC000FB681B6C1A46B96802F0C7FBFB689A68A2
:100AD000FB681B6C1A44FB689A60FB689A68FB68A9
:100AE0005B689A422ED3FB681A68FB689A6029E01B
:100AF000FB68D868FB681B6C1A46B96802F0ADFB4E
:100B0000FB68DA68FB681B6C5B421A44FB68DA60BE
:100B1000FB68DA68FB681B689A4207D2FB685A6870
:100B2000FB681B6C5B421A44FB68DA607B68022B33
:100B300008D1FB689B6B002B04D0FB689B6B5A1E93
:100B4000FB689A63FB689B6B5A1CFB689A6300BF47
:100B50001037BD4680BD80B582B000AF7860396087
:100B60007B681B68002B18D07B68DA687B681B6C7D
:100B70001A447B68DA607B68DA687B685B689A4253
:100B800003D37B681A687B68DA607B68D9687B6806
:100B90001B6C1A46386802F060FB00BF0837BD4680
:100BA00080BD80B582B000AF7860FFF79BFC12E09B
:100BB0007B685B6A002B13D07B682433184600F0F7
:100BC00063FB0346002B01D000F00EFC7B689B6C9E
:100BD0005A1E7B689A647B689B6C002BE8DC00E003
:100BE00000BF7B684FF0FF329A64FFF78DFCFFF780
:100BF00079FC12E07B681B69002B13D07B681033F3
:100C0000184600F041FB0346002B01D000F0ECFB3E
:100C10007B685B6C5A1E7B685A647B685B6C002B3C
:100C2000E8DC00E000BF7B684FF0FF325A64FFF75A
:100C30006BFC00BF0837BD4680BD80B584B000AFF7
:100C40007860FFF74FFC7B689B6B002B02D1012380
:100C5000FB6001E00023FB60FFF756FCFB681846D1
:100C60001037BD4680BD80B584B000AF7860FFF717
:100C700039FC7B689A6B7B68DB6B9A4202D101235B
:100C8000FB6001E00023FB60FFF73EFCFB681846B9
:100C90001037BD4680BDFFFF80B58AB002AFF86057
:100CA000B9603B601346FB80FB88396B184600F047
:100CB000B7FCB861BB69002B6AD0BB691A6BFB88B3
:100CC00003F18043013B9B0013447B617B6923F06C
:100CD00007037B61FB8800937B6BBA6AB968B869CC
:100CE00000F0A0FB3A68F9687869FFF781FB0246DB
:100CF000BB691A60FB6A002B02D0FB6ABA691A60F2
:100D0000FFF7F0FB2E4B1B6801332D4A13602D4B70
:100D10001B68002B09D12B4ABB691360284B1B6849
:100D2000012B0FD100F0CAFB0CE0274B1B68002BF6
:100D300008D1244B1B68DB6ABA6A9A4202D3214A63
:100D4000BB691360214B1B680133204A13601F4BA2
:100D50001A68BB699A64BB69DA6A1D4B1B689A42C0
:100D600003D9BB69DB6A1A4A1360BB69DA6A1346A6
:100D70009B0013449B00174A1A44BB69043319466D
:100D80001046FFF7B1FA0123FB61FFF7BDFB02E05C
:100D90004FF0FF33FB61FB69012B0BD10A4B1B6842
:100DA000002B07D0074B1B68DB6ABA6A9A4201D94D
:100DB000FFF788FBFB6918462037BD4680BD00BFA2
:100DC000200100100C0000102C0100104001001048
:100DD000280100101000001080B586B000AF7860C8
:100DE000396000237B6100F06FF81F4B1B683B618B
:100DF0007B681B683A681344FB607B681B683A6930
:100E00009A420BD27B681B68FA689A4211D2FA6840
:100E10003B699A420DD901237B610AE07B681B681C
:100E2000FA689A4203D3FA683B699A4201D90123CE
:100E30007B617B68FA681A607B69002B08D00B4BDA
:100E40001B6804331846FFF7AAFAF86800F0B2FBF3
:100E500000F048F8B860BB68002B01D1FFF732FB07
:100E600000BF1837BD4680BD240100100C000010E3
:100E700080B586B004AF00230393002302930023C0
:100E8000019300230093002380220B490B48FFF7B6
:100E900003FF78607B68012B09D1FFF747FB084B04
:100EA00001221A60074B00221A60FFF7EFFA00BF19
:100EB0000837BD4680BD00BFD838000001140000CF
:100EC0002C0100102401001080B400AF044B1B68FB
:100ED0000133034A136000BFBD4680BC704700BFAA
:100EE0003001001080B582B000AF00237B60FFF7B7
:100EF000F9FA334B1B68013B314A1360304B1B68D6
:100F0000002B56D12F4B1B68002B52D02FE02E4BBD
:100F1000DB68DB683B603B6818331846FFF73FFA35
:100F20003B6804331846FFF73AFA3B68DA6A274B06
:100F30001B689A4203D93B68DB6A244A13603B680A
:100F4000DA6A13469B0013449B00214A1A443B680B
:100F5000043319461046FFF7C7F93B68DA6A1D4BA0
:100F60001B68DB6A9A4202D31B4B01221A60164BA4
:100F70001B68002BCBD1194B1B68002B11D00CE048
:100F800000F040F80346002B02D0134B01221A60F8
:100F9000124B1B68013B114A1360104B1B68002B5E
:100FA000EED10D4B1B68012B03D101237B60FFF7B2
:100FB00089FAFFF7A9FA7B6818460837BD4680BD55
:100FC0003001001020010010E00000102801001086
:100FD000100000100C000010380100103401001047
:100FE00080B582B000AFFFF77DFA054B1B687B60D0
:100FF000FFF78AFA7B6818460837BD4680BD00BFF8
:101000002401001080B586B000AF00237B61554BF2
:101010001B68002B40F09580534B1B680133524AEC
:101020001360514B1B683B613B69002B26D14F4B32
:101030001B68FB604E4B1B684C4A13604C4AFB68B4
:1010400013604C4B1B6801334A4A1360474B1B68C3
:101050001B68002B01D1012300E00023002B04D0EA
:10106000454B4FF0FF321A6008E0404B1B68DB68CD
:10107000DB68BB60BB685B683F4A13603E4B1B6824
:101080003A699A424ED3394B1B681B68002B01D139
:10109000012300E00023002B04D0374B4FF0FF3238
:1010A0001A603FE0314B1B68DB68DB68BB60BB68E4
:1010B0005B687B603A697B689A4203D22E4A7B6800
:1010C00013602FE0BB6804331846FFF768F9BB686C
:1010D0009B6A002B04D0BB6818331846FFF75FF9F2
:1010E000BB68DA6A254B1B689A4203D9BB68DB6A86
:1010F000224A1360BB68DA6A13469B0013449B00C4
:101100001F4A1A44BB68043319461046FFF7ECF82F
:10111000BB68DA6A1B4B1B68DB6A9A42B3D30123B4
:101120007B61B0E7174B1B68DA6A154913469B00D1
:1011300013449B000B441B68012B07D901237B61DF
:1011400004E0114B1B6801330F4A13600F4B1B68FF
:10115000002B01D001237B617B6918461837BD46FF
:1011600080BD00BF3001001024010010D800001025
:10117000DC0000103C0100100400001028010010E9
:10118000100000100C000010340100103801001095
:1011900080B483B000AF1F4B1B68002B03D01E4BE5
:1011A00001221A6031E01C4B00221A6004E01B4B44
:1011B0001B68013B194A1360184B1A6818491346FB
:1011C0009B0013449B000B441B68002BEFD0134B78
:1011D0001A6813469B0013449B00114A13447B601A
:1011E0007B685B685A687B685A607B685A687B6872
:1011F00008339A4204D17B685B685A687B685A60FE
:101200007B685B68DB68074A136000BF0C37BD462C
:1012100080BC704730010010380100102801001018
:10122000100000100C00001080B584B000AF786092
:101230003960124B1B68183319467868FFF777F846
:101240000E4B1B6804331846FFF7A9F83B68B3F14F
:10125000FF3F07D1094B1B68043319460848FFF7C5
:1012600043F807E0074B1B683A681344FB60F868D3
:1012700000F0A0F900BF1037BD4680BD0C00001083
:101280000C0100102401001080B584B000AF78601C
:101290007B68DB68DB68BB60BB6818331846FFF708
:1012A0007EF81E4B1B68002B1DD1BB68043318460B
:1012B000FFF775F8BB68DA6A194B1B689A4203D9C5
:1012C000BB68DB6A164A1360BB68DA6A13469B0088
:1012D00013449B00134A1A44BB6804331946104652
:1012E000FFF702F805E0BB68183319460E48FEF711
:1012F000FBFFBB68DA6A0D4B1B68DB6A9A4205D3B9
:101300000123FB600A4B01221A6001E00023FB600D
:10131000FB6818461037BD4680BD00BF3001001085
:101320002801001010000010E00000100C00001058
:101330003801001080B483B000AF7860064B1A68A3
:101340007B681A60054B1A687B685A6000BF0C37CF
:10135000BD4680BC704700BF3C0100102401001056
:1013600080B584B000AF78603960FFF7BBF81C4BE4
:101370001B68BB603B681B68B3F1FF3F02D10023D1
:10138000FB6026E07B681A68164B1B689A4207D000
:101390007B685B68BA689A4202D30123FB6018E05D
:1013A0007B685B68BA68D21A3B681B689A420ED2A7
:1013B0003B681A687B685968BB68CB1A1A443B685B
:1013C0001A607868FFF7B6FF0023FB6001E0012395
:1013D000FB60FFF799F8FB6818461037BD4680BDE3
:1013E000240100103C01001080B400AF034B012227
:1013F0001A6000BFBD4680BC704700BF38010010B6
:1014000080B582B000AF786000F098F8044B1B689C
:10141000012B01D9FFF756F8FEF710FFF4E700BFE4
:101420001000001080B586B000AFF860B9607A6037
:101430003B6000237B6114E0BA687B69134493F935
:101440000010FA687B69134434330A461A70BA688C
:101450007B69134493F90030002B06D07B6901337C
:101460007B617B69132BE7D900E000BFFB6800229A
:1014700083F847207B68072B01D907237B60FB6833
:101480007A68DA62FB687A681A65FB680433184682
:10149000FEF71EFFFB6818331846FEF719FFFB68BE
:1014A000FA681A617B68C3F10802FB689A61FB68FD
:1014B000FA685A6200BF1837BD4680BD80B582B059
:1014C00000AF00237B600CE07A6813469B00134456
:1014D0009B00124A13441846FEF7DBFE7B6801337B
:1014E0007B607B68072BEFD90D48FEF7D2FE0D48D5
:1014F000FEF7CFFE0C48FEF7CCFE0C48FEF7C9FE07
:101500000B48FEF7C6FE0B4B054A1A600A4B054A0C
:101510001A6000BF0837BD4680BD00BF1000001034
:10152000B0000010C4000010E0000010F400001033
:101530000C010010D8000010DC00001080B582B053
:1015400000AF28E0FFF7C0FC174B1B68002B0CBF57
:1015500001230023DBB27B60FFF7C4FC7B68002B18
:1015600019D1FEF7BFFF104BDB68DB683B603B68BF
:1015700004331846FEF713FF0C4B1B68013B0B4A64
:1015800013600B4B1B68013B094A1360FEF7BCFF5D
:10159000386800F076F8064B1B68002BD2D100BFEC
:1015A00000BF0837BD4680BDF400001020010010C8
:1015B0000801001080B582B000AF7860134B1B6843
:1015C0007A685A60124B1B687A689A4209D2114BAA
:1015D0001A680E4B1B68043319461046FEF7A7FE27
:1015E00010E00D4B1A68094B1B680433194610466E
:1015F000FEF79DFE094B1B687A689A4202D2074AA1
:101600007B68136000BF0837BD4680BD0C0000102A
:1016100024010010DC000010D800001004000010AD
:1016200080B584B000AF03463960FB805420FEF7DC
:101630000DFEF860FB68002B1ED03B68002B06D126
:10164000FB889B001846FEF701FE034600E03B685E
:10165000FA681363FB681B6B002B05D1F868FEF773
:1016600006FE0023FB6007E0FB68186BFB889B000D
:101670001A46A52101F0F3FDFB6818461037BD4658
:1016800080BD80B582B000AF78607B681B6B184668
:10169000FEF7EDFD7868FEF7EAFD00BF0837BD46AE
:1016A00080BDFFFF80B483B000AF044B1B687B603C
:1016B0007B6818460C37BD4680BC70470C00001094
:1016C00080B584B000AF78607B68FB607B68002BDE
:1016D00046D0FB68DA6A244B1B68DB6A9A423FD229
:1016E000214B1B68DB6AC3F10802FB689A61FB6847
:1016F0005969FB68DA6A13469B0013449B001B4A36
:101700001344994201D1012300E00023002B22D091
:10171000FB6804331846FEF742FE134B1B68DA6A77
:10172000FB68DA62FB68DA6A114B1B689A4203D9DC
:10173000FB68DB6A0E4A1360FB68DA6A13469B009B
:1017400013449B00094A1A44FB68043319461046A7
:10175000FEF7CAFD04E0044B1B68DA6AFB68DA6234
:1017600000BF1037BD4680BD0C00001010000010F7
:101770002801001080B584B000AF78607B68FB6002
:101780007B68002B2CD0FB68DA6AFB681B6D9A42E1
:1017900026D0FB6804331846FEF701FEFB681A6D7D
:1017A000FB68DA62FB68DB6AC3F10802FB689A61D6
:1017B000FB68DA6A0C4B1B689A4203D9FB68DB6A48
:1017C000094A1360FB68DA6A13469B0013449B00C6
:1017D000064A1A44FB68043319461046FEF784FD96
:1017E00000BF1037BD4680BD28010010100000105A
:1017F00080B582B000AF054B7B60054A7B681A60FC
:1018000001F04FF800BF0837BD4680BD08ED00E08D
:101810000000000080B483B000AF0346FB71FB7989
:1018200003F01F03012202FA03F1054A97F907307A
:101830005B0942F8231000BF0C37BD4680BC7047DF
:1018400000E100E080B483B000AF03463960FB7173
:1018500097F90730002B0BDA3B68DAB20C49FB79B9
:1018600003F00F03043BD200D2B20B441A7609E016
:101870003B68DAB2074997F90730D200D2B20B447D
:1018800083F8002300BF0C37BD4680BC704700BF03
:1018900000ED00E000E100E080B483B000AF7860CC
:1018A0007B681B68DBB218460C37BD4680BC7047AE
:1018B00080B483B000AF786039607B685A683B6859
:1018C0001A437B685A6000BF0C37BD4680BC704726
:1018D00080B483B000AF786039607B683A689A6002
:1018E00000BF0C37BD4680BC704780B483B000AFEA
:1018F000786039607B683A68DA6000BF0C37BD46B3
:1019000080BC704780B483B000AF78607B685B694F
:1019100018460C37BD4680BC7047FFFF80B400AF4F
:10192000074B1B78002B06D0054B1B781A46C823A3
:1019300002FB03F300E0C8231846BD4680BC704795
:101940006301001080B582B000AFFFF7E7FF386099
:101950003B680F335B007B607B68772B01D8782373
:101960007B607B6841F28832934202D941F288332E
:101970007B60034A7B68136000BF0837BD4680BDAB
:101980000800001080B483B000AF03463960FB71DB
:10199000FB79002B07D0FB791F2B04D8FB79044976
:1019A0003A6841F8232000BF0C37BD4680BC704721
:1019B0006401001080B485B000AF03463960FB714C
:1019C000FB79002B02D0FB791F2B01D9002314E0F7
:1019D000FB790C4A52F82330FB60FB68002B08D0DF
:1019E0003A68FB68D21A084B1B689A4201D8012357
:1019F00000E0002303F00103DBB218461437BD46B4
:101A000080BC7047640100100800001080B584B0ED
:101A100000AFF860B9607A607B681A46B968F86808
:101A200001F0BEFB00BF1037BD4680BD80B586B05B
:101A300000AF7860094A07F10C0307CA03C31A70A4
:101A40007B6807F10C010922184601F006FC7B684F
:101A500009221A7400BF1837BD4680BD083900003E
:101A600080B586B000AF78600B46FB7027233B73D0
:101A700097237B730523BB738523FB73FB783B7430
:101A800000237B740023BB740023FB7416233B7577
:101A90007B6807F10C010922184601F0DEFB7B6828
:101AA00009221A7400BF1837BD4680BD80B586B0C4
:101AB00000AF78600B46FB701346BB7027233B7367
:101AC00097237B730523BB738523FB73FB783B74E0
:101AD00002237B740123BB74BB78FB7416233B7514
:101AE0007B6807F10C010922184601F0B6FB7B6800
:101AF00009221A7400BF1837BD4680BD80B584B076
:101B000000AF78600A4A07F1080392E8030083E80F
:101B100003007B6807F108010822184601F09DFBCD
:101B20007B6808221A7400BF1037BD4680BD00BF15
:101B30001439000080B588B000AF78600B46FB70A8
:101B4000394B1B787B767B7E07333B763B7E0333BA
:101B5000FB75FA7DFB789A4201D900235FE0FFF71D
:101B60003FFA38617B68FB61FB695A1CFA612722E6
:101B70001A70FB695A1CFA613A7E1A70FB695A1C8A
:101B8000FA6100221A70FB695A1CFA6101221A706C
:101B9000FB695A1CFA610A221A70FB695A1CFA6125
:101BA00000221A70FB695A1CFA617A7E1A700023AF
:101BB000FB7620E0FB7E1D4AD35CFB730023BB76E3
:101BC000FB7B39691846FFF7F5FE0346002B0AD068
:101BD000FB7B174AD35CBB73BB7B032B01D1072371
:101BE00000E00523BB76FB695A1CFA61BA7E1A70C5
:101BF000FB7E0133FB76FA7E7B7E9A42DAD3FB6969
:101C00005A1CFA6100221A70FB695A1CFA61002200
:101C10001A70FB695A1CFA6116221A70FB7D18466D
:101C20002037BD4680BD00BF630100104401001095
:101C3000E401001080B58CB000AF154B186800238C
:101C40004FF0FF320021FEF769FE3B1D29211846A7
:101C5000FFF770FF034687F82F300D4B18680023FD
:101C600000220021FEF78EFD97F82F30002B0AD0BE
:101C700097F82F3087F82D30064B1868391D002350
:101C80000022FEF77FFD00BF3037BD4680BD00BF9C
:101C9000040200101802001080B58CB000AF154B84
:101CA000186800234FF0FF320021FEF737FE3B1D7E
:101CB00029211846FFF73EFF034687F82F300D4BCA
:101CC0001868002300220021FEF75CFD97F82F30F2
:101CD000002B0AD097F82F3087F82D30064B186864
:101CE000391D01230022FEF74DFD00BF3037BD46F0
:101CF00080BD00BF040200101802001080B584B03F
:101D000000AF78600B46FB70FB78002B4BD07B68F4
:101D10001B78BB73BB7B5B00DBB20133DBB2FA78B1
:101D20009A4242D3234B186800234FF0FF32002120
:101D3000FEF7F4FD204B00221A700023FB731EE017
:101D4000FB7B5B0001331A467B6813441B787B7373
:101D5000FB7B5B0002337A6813441B783B733B7B4D
:101D6000012B09D1144B1B785A1CD1B2124A1170A5
:101D70001946124A7B7B5354FB7B0133FB73FA7B7E
:101D8000BB7B9A4203D20C4B1B781E2BD8D9FFF792
:101D9000D9FD084B1868002300220021FEF7F2FC51
:101DA000FFF748FF02E000BF00E000BF1037BD466C
:101DB00080BD00BF04020010630100104401001048
:101DC00080B58CB000AF78600B46FB70FB78022BBF
:101DD00036D97B681B7887F82F307B6801331B78F6
:101DE00087F82E307B6802331B7887F82D3007F197
:101DF0001C031846FFF782FE97F82D2097F82E1047
:101E000007F108031846FFF751FE0F4B1B6800212E
:101E10001846FEF7E7FB0C4B186807F11C0100237E
:101E20000022FEF7AFFC97F82F30002B09D0064BAD
:101E3000186807F1080100230022FEF7A3FC00E068
:101E400000BF3037BD4680BD1002001080B586B09F
:101E500000AF3B1D1846FFF751FE084B1B680021E1
:101E60001846FEF7BFFB054B1868391D00230022FA
:101E7000FEF788FC00BF1837BD4680BD1002001079
:101E800080B584B000AF78600B46FB70FB78012B07
:101E900011D97B681B78FB737B6801331B78012B9E
:101EA0000CBF01230023BB73BA7BFB7B1146184692
:101EB00000F092FC00E000BF1037BD4680BDFFFF80
:101EC00080B582B000AF00237B600BE00F48FFF7C6
:101ED000E3FC0346FB700E4B18683A1DF91C002307
:101EE000FEF7D8FC0948FFF70DFD034603F0010398
:101EF000002BEBD17B68002B03D0064B4FF08052B8
:101F00001A6000BF0837BD4680BD00BF00C000405A
:101F10000802001004ED00E080B582B000AF00239D
:101F20007B600BE00F48FFF7B7FC0346FB700E4BDE
:101F300018683A1DF91C0023FEF7ACFC0948FFF7AE
:101F4000E1FC034603F00103002BEBD17B68002B7F
:101F500003D0064B4FF080521A6000BF0837BD46D1
:101F600080BD00BF000001400C02001004ED00E045
:101F700080B598B000AF7860002387F85F30002309
:101F800087F85E30002387F85D30604B186807F1F2
:101F90000F0100234FF0FF32FEF7C0FC0346012B78
:101FA00040F0AD8097F85F30032BEED801A252F8D5
:101FB00023F000BFC51F0000D51F00000120000056
:101FC00029200000FB7B272B40F09B80012387F812
:101FD0005F3096E0FB7B87F85E3097F85E30002B31
:101FE00003D097F85E30422B03D9002387F85F3087
:101FF0008BE0002387F85D30022387F85F3084E0B0
:1020000097F85D305A1C87F85D20FA7B60333B44BB
:1020100003F8502C97F85D2097F85E309A4272D101
:10202000032387F85F306EE0FB7B162B63D197F8B4
:102030005E30022B5FD93B7C87F85C307B7C87F875
:102040005B30BB7C87F85A3097F85E30032B03D99E
:1020500007F11003033300E000237B6597F85E303F
:10206000032B04D997F85E30033BDBB200E000237A
:1020700087F8533097F85C30852B3CD197F85B306C
:10208000012B38D197F85A30062B15DC002B31DBA9
:10209000062B2FD801A252F823F000BFBF2000006A
:1020A000F5200000D3200000F5200000C52000002E
:1020B000F5200000E72000003A2B11D01AE0FFF7CE
:1020C000B9FD18E097F853301946786DFFF716FE02
:1020D00011E097F853301946786DFFF771FE0AE06A
:1020E000FFF7B4FE07E097F853301946786DFFF715
:1020F000C7FE00E000BF002387F85F3005E000BFA7
:1021000043E700BF41E700BF3FE73EE7080200109A
:1021100080B586B000AF78600023FB750023BB75E7
:1021200000237B75404B186807F10E0100234FF028
:10213000FF32FEF7F3FB0346012B6FD1FB7D062B2D
:10214000F0D801A252F823F06521000071210000AF
:10215000772100008721000097210000A1210000C5
:10216000AB210000BB7B272B5AD10123FB7557E025
:102170000223FB7556E0BB7B032B01D1032300E058
:102180000023FB754EE0BB7B0A2B01D1042300E04A
:102190000023FB7546E0BB7BBB750523FB7541E067
:1021A000BB7B7B750623FB753CE0BB7B162B32D1DA
:1021B000FEF716FF38611D4B186800234FF0FF3201
:1021C0000021FEF7ABFBBB7D39691846FFF7DAFB50
:1021D000BB7D002B06D0BB7D1F2B03D8BB7D144AD3
:1021E000D35C00E00123FB73BB7D002B06D0BB7DDD
:1021F0001F2B03D8BB7D0E497A7DCA540B4B186840
:10220000002300220021FEF7BDFA7A7DFB7B9A4273
:1022100001D0FFF741FD0023FB7503E000BF81E71C
:1022200000BF7FE77EE700BF0C0200100402001031
:10223000E401001080B592B000AF7860FEF7D0FEE8
:102240000346FB63002387F847302B4B18680023B5
:102250004FF0FF320021FEF761FB284B1B7887F817
:10226000463097F8462007F11C032549184600F030
:10227000F4FFC8233B64204B186800230022002190
:10228000FEF780FA97F84630002B0DD107F10803CE
:102290001846FFF7CBFB1B4B186807F1080100231A
:1022A0000022FEF76FFA1FE097F8472097F84630B4
:1022B0009A4202D3002387F8473097F847305A1CD8
:1022C00087F8472048333B4413F82C2C07F10803C8
:1022D00011461846FFF7C4FB0A4B186807F10801BE
:1022E00000230022FEF74EFA07F13C03396C184632
:1022F000FEF772FDA9E700BF0402001063010010A1
:10230000440100101402001080B588B000AF78605E
:10231000154B186807F10C0100230022FEF7FEFAA6
:102320000346012B08D13B7F1A4607F10C031946DF
:102330000E48FFF76BFB15E00D4B186807F10C0119
:1023400000230522FEF7EAFA0346012B08D13B7F62
:102350001A4607F10C0319460448FFF757FB01E042
:10236000FEF7B0F8D4E700BF1002001000000140F3
:102370001402001080B58EB000AF78600A4B186868
:1023800007F10C0100234FF0FF32FEF7C7FA0346B6
:10239000012BF3D197F835301A4607F10C03194693
:1023A0000248FFF733FBE9E71802001000C00040C5
:1023B00080B500AF0F4800F077FE4FF496410D480E
:1023C00000F013FF03210B48FFF78FFA8121094822
:1023D000FFF77EFA074800F0A3FE05210548FFF746
:1023E00067FA08210520FFF72DFA0520FFF712FAFA
:1023F00000BF80BD00C0004080B500AF0F4800F0B6
:1024000053FE4FF416510D4800F0EFFE03210B4828
:10241000FFF76BFA81210948FFF75AFA074800F0E5
:102420007FFE05210548FFF743FA07210620FFF745
:1024300009FA0620FFF7EEF900BF80BD0000014059
:1024400080B586B004AF00F035FA00F0EBF901205A
:10245000FEF756F90346514A1360002201214FF45A
:102460008070FEF711F903464D4A136000220121E6
:102470004FF48070FEF708F903464A4A13600022C1
:1024800011210820FEF700F90346474A1360002295
:1024900011210820FEF7F8F80346444A1360002291
:1024A0002A210620FEF7F0F80346414A13603B4B11
:1024B000186800234FF0FF320021FEF72FFA802228
:1024C00000213C4800F0CBFE00237B6007E03A4A45
:1024D0007B68134401221A707B6801337B607B6840
:1024E0001F2BF4DDFFF72EFA2C4B18680023002277
:1024F0000021FEF747F9FFF75BFFFFF77DFF0023A1
:1025000003930023029300230193032300930023EA
:102510004FF4C07229492A48FEF7BEFB00230393FB
:1025200000230293002301930323009300234FF41D
:10253000C07224492448FEF7AFFB00230393002315
:102540000293002301930223009300234FF480722F
:102550001E491F48FEF7A0FB0023039300230293AC
:10256000002301930523009300234FF4807219493F
:102570001948FEF791FB00230393002302930023E5
:1025800001930423009300234FF4807213491448ED
:10259000FEF782FBFEF76CFC00BFFDE704020010B3
:1025A000080200100C0200101002001014020010AB
:1025B0001802001064010010E4010010E03800006F
:1025C000711F0000E838000011210000F038000001
:1025D00035220000F838000009230000003900000F
:1025E0007523000080B582B000AF78600F2000F046
:1025F00055FA00BF0837BD4680BD80B582B000AF38
:1026000078600F2000F04AFA00BF0837BD4680BD51
:1026100080B483B000AF7860084611461A4603467E
:10262000FB700B46BB7013467B707B78002B0ED083
:10263000FB785B017A6813449969BB7801229A4060
:10264000FB785B01786803440A439A610DE0FB78EC
:102650005B017A681344D969BB7801229A40FB7800
:102660005B01786803440A43DA6100BF0C37BD465A
:1026700080BC704780B584B000AFF860B960114687
:102680001A460B46FB711346BB71BB68D9B2BB79C6
:10269000FA79F868FFF7BCFF00BF1037BD4680BD70
:1026A00080B483B000AF78600B46FB701346BB70FC
:1026B000FB785B017A6813441968BB7801229A4061
:1026C000FB785B01786803440A431A6000BF0C374B
:1026D000BD4680BC704780B483B000AF78600B46C5
:1026E000FB701346BB70FB785B017A681344196872
:1026F000BB78012202FA03F3DA43FB785B017868C6
:1027000003440A401A6000BF0C37BD4680BC7047C6
:1027100080B582B000AF7860084611461A4603467D
:10272000FB700B46BB7013467B707B78002B06D08A
:10273000BA78FB7819467868FFF7B2FF05E0BA78F7
:10274000FB7819467868FFF7C6FF00BF0837BD461B
:1027500080BD80B582B000AF7860084611461A4649
:102760000346FB700B46BB7013467B707B78BA78D0
:10277000F9787868FFF7CCFF00BF0837BD4680BD09
:1027800080B582B000AF00237B6018E07B685B00FF
:102790000F4A13443B603B6819783B685A78012321
:1027A0000C48FFF7D6FF3B681B7819463B685A7800
:1027B00000230848FFF75EFF7B6801337B607B687E
:1027C000052BE3D900BF00BF0837BD4680BD00BF61
:1027D0001C39000000C0092080B584B000AF03465A
:1027E0000A46FB711346BB71FB79002B11D0FB79B4
:1027F000062B0ED8FB79013B5B00084A1344FB60B3
:10280000FB681B781946FB685A78BB790448FFF7C8
:1028100031FF00BF1037BD4680BD00BF1C3900002E
:1028200000C0092080B500AF0448FFF7E6FE044869
:10283000FFF7D8FEFFF7A4FF00BF80BD00C009204E
:1028400000C0024080B485B000AF0346FB71084B66
:102850001B68C3F30B03FB60FB791A030449FB6895
:1028600013430B6000BF1437BD4680BC704700BFE8
:1028700000C00F4080B500AF0A220349034800F0B2
:102880007DFA00BF80BD00BF3039000000C00240AB
:1028900080B500AF00F00CFB0420FFF7D3FF00BFB2
:1028A00080BD80B500AFFFF7E5FFFFF7F1FF00BF88
:1028B00080BDFFFF80B500AF00F0DCF90346024A9F
:1028C000136000BF80BD00BF1C02001080B400AFC9
:1028D000064BD3F8883003F08073002B14BF01231C
:1028E0000023DBB21846BD4680BC704700C00F40D5
:1028F00080B400AF064BD3F8883003F00073002B90
:1029000014BF01230023DBB21846BD4680BC7047CC
:1029100000C00F4080B483B000AF0346FB71094A8A
:10292000FB795B0113448C33AA221A60054AFB79B8
:102930005B0113448C3355221A6000BF0C37BD462F
:1029400080BC704700C00F4080B400AF054BD3F887
:102950000C31DBB203F00303DBB21846BD4680BC8A
:10296000704700BF00C00F4080B400AF024B1B682F
:102970001846BD4680BC70472839000080B400AFBF
:10298000024B1846BD4680BC704700BF00093D00A1
:1029900080B400AF024B1B681846BD4680BC704730
:1029A0002C39000080B500AF00F008F90346184646
:1029B00080BDFFFF80B584B000AF03463960FB7176
:1029C0000C4AFB7904335B0113441B68FB60FA6813
:1029D0003B681343FB60074AFB7904335B011344F4
:1029E000FA681A60FB791846FFF794FF00BF1037AA
:1029F000BD4680BD00C00F4080B584B000AF034627
:102A00003960FB710D4AFB7904335B0113441B6889
:102A1000FB603B68DB43FA681340FB60074AFB79C5
:102A200004335B011344FA681A60FB791846FFF718
:102A300071FF00BF1037BD4680BD00BF00C00F4012
:102A400080B586B000AF0346B9607A60FB73FB7B4C
:102A5000002B05D17B681B04BA6813437B6104E03B
:102A60007B685B01BA6813437B610B4AFB7B0433D1
:102A70005B01134404337A691A60074AFB7B043311
:102A80005B01134401221A60FB7B1846FFF742FFEB
:102A900000BF1837BD4680BD00C00F4080B485B070
:102AA00000AF0346FB71FB79FB60084BD3F8C430E1
:102AB0000121FA6801FA02F21146044A0B43C2F8F6
:102AC000C43000BF1437BD4680BC704700C00F4003
:102AD00080B582B000AFFFF70BFF0346002B02D09A
:102AE0000123FB7101E00023FB71FB7918460837D5
:102AF000BD4680BD80B483B000AF7860044A7B6877
:102B0000C2F8043100BF0C37BD4680BC704700BF1F
:102B100000C00F4080B400AF044BD3F80431DBB2E7
:102B200001331846BD4680BC704700BF00C00F404F
:102B300080B487B000AF0346FB7101237B61FB7952
:102B40005B003B613B6903F01F03FB603B695B0972
:102B50003B61194A3B696A3352F823307B617A69D9
:102B6000FB6822FA03F303F003037B617B69002B0C
:102B700002D104237B6119E07B69012B02D101237F
:102B80007B6113E07B69022B02D102237B610DE0A4
:102B9000FB790D2B05D0FB790E2B02D0FB790F2B87
:102BA00002D106237B6101E008237B617B69184623
:102BB0001C37BD4680BC704700C00F4080B500AFD9
:102BC000FFF7C2FE0346022B0ED0022B10DC002BB7
:102BD00002D0012B04D00BE0FFF7D0FE034608E043
:102BE000FFF7C2FE034604E0FFF7D2FE034600E013
:102BF0000023184680BDFFFF80B584B000AF0023DE
:102C0000FB60FFF763FE0346002B18D00E4BD3F892
:102C10008430C3F30E030133BB600B4BD3F8843015
:102C20001B0CDBB201337B60FFF7BCFE0246BB68C6
:102C300002FB03F35A007B68B2FBF3F3FB60FB6813
:102C400018461037BD4680BD00C00F4080B500AFAC
:102C5000FFF73EFF0346002B05D0012B07D1FFF7FE
:102C6000CBFF034604E0FFF7A9FF034600E0002383
:102C7000184680BD98B500AFFFF7E8FF0446FFF7A0
:102C800049FF0346B4FBF3F3184698BD90B583B0F3
:102C900000AF0346FB71FFF7EDFF0446FB791846D2
:102CA000FFF746FF0346B4FBF3F318460C37BD4667
:102CB00090BD80B586B002AFF8607B600B46FB72BA
:102CC0001346BB727B6898087B68DBB203F0030392
:102CD000DBB2BA7AF97A00930346F86800F004F898
:102CE00000BF1037BD4680BD80B487B000AFF8602C
:102CF0007B600B46FB721346BB72BB7A03F00F037B
:102D0000DBB25B00FB75FB7A5B00DAB2BB7A1B09B6
:102D1000DBB21344BB75BA7DFB6853F82220FB7D00
:102D2000032101FA03F3DB4313403B6197F82020B2
:102D3000FB7D02FA03F31946BA7D3B691943FB6830
:102D400043F82210BA7DFB68103253F82220FB7D35
:102D5000032101FA03F3DB4313403B61FB7D7A68F7
:102D600002FA03F1BA7D3B691943FB68103243F85C
:102D7000221000BF1C37BD4680BC704780B586B0AE
:102D800000AFF860B9607A6000237B611FE07B6967
:102D90009B00BA6813441B78C3F30203DBB21946E5
:102DA0007B699B00BA6813441B78C3F3C403DBB28E
:102DB00018467B699B00BA6813441B68C3F317234A
:102DC0000246F868FFF775FF7B6901337B617A691A
:102DD0007B689A42DBD300BF00BF1837BD4680BD79
:102DE00080B400AF064BD3F8883003F08073002B1B
:102DF00014BF01230023DBB21846BD4680BC7047D8
:102E000000C00F4080B400AF064BD3F8883003F009
:102E10008063002B14BF01230023DBB21846BD469C
:102E200080BC704700C00F4080B400AF064BD3F8A1
:102E3000883003F00073002B14BF01230023DBB2A2
:102E40001846BD4680BC704700C00F4080B400AF3C
:102E5000054BD3F8A031044A43F02003C2F8A03157
:102E600000BFBD4680BC704700C00F4080B400AFBB
:102E7000064BD3F8A03103F04003002B14BF01230D
:102E80000023DBB21846BD4680BC704700C00F402F
:102E900080B483B000AF0346FB71044AFB79C2F8EB
:102EA0000C3100BF0C37BD4680BC704700C00F40DE
:102EB00080B500AFFFF7B8FF0346002B03D0022117
:102EC0000020FFF799FDFFF78BFF0346002B03D08F
:102ED00001210020FFF790FDFFF7C8FF034683F0B4
:102EE0000103DBB2002B01D0FFF7B0FF00BFFFF7FB
:102EF000BDFF034683F00103DBB2002BF7D10020B6
:102F0000FFF7F8FD0120FFF7C3FF00220F2100208B
:102F1000FFF796FD01210020FFF74CFD0320FFF78E
:102F2000E9FD00BFFFF76EFF034683F00103DBB24C
:102F3000002BF7D102210020FFF73CFD00BF80BD30
:102F400080B483B000AF78600B46FB70FA787B6882
:102F50001A6000BF0C37BD4680BC704780B483B098
:102F600000AF786039607B683A689A6000BF0C37C0
:102F7000BD4680BC704780B483B000AF78603960D4
:102F80007B683A68DA6000BF0C37BD4680BC70478A
:102F900080B483B000AF78607B68DB6843F0800268
:102FA0007B68DA6000BF0C37BD4680BC704780B4D8
:102FB00083B000AF78607B68DB6823F080027B68B9
:102FC000DA6000BF0C37BD4680BC704780B483B068
:102FD00000AF78600B46FB701346BB70FA787B68D5
:102FE0001A60BA787B685A6000BF0C37BD4680BC57
:102FF000704780B483B000AF78607B685B69184627
:103000000C37BD4680BC704780B485B000AF786097
:103010007B680E4A934202D10423FB730FE07B6866
:103020000B4A934202D11823FB7308E07B68094ADC
:10303000934202D11923FB7301E00323FB73FB7B53
:1030400018461437BD4680BC704700BF00000140E1
:103050000080094000C0094080B485B000AF7860AE
:103060007B680E4A934202D10423FB730FE07B6816
:103070000B4A934202D11823FB7308E07B68094A8C
:10308000934202D11923FB7301E00323FB73FB7B03
:1030900018461437BD4680BC704700BF0000014091
:1030A0000080094000C0094080B584B000AF78605E
:1030B0007868FFF7A9FF03461846FFF7EFFC0721E2
:1030C0007868FFF74BFF786800F036F87B680022DD
:1030D0005A607B680022DA607B6800221A627B6893
:1030E0000022DA647B6800225A657B6800221A6538
:1030F0007B680A4A934205D17B6800221A617B688B
:103100009B69FB6003217868FFF735FF7B6810221D
:103110009A6200BF1037BD4680BD00BF000001406D
:1031200080B483B000AF78607B6880221A6300BFF0
:103130000C37BD4680BC704780B483B000AF786068
:103140007B6800221A6300BF0C37BD4680BC704705
:1031500080B586B000AFF860B9607A6000237B610B
:10316000BB683B610BE03B691B781946F868FFF7C9
:10317000E7FE3B6901333B617B6901337B617A691F
:103180007B689A4207DAF868FFF733FF034603F0DB
:103190002003002BE7D17B6918461837BD4680BD58
:1031A00080B588B000AFF860B9607A600023FB6139
:1031B000BB68BB6111E07A68B969F868FFF7C8FFBE
:1031C00078617A687B69D31A7B60FA697B691344FA
:1031D000FB617B69BA691344BB617B68002BEADC45
:1031E000FB6918462037BD4680BD80B586B000AF6C
:1031F000786039607868FFF72FFF03461846FFF7BD
:1032000045FD78613B681B017A69B2FBF3F33B61D2
:103210003B691B0AFB60FB681B023A69D31ABB605F
:103220007868FFF7B5FEBB68DBB2FA68D2B2194620
:103230007868FFF7CBFE7868FFF7B9FE7A693B69DB
:10324000B2FBF3F318461837BD4680BD08B500F051
:1032500085F8BDE80840FFF7F3B800F0F5BA00F0D4
:103260000DBBFFFFF8B5304F3C68002851D100205E
:10327000F8BD2368B3F1805F39D1D4E9013151B190
:103280000D68B5F1805F06D1DD1C4B682B4463608F
:103290008B68A360F1E79E4207DC9E4505DB204674
:1032A0004FF0005340F80C3BE2E7634511D920464C
:1032B0004FF00055666040F80C5B22F003054219A0
:1032C000A2604FF080549B1B033B4451C2E9013183
:1032D000CEE761B9A0EB830000F09CF80130C6D0C6
:1032E0004FF0005304F10C00C4E90036C0E7254656
:1032F000A468002CBDD10C3000F08CF8431CB6D073
:103300004FF000538460C0E9003655B938600C3086
:10331000AEE7C21C9608002506F10A0C06F1030E62
:10332000E7E7A860F3E700BF24020010A8B14FF060
:10333000805340F80C3C50F8042C72B11368B3F180
:10334000805F0AD150F8083C516803330B4440F8C1
:10335000083C936840F8043CEDE7704710B5174A05
:103360001749002000F074F84FF480734FF4806226
:103370000021124800F02EF8124A1349012000F0F3
:1033800067F84FF480734FF4806200210D4800F01D
:1033900021F80E4B1B68022B0EDD0D4A0A49022054
:1033A00000F056F8BDE810404FF480734FF480628F
:1033B0000021074800F00EB810BD00BF2C0200101D
:1033C00058390000680200105A3900005C390000CA
:1033D000A402001070B5C468A50708D0B2F5007F3C
:1033E00011D0B2F5806F04D0B2F5807F0BD00120F0
:1033F00008E0012300F12401144301610160C3616D
:10340000C460002070BD6FF07F455E1EAE42F3D3F6
:10341000EDE7FFFF70B50B4E044635680DB90A4D58
:103420003560033424F003042C44204600F05EF998
:1034300010B93460284670BD0C22044B4FF0FF35A4
:103440001A60F7E7200200100C0400102802001098
:1034500070B50D4606461046144600F02DF82B7840
:10346000722B17D0772B18D0612B23D1082348F269
:10347000020215F8011F2B2912D0622915D01B0753
:10348000E260666104D502220021204600F05EF869
:10349000204670BD00230122EBE704230222E8E767
:1034A00042F0030243F00203E3E742F0040243F078
:1034B0000103DEE70024EBE7F0B5C5680446A90781
:1034C00089B022D02A0718D4D0E9046700F020F888
:1034D000384600F0ECF92B0502D53046FFF726FF01
:1034E0006FF3150515F1A54F07D120226846216A13
:1034F00000F0ECF9684600F0C7F83C2200212046B5
:10350000FFF7ADFE002009B0F0BD4FF0FF30FAE745
:10351000F8B5044638B905460A4B0B4E1F68A7425A
:1035200005DC2846F8BDBDE8F84000F0EBB83046B1
:1035300000F0E8F8002818BF4FF0FF3501343C36A2
:10354000EDE700BF5C3900002C0200102DE9F843C4
:10355000C6683B4B044633400D4690467BB1D0F8DD
:103560001490484600F0A9F9074640B9B8F1010F98
:1035700009D0B8F1020F31D0B8F1000F07D00227FF
:103580003846BDE8F883204600F05CF80544002D7D
:10359000F5DBB30404D52368E26A9A4238BFE362DC
:1035A000A069A8420EDC2368E26A934238BF134642
:1035B00022691918891AA94204DB216B00EB010C5E
:1035C000AC452CDC0023C4E9013346F02006A5629B
:1035D00026F4032626F04006E660D1E7484600F0D0
:1035E00069F90028E26804DA42F080020127E2600B
:1035F000C6E72168A369D4F82CC061452CBF5B18CD
:10360000634421699206A3EB010303D5A26A9342A6
:10361000B8BF13468342ACBFED182D18B7E72D1A7B
:10362000B00744BF691AA160F10744BF9B1AEB1AA7
:103630002A4448BF6360226026F02006C8E700BF26
:1036400003001000C3689A0705D121220D4B4FF0EB
:10365000FF301A60704703F020021B0309D512B136
:10366000806A013870470368826900691344181A38
:10367000F7E70AB1806A70470368826900691344FA
:10368000181A70472802001010B5044600F006F81A
:1036900001462046BDE8104000F012B9034610B5BF
:1036A0009A071C4615D1234654F8042BA2F1013188
:1036B00021EA020111F0803FF5D0D1B299B112F4A4
:1036C0007F4F0ED012F47F0F14BF23460333013017
:1036D00003E01A4612F8011B09B9181A10BD134667
:1036E000DEE70233F3E70133F1E7FFFF044B23B1D9
:1036F000984234BF0020012070471846704700BF31
:1037000000000000C36870B513F00306044611D032
:103710009B0611D5856A00F077F8E368204623F40C
:103720004053E36000F00EF800220646294620468A
:10373000FFF70CFF304670BD836905681D440369BF
:10374000ED1AEAE738B50446C36805690168C26A3C
:1037500023F40020E06003F08200022802D04FF042
:10376000FF3038BDDB030CD5914238BF11468D4286
:1037700009D10023A360E368E56223F48033256068
:10378000E3600020EDE722462846491B00F004F8DC
:103790000028EED0E3E7FFFF2DE9F041D568804631
:1037A000EB020E461446576912D5384600F082F8EF
:1037B00045F01005A0613846A16900F084F80028A2
:1037C00019DAE3684FF0FF3043F08003E36010E064
:1037D0000C4B2B40002BEED132464146384600F0D0
:1037E00078F820F00043F61AA3693344A361002857
:1037F000E7D1BDE8F08125F4003525F01005E5603E
:10380000EAE700BF10000200C36810B523F02002F1
:103810008169C260826A044691420FD0FFF792FF2D
:10382000E36823F4405323F0100343F01003E360F4
:10383000A36AA3612369E362236010BD23F480437C
:1038400023F06003C360F8E740EA0103DB070346A7
:103850000CD40346043A22BF51F804CB43F804CBFE
:10386000B2F10402F7D2043208BF7047013A24BF14
:1038700011F801CB03F801CBF8D87047034613F0D9
:10388000030F0ED101F0FF0141EA012141EA01419C
:10389000043A24BF43F8041BB2F10402F9D202F146
:1038A0000402013A24BF03F8011BFAE770474FF006
:1038B000FF3070474FF0FF3070474FF0FF307047D8
:1038C0004FF0FF3070474FF0FF3070474FF0FF3040
:1038D000704710467047FFFF49444C450000000008
:1038E0006170705278000000736C765278000000AE
:1038F00070696E6765720000736C76547800000022
:10390000617070547800FFFF279705850000000064
:103910001600000027970485FF030016041C00040E
:103920000005000600070008001BB700008000002B
:103930001009000018090000020A00000A0A00002D
:10394000E4080000200800002808000030080000FB
:1039500038080000400800007200770008000000EE
:0C396000AAAAAAAAFFFFFFFFC8000000EF
:040000030000017187
:00000001FF
