:100000000080001071010000ED010000F50100000A
:10001000FD010000050200000D02000000000000CC
:1000200000000000000000000000000015020000B9
:100030001D02000000000000250200002D0200004B
:1000400035020000350200003502000035020000D4
:1000500035020000F5150000091700003502000008
:1000600035020000350200003502000035020000B4
:1000700035020000350200003502000035020000A4
:100080003502000035020000350200003502000094
:1000900035020000751C000035020000350200002A
:1000A0003502000035020000350200003502000074
:1000B0003502000031190000350200003502000051
:1000C0003502000035020000350200009C350000BA
:1000D00000000010100000009C35000000C0072048
:1000E0000000000010000010140F000000C00720E6
:1000F0000000000080B489B000AFF860B9607A6099
:10010000BB68FB61FB68BB6100237B610AE0BA69E5
:10011000131DBB61FB69191DF96112681A607B69C7
:1001200004337B617A697B689A42F0D300BF00BFD9
:100130002437BD4680BC704780B485B000AF78607E
:1001400039607B68FB600023BB6007E0FB681A1D19
:10015000FA6000221A60BB680433BB60BA683B686F
:100160009A42F3D300BF00BF1437BD4680BC70472E
:1001700080B584B000AF1A4BFB6013E0FB681A1D1A
:10018000FA601B683B60FB681A1DFA601B68BB6065
:10019000FB681A1DFA601B687B607A68B96838686A
:1001A000FFF7A8FFFB680F4A9342E7D30DE0FB6817
:1001B0001A1DFA601B68BB60FB681A1DFA601B6899
:1001C0007B607968B868FFF7B7FFFB68064A93421F
:1001D000EDD300F033F802F0F9FE00BFFDE700BFF9
:1001E000CC000000E4000000F400000080B400AF88
:1001F00000BFFDE780B400AF00BFFDE780B400AFF3
:1002000000BFFDE780B400AF00BFFDE780B400AFE2
:1002100000BFFDE780B400AF00BFFDE780B400AFD2
:1002200000BFFDE780B400AF00BFFDE780B400AFC2
:1002300000BFFDE780B400AF00BFFDE780B582B02E
:1002400000AF054B7B60054A7B681A6002F061F9DC
:1002500000BF0837BD4680BD08ED00E0000000008B
:1002600080B483B000AF0346FB71FB7903F01F033A
:10027000012202FA03F1054A97F907305B0942F8B7
:10028000231000BF0C37BD4680BC704700E100E082
:1002900080B483B000AF0346FB71FB7903F01F030A
:1002A000012202FA03F1064A97F907305B0920336D
:1002B00042F8231000BF0C37BD4680BC704700BF1A
:1002C00000E100E080B483B000AF0346FB71FB792E
:1002D00003F01F03012202FA03F1064A97F90730DF
:1002E0005B09603342F8231000BF0C37BD4680BC69
:1002F000704700BF00E100E080B483B000AF034668
:100300003960FB7197F90730002B0BDA3B68DAB2E2
:100310000C49FB7903F00F03043BD200D2B20B442B
:100320001A7609E03B68DAB2074997F90730D2003C
:10033000D2B20B4483F8002300BF0C37BD4680BC0B
:10034000704700BF00ED00E000E100E080B582B042
:1003500000AF78600F2002F0D9F900BF0837BD4622
:1003600080BD80B582B000AF78600F2002F0CEF97A
:1003700000BF0837BD4680BD80B483B000AF786051
:100380000B46FB701346BB70FB785B017A68134425
:100390001968BB7801229A40FB785B0178680344B6
:1003A0000A431A6000BF0C37BD4680BC704780B45A
:1003B00083B000AF78600B46FB701346BB70FB78D0
:1003C0005B017A6813441968BB78012202FA03F3CF
:1003D000DA43FB785B01786803440A401A6000BF87
:1003E0000C37BD4680BC704780B485B000AFF86064
:1003F0000B467A60FB72FB7A002B03D1FB687A68AC
:100400005A6102E0FB687A685A6300BF1437BD4640
:1004100080BC704780B485B000AFF8600B467A604E
:10042000FB72FB7A002B03D1FB687A681A6102E049
:10043000FB687A681A6300BF1437BD4680BC7047FA
:1004400080B483B000AF78600B46FB70FB78002B64
:1004500002D17B689B6801E07B689B6A18460C3779
:10046000BD4680BC704780B483B000AF78600B4657
:10047000FB70FB78002B02D17B685B6801E07B6836
:100480005B6A18460C37BD4680BC704780B485B0A7
:1004900000AFF8600B467A60FB72FB7A002B03D149
:1004A000FB687A68DA6002E0FB687A68DA6200BFAB
:1004B0001437BD4680BC704780B483B000AF78600D
:1004C0007B689B6843F001027B689A6000BF0C3731
:1004D000BD4680BC704780B483B000AF78607B6855
:1004E0001B68DBB218460C37BD4680BC704780B431
:1004F00083B000AF786039607B685A683B681A4304
:100500007B685A6000BF0C37BD4680BC704780B422
:1005100083B000AF786039607B683A689A6000BF4A
:100520000C37BD4680BC704780B483B000AF7860A4
:1005300039607B683A68DA6000BF0C37BD4680BC22
:10054000704780B483B000AF78607B685B69184601
:100550000C37BD4680BC704780B584B000AF786072
:100560000B46FB70204B1B78DBB201335A4203F081
:100570007F0302F07F0258BF5342FB731B4B1B7873
:10058000DBB2FA7B9A4206D1194B1B680133184A39
:100590001360002324E0FB78092B01D90923FB70A9
:1005A000114B1B78DBB21A4613469B0013445B00C9
:1005B000104A1344FA787968184602F00EFD0A4B87
:1005C0001B78DBB219460B4A0B469B000B445B00C1
:1005D00013440933FA781A70034AFB7B1370012322
:1005E00018461037BD4680BD54000010550000105D
:1005F000580500105800001080B483B000AF786038
:10060000174B1B78DAB2174B1B78DBB29A4201D139
:10061000002320E0124B1B78DBB219467868124A9F
:100620000B469B000B445B001A440346106851685C
:100630001860596012891A81094B1B78DBB20133AB
:100640005A4203F07F0302F07F0258BF5342DAB2EE
:10065000034B1A70012318460C37BD4680BC704707
:1006600055000010540000105800001080B584B0F0
:1006700000AF78600B46FB70204B1B78DBB2013378
:100680005A4203F07F0302F07F0258BF5342FB73CC
:100690001B4B1B78DBB2FA7B9A4206D1194B1B68C5
:1006A0000133184A1360002324E0FB78092B01D999
:1006B0000923FB70114B1B78DBB21A4613469B00D3
:1006C00013445B00104A1344FA787968184602F024
:1006D00084FC0A4B1B78DBB219460B4A0B469B0085
:1006E0000B445B0013440933FA781A70034AFB7B0E
:1006F0001370012318461037BD4680BD5C050010FD
:100700005D050010600A00106005001080B483B021
:1007100000AF7860174B1B78DAB2174B1B78DBB24F
:100720009A4201D1002320E0124B1B78DBB219461C
:100730007868124A0B469B000B445B001A44034640
:10074000106851681860596012891A81094B1B782A
:10075000DBB201335A4203F07F0302F07F0258BF3D
:100760005342DAB2034B1A70012318460C37BD46C8
:1007700080BC70475D0500105C050010600500102E
:1007800080B586B000AF03460A46FB711346BB71C5
:1007900027233B7397237B730523BB738523FB734D
:1007A000FB793B7402237B740123BB74BB79FB741C
:1007B00016233B7507F10C0309211846FFF7CCFE01
:1007C00000BF1837BD4680BD80B582B000AF074A74
:1007D0003B4692E8030083E803003B4608211846A5
:1007E000FFF7BAFE00BF0837BD4680BD38350000B0
:1007F00080B586B000AF0346FB7127233B73972378
:100800007B730523BB738523FB73FB793B74002348
:100810007B740023BB740023FB7416233B7507F124
:100820000C0309211846FFF797FE00BF1837BD4695
:1008300080BD80B586B000AF03460A46FB71134603
:10084000BB7127233B7397237B730523BB738523DE
:10085000FB73FB793B7404237B740123BB74BB796A
:10086000FB7416233B7507F10C0309211846FFF7AB
:10087000FDFE00BF1837BD4680BDFFFF80B582B0CA
:1008800000AF074A3B4692E8030083E803003B467B
:1008900008211846FFF7EAFE00BF0837BD4680BDB5
:1008A0003835000080B500AF4FF490720021044845
:1008B00002F095FB034B01221A7000BF80BD00BF00
:1008C0005C0B00107C0C001080B485B000AF0346B8
:1008D000FB80FB88002B23D0FB88602B20D8FB8873
:1008E000013BFB81FA89114913465B0013440B4419
:1008F000FF221A70FA890D4913465B0013440B441A
:10090000013300221A70FA89084913465B00134428
:100910000B44023300221A70054B01221A7000E0CA
:1009200000BF1437BD4680BC704700BF5C0B001091
:100930007C0C001080B500AF094B1B78DBB283F054
:100940000103DBB2002B09D1064801F0FDFB06488C
:1009500001F0FAFB024B00221A7000E000BF80BDDC
:100960007C0C0010000000100800001080B485B05E
:1009700000AF03460A46FB711346BB710023FB73AD
:1009800035E0FA7B3D4913465B0013445B000B44A2
:1009900004331B78DBB2002B26D0FA7B3749134691
:1009A0005B0013445B000B441B78DBB2FA799A427C
:1009B0001AD1FA7B314913465B0013445B000B44A8
:1009C00001331B78DBB2BA799A420DD12C4B1B68EC
:1009D000FA7B98B2294913465B0013445B000B4431
:1009E000023302461A8045E0FB7B0133FB73FB7B3D
:1009F0000F2BC6D90023BB7339E0BA7B1F491346BE
:100A00005B0013445B000B4404331B78DBB2002B08
:100A10002AD1BA7B194913465B0013445B000B448F
:100A2000FA791A70BA7B154913465B0013445B00D0
:100A30000B440133BA791A70114B1B68BA7B98B218
:100A40000E4913465B0013445B000B44023302461D
:100A50001A80BA7B094913465B0013445B000B44C0
:100A6000043301221A7005E0BB7B0133BB73BB7BEF
:100A70000F2BC2D91437BD4680BC7047800C0010C4
:100A8000640A001080B483B000AF0023FB710CE057
:100A9000FA790A4913465B0013445B000B440433A4
:100AA00000221A70FB790133FB71FB790F2BEFD910
:100AB00000BF00BF0C37BD4680BC7047800C0010E3
:100AC00080B485B000AF03460A46FB711346BB7184
:100AD0000023FB7331E0FA7B1C4913465B0013448F
:100AE0005B000B4404331B78DBB2002B22D0FA7B73
:100AF000164913465B0013445B000B441B78DBB2C2
:100B0000FA799A4216D1FA7B104913465B001344D6
:100B10005B000B4401331B78DBB2BA799A4209D0EF
:100B2000FA7B0A4913465B0013445B000B44043311
:100B300000221A70FB7B0133FB73FB7B0F2BCAD99E
:100B400000BF00BF1437BD4680BC7047800C00104A
:100B500080B485B000AF03460A46FB711346BB71F3
:100B60000023FB7329E0FA7B184913465B0013440A
:100B70005B000B4404331B78DBB2002B1AD0FA7BEA
:100B8000124913465B0013445B000B441B78DBB235
:100B9000FA799A420ED1FA7B0C4913465B00134452
:100BA0005B000B4401331B78DBB2BA799A4201D166
:100BB000FB7B06E0FB7B0133FB73FB7B0F2BD2D966
:100BC000FF2318461437BD4680BC7047800C0010C8
:100BD00080B584B000AF0346FB80224B1B889BB2DC
:100BE000002B34D01F4B1B889BB2602B2FD81D4B82
:100BF0001B889BB2013BFB81F9891B4A0B465B00BA
:100C00000B441344023300221A70FA8916480B462B
:100C10005B000B44034402331878134913465B000E
:100C200013440B44013301461970F9890E481346E9
:100C30005B0013440344013318780B4A0B465B00F6
:100C40000B44134402461A70084B01221A70054ADD
:100C5000FB881380FB881846FFF736FE00BF10376D
:100C6000BD4680BDE20C00105C0B00107C0C001037
:100C700080B485B000AF03460A46FB711346BB71D2
:100C80000023FB7331E0FA7B1C4913465B001344DD
:100C90005B000B4404331B78DBB2002B22D0FA7BC1
:100CA000164913465B0013445B000B441B78DBB210
:100CB000FA799A4216D1FA7B104913465B00134425
:100CC0005B000B4401331B78DBB2BA799A4209D03E
:100CD000FA7B0A4913465B0013445B000B44043360
:100CE00000221A70FB7B0133FB73FB7B1F2BCAD9DD
:100CF00000BF00BF1437BD4680BC70476C0A0010AF
:100D000080B485B000AF03460A46FB711346BB7141
:100D10000023FB7329E0FA7B184913465B00134458
:100D20005B000B4404331B78DBB2002B1AD0FA7B38
:100D3000124913465B0013445B000B441B78DBB283
:100D4000FA799A420ED1FA7B0C4913465B001344A0
:100D50005B000B4401331B78DBB2BA799A4201D1B4
:100D6000FB7B06E0FB7B0133FB73FB7B1F2BD2D9A4
:100D7000FF2318461437BD4680BC70476C0A00102C
:100D800080B487B000AF03460A46FB711346BB71BF
:100D90000023FB7529E0FA7D184913465B001344D4
:100DA0005B000B4404331B78DBB2002B1AD1FA7DB5
:100DB000134B1B6899B2FB793B74BB797B740B4670
:100DC0007B8201233B750D4913465B0013445B0096
:100DD0000B441A4607F11003186810609B88938033
:100DE000FB7D06E0FB7D0133FB75FB7D1F2BD2D91C
:100DF000FF2318461C37BD4680BC70476C0A0010A4
:100E0000640A001080B48BB000AF78600B46FB70B2
:100E10006A4B1B7887F8213097F82130073387F821
:100E2000203097F820300333FB77FA7FFB789A4223
:100E300001D90023BDE0624B1A68624B1B68134363
:100E4000BB61614B1A68614B1B681343BA6913405D
:100E50007B617B687B627B6A5A1C7A6227221A70EC
:100E60007B6A5A1C7A6297F820201A707B6A5A1C97
:100E70007A6200221A707B6A5A1C7A6201221A7006
:100E80007B6A5A1C7A620A221A707B6A5A1C7A623E
:100E90004F4A1278D2B21A707B6A5A1C7A6297F85B
:100EA00021201A70002387F823306CE097F8233054
:100EB000484AD35CFB74FB7C002B08D0FB7C1F2BC7
:100EC00005D8FB7C013B012202FA03F300E000237A
:100ED000FB60002387F82230BA69FB681340002BBF
:100EE00014BF01230023FB727A69FB681340002BB7
:100EF00014BF01230023BB72374B1B68B3F1FF3FC4
:100F000008D0FB68002B09D0334B1A68FB681340EC
:100F1000002B03D0012387F8223029E02F4B1A68D9
:100F2000FB681340002B16D0BB7A002B03D00123A3
:100F300087F822301CE0FB68DA43284B1B6813401B
:100F4000264A1360FB7A002B01D0052300E0002322
:100F500087F822300CE0FB7A002B06D0BB7A002BFE
:100F600001D0072302E0052300E0002387F82230A8
:100F70007B6A5A1C7A6297F822201A7097F82330FD
:100F8000013387F8233097F8232097F821309A42CD
:100F90008CD37B6A5A1C7A6200221A707B6A5A1CB4
:100FA0007A6200221A707B6A5A1C7A6216221A70C0
:100FB000FB7F18462C37BD4680BC704733000010BD
:100FC0003C000010340000104000001038000010F9
:100FD0001000001014000010440000104800001021
:100FE00080B582B000AF29210848FFF70BFF034608
:100FF000FB71FB79002B05D0054AFB791370054B7B
:1010000000221A6000BF0837BD4680BD300B0010BB
:101010002F0B00104400001080B485B000AF786042
:101020000B46FB70FB78002B3BD07B681B78BB73B7
:10103000BB7B5B00DBB20133DBB2FA789A4232D37E
:101040001B4B00221A700023FB731EE0FB7B5B002E
:1010500001331A467B6813441B787B73FB7B5B0070
:1010600002337A6813441B783B733B7B012B09D115
:101070000F4B1B785A1CD1B20D4A117019460D4AFC
:101080007B7B5354FB7B0133FB73FA7BBB7B9A4224
:1010900003D2074B1B781E2BD8D9074B00221A709E
:1010A00002E000BF00E000BF1437BD4680BC7047BF
:1010B00033000010140000101000001080B400AFC6
:1010C000054B1B78DBB223F00203DAB2024B1A7035
:1010D00000BFBD4680BC70471000001080B586B0D0
:1010E00000AF78600B46FB70FB78022B40F21D814D
:1010F0007B681B787B757B7D002B54D1FB78052B9F
:1011000040F215817B6801331B78002B40F0118180
:101110007B6802331B78002B40F00B817B68033324
:101120001B78022B40F005817B6804331B787B73AE
:101130007B6805331B783B731D20FFF7A9F83A7BCA
:101140007B7B11461846FFF7BBFC3A7B7B7B114645
:101150001846FFF70BFC3A7B7B7B11461846FFF7DE
:10116000F7FC0346FB72FB7AFF2B0FD0764B1B6814
:10117000FA7A98B2754913465B0013445B000B443E
:10118000023302461A80724AFB7A13701D20FFF761
:1011900067F87B7B012B40F0CE803B7B9BB21846EF
:1011A000FFF716FDC7E07B7D012B3ED1FB78022BBC
:1011B00040F2C3807B6801331B78FB737B6802338A
:1011C0001B78BB731D20FFF763F8BA7BFB7B1146CE
:1011D0001846FFF74DFDBA7BFB7B11461846FFF71B
:1011E0008FFD0346FB75FB7DFF2B07D1BA7BFB7B95
:1011F00011461846FFF7C4FD0346FB75FB7DFF2B28
:101200000FD0514B1B68FA7D98B2524913465B00D0
:1012100013445B000B44023302461A804E4AFB7DA6
:1012200013701D20FFF71CF88AE07B7D022B40F035
:101230008780FB78052B40F282807B6801331B7826
:101240003B757B6802331B78FB747B6804331B7827
:10125000BB747B6805331B787B741D20FFF718F87F
:10126000FA7C3B7D11461846FFF72AFCFA7C3B7D51
:1012700011461846FFF77AFBFA7C3B7D114618466B
:10128000FFF766FC03463B743B7CFF2B0FD02E4BD5
:101290001B683A7C98B22D4913465B0013445B00EF
:1012A0000B44023302461A80294A3B7C13701D20EE
:1012B000FEF7D6FF3B7D012B04D1FB7C9BB2184689
:1012C000FFF786FC1D20FEF7E3FF7A7CBB7C11460E
:1012D0001846FFF7CDFC7A7CBB7C11461846FFF719
:1012E0000FFD0346BB75BB7DFF2B07D17A7CBB7C12
:1012F00011461846FFF744FD0346BB75BB7DFF2B27
:101300000FD0114B1B68BA7D98B2124913465B008F
:1013100013445B000B44023302461A800E4ABB7D25
:1013200013701D20FEF79CFF0AE000BF08E000BF1D
:1013300006E000BF04E000BF02E000BF00E000BF25
:101340001837BD4680BD00BF640A0010800C001035
:10135000E00C00106C0A00102D0B001080B584B05A
:1013600000AF78600B46FB700023FB730CE0FA7B48
:101370000F4913465B0013445B000B440433002207
:101380001A70FB7B0133FB73FB7B1F2BEFD9094BDF
:1013900001221A70FFF776FB074B01221A70FFF744
:1013A0008DFEFFF77FFA00BF1037BD4680BD00BF3E
:1013B0006C0A00102C0B0010E10C001080B582B0FC
:1013C00000AF78600B46FB70FB78012B0ED97B6871
:1013D0001A787B6801331B78012B0CBF0123002393
:1013E000DBB21946104601F01BF800E000BF0837D9
:1013F000BD4680BD80B584B000AF78600B46FB7001
:10140000FB78002B06D0FB78002B08D07B681B787C
:10141000002B04D1104B4FF0FF321A6013E07B68B1
:101420001B78FB73FB7B002B0AD0FB7B1F2B07D8A1
:10143000FB7B013B012202FA03F3074A136002E03F
:10144000054B00221A6000210020FFF787FF00BF34
:101450001037BD4680BD00BF4400001080B586B087
:1014600000AF78600B46FB701B4B00221A701B4BC1
:101470001A681B4B1B6813433B611A4B1A681A4BC3
:101480001B6813433A691340FB60184B1A68FB68EA
:101490001343164A1360164B01221A70154B012292
:1014A0001A70FFF7FFF90023FB750CE0FA7D124973
:1014B00013465B0013445B000B44043300221A7094
:1014C000FB7D0133FB75FB7D1F2BEFD9FFF7DAFAAC
:1014D00000BF1837BD4680BD100000103C00001052
:1014E00034000010400000103800001048000010C8
:1014F0002C0B0010E10C00106C0A001080B586B0B7
:1015000000AF78600B46FB70FB78022B6BD97B68D1
:101510001B78FB757B6801331B78BB757B680233D6
:101520001B787B75FB78032B02D97B68033300E0C3
:1015300000233B61FB78032B03D9FB78033BDBB231
:1015400000E00023FB73FB7D852B4ED1BB7D012B7F
:101550004BD17B7D092B1BDC002B40DB092B3ED8BC
:1015600001A252F823F000BFDF150000DF150000D4
:10157000A3150000AF15000097150000DF1500004F
:10158000C7150000DF150000DF150000D3150000AF
:101590003A2B12D023E0FB7B19463869FFF73CFD5C
:1015A0001EE0FB7B19463869FFF798FD18E0FB7BCE
:1015B00019463869FFF71EFF12E0FB7B19463869B0
:1015C000FFF7CCFE0CE0FB7B19463869FFF7F6FE0F
:1015D00006E0FB7B19463869FFF740FF00E000BFDB
:1015E000FFF7FEFC02E000BF00E000BF1837BD4679
:1015F00080BD00BF80B582B000AF6AE03B48FEF717
:101600006AFF0346FB713A4B1B689AB2394B1A804A
:10161000394B1B78DBB2032B54D801A252F823F0CC
:10162000311600003F1600006F160000A9160000DA
:10163000FB79272B4AD1304B01221A7046E02F4A02
:10164000FB7913702E4B00221A702C4B1B78DBB2E7
:10165000002B04D0294B1B78DBB2422B03D9264B3D
:1016600000221A7035E0244B02221A7031E0244B1C
:101670001B78412B14D8224B1B785A1CD1B2204A1C
:10168000117019461F4AFB7953541D4B1A781B4B96
:101690001B78DBB29A421BD1174B03221A7017E05A
:1016A000154B00221A7013E0FB79162B06D1134B51
:1016B0001B78DBB219461348FFF720FF0E4B0022C0
:1016C0001A7006E00C4B00221A7002E000BF00E026
:1016D00000BF0648FEF735FF034603F00103002B69
:1016E0008CD100BF00BF0837BD4680BD00C00040A0
:1016F000640A0010680A0010E40C0010E50C0010E9
:101700002A0D0010E80C001080B582B000AFCCE0CC
:101710006D48FEF7E0FE0346FB716C4B1B78DBB2B5
:10172000042B00F2BB8001A252F823F04117000005
:10173000511700008F170000BF170000ED170000C1
:10174000FB79272B40F0AE80604B01221A70A9E094
:10175000FB79272B03D15D4B02221A70A5E05C4A6E
:10176000FB7913705B4B00221A70594B1B78DBB26C
:10177000002B04D0564B1B78DBB2082B03D9534BFC
:1017800000221A7091E0514B03221A708DE0504AEA
:10179000FB7913704F4B00221A704D4B1B78DBB254
:1017A000002B04D04A4B1B78DBB2082B03D9474BE4
:1017B00000221A7079E0454B03221A7075E0454B00
:1017C0001B78DBB25A1CD1B2424A11701946424A08
:1017D000FB7953543F4B1B78DAB23D4B1B78DBB29D
:1017E0009A4261D1394B04221A705DE0FB79162BC5
:1017F00050D1374B1B78DBB2032B4BD1364B1B78C8
:101800000A2B47D1344B5B78BB71334B9B787B7190
:10181000BB79002B3ED0BB791F2B3BD87B79002BAB
:1018200038D0BB79013B012202FA03F33B602B4B1A
:101830001A683B681343294A13607B79032B06D14E
:10184000274B1A683B681343254A136006E03B6840
:10185000DA43234B1B681340214A1360214B1B784A
:10186000DBB2002B16D0204B1A683B6813431E4A8C
:1018700013607B79032B06D11C4B1A683B6813431A
:101880001A4A136006E03B68DA43184B1B681340A2
:10189000164A13600D4B00221A7006E00B4B002213
:1018A0001A7002E000BF00E000BF0748FEF749FEE3
:1018B000034603F00103002B7FF42AAF00BF00BFF3
:1018C0000837BD4680BD00BF000001402B0D001051
:1018D0002C0D00102D0D0010300D001034000010E4
:1018E000380000102E0B00103C00001040000010CB
:1018F00080B400AF0A4B1B680A4A13600A4B1A688F
:10190000084B1B681340094A1360054B00221A60FC
:10191000054B00221A6000BFBD4680BC704700BF67
:10192000340000103C00001038000010400000108F
:1019300080B584B000AF8948FEF7BEFD884B1B68B8
:101940000133874A1360874B1B78DBB2002B04D02E
:10195000FEF73AFF834B00221A70834B1B78DBB2F1
:10196000002B04D0FEF78AFF7F4B00221A707C4BBD
:101970001B689AB27D4B1B889BB2D31A9BB21BB2D9
:101980001C2BCCBF01230023FB72FB7A002B11D050
:10199000FEF71AFFFEF772FF754B1B78DBB2002BC8
:1019A00004D1FEF77FFF724B01221A70714B0122A6
:1019B0001A7055E16E4B00221A700023FB7300234E
:1019C000BB7311E0BA7B6C4913465B0013445B00A8
:1019D0000B4404331B78DBB2002B02D00123FB73D2
:1019E00005E0BB7B0133BB73BB7B1F2BEAD9634A8A
:1019F000FB7B1370FB7B002B72D0614B01221A70B2
:101A000000237B7360E05F4B1A787B7B1344DBB26F
:101A100003F01F037B727A7A574913465B00134425
:101A20005B000B4404331B78DBB2002B48D04C4BDB
:101A30001B6899B27A7A504813465B0013445B00E6
:101A4000034402331B889BB2CB1A9BB21BB2DB430D
:101A50009BB2DB0B3B723B7A002B32D07A7A464941
:101A600013465B0013445B000B441B78D8B27A7AB0
:101A7000414913465B0013445B000B4401331B7860
:101A8000DBB21946FEF77CFE354B1B689BB27A7AB7
:101A9000013398B2384913465B0013445B000B4492
:101AA000023302461A807B7A01335A4203F01F0345
:101AB00002F01F0258BF5342DAB2324B1A7006E0EE
:101AC00000BF7B7B01337B737B7B1F2B9BD92E4B12
:101AD0001B78DBB2002B3DD0264B01221A7039E077
:101AE000274B1B78DBB2002B05D0254B00221A7048
:101AF000264B00221A70264B1B78002B22D0234B3A
:101B00001B78DBB2002B01D1FFF7F2FE1F4B1B78D5
:101B1000DBB21A461F4B9B5CBB72BB7A1846FEF7C2
:101B200067FE1A4B1B78DBB20133DAB2174B1A701F
:101B3000164B1B78DAB2164B1B789A4202D3134B22
:101B400000221A70104B1B78DBB2002B02D0094B1D
:101B500001221A7000233B737FE000BF00000B409E
:101B6000640A00102C0B0010E10C0010680A001031
:101B70006A0A00107D0C00106C0A00102E0B001079
:101B8000390D00102D0B00107C0C0010380D0010CA
:101B90003300001014000010334B1A783B7B1344C1
:101BA000DBB203F00F03FB71FA79304913465B0097
:101BB00013445B000B4404331B78DBB2002B48D08A
:101BC0002B4B1B6899B2FA79284813465B001344E3
:101BD0005B00034402331B889BB2CB1A9BB21BB23F
:101BE000DB439BB2DB0BBB71BB79002B32D0FA79A4
:101BF0001E4913465B0013445B000B441B78D8B2AC
:101C0000FA791A4913465B0013445B000B44013315
:101C10001B78DBB21946FEF70CFE154B1B689BB216
:101C2000FA79013398B2114913465B0013445B0003
:101C30000B44023302461A80FB7901335A4203F007
:101C40000F0302F00F0258BF5342DAB2064B1A706C
:101C500006E000BF3B7B01333B733B7B0F2B9BD9E3
:101C60001037BD4680BD00BFE00C0010800C001096
:101C7000640A001080B584B000AF02214648FEF728
:101C8000F2FBF86002214448FEF7DAFBB860434BF0
:101C90001B68FB80BB6803F00803002B13D0404B8C
:101CA0005B889BB2FA88D31A9BB21BB2012B05DD6D
:101CB0003B4B01221A703A4AFB88538008220221CA
:101CC0003548FEF7E3FBFB6803F00803002B20D048
:101CD000334B1B78DBB2002B16D0314B5B889BB2A9
:101CE000FA88D31A9BB21BB2012B0DDD2D4B1B784A
:101CF000DBB243F00203DAB22A4B1A70284B0022FF
:101D00001A70274AFB885380082202212248FEF7D6
:101D1000BDFBBB6803F01003002B13D0224B5B8884
:101D20009BB2FA88D31A9BB21BB2012B05DD1E4B66
:101D300001221A701C4AFB88538010220221164887
:101D4000FEF7A4FBFB6803F01003002B20D0164B1A
:101D50001B78DBB2002B16D0134B5B889BB2FA8842
:101D6000D31A9BB21BB2012B0DDD0E4B1B78DBB2DD
:101D700043F00103DAB20B4B1A700B4B00221A70BE
:101D8000094AFB885380102202210348FEF77EFB9C
:101D900000BF1037BD4680BD80800240640A00103D
:101DA0004C000010100000105000001080B586B0EC
:101DB00000AF00F0B7FB00F059FB042202216F488E
:101DC000FEF7F5FA032202216C48FEF7F0FA18221A
:101DD00002216B48FEF75AFB182202216848FEF7E1
:101DE00003FB182202216648FEF714FB1520FEF7BC
:101DF00069FA02211520FEF77FFA1520FEF730FA66
:101E00006048FEF7A3FA5D48FEF7ABFA08231922F3
:101E100003215C4800F0B7FD08231A22032159482A
:101E200000F0B1FD192203215448FEF7A5FA1A2249
:101E300003215248FEF7A0FA534800F0F5FF4FF493
:101E40009641514801F091F803214F48FEF76CFB91
:101E500081214D48FEF75BFB4B4801F021F84B48D0
:101E600000F0E2FF4FF41651484801F07EF80321DC
:101E70004648FEF759FB81214448FEF748FB43489A
:101E800001F00EF8424800F0CFFF4FF416514048E1
:101E900001F06BF803213E48FEF746FB81213C48E8
:101EA000FEF735FB3A4800F0FBFF05213648FEF708
:101EB0001EFB03210520FEF71FFA0520FEF7D0F9CF
:101EC00005213248FEF713FB02210620FEF714FA23
:101ED0000620FEF7C5F92F4800F009FE46212D48DF
:101EE00000F01EFE1D20FEF7EDF901211D20FEF77A
:101EF00003FA1D20FEF7B4F9274B1B78DBB2002B49
:101F000010D0254B1B78FB75FB7D1A4623491E48D4
:101F100001F006F8204B00221A70214B1B689AB280
:101F2000204B1A8007F10C031846FEF765FB0346A9
:101F3000002B07D07B7D1A4607F10C031946134886
:101F400000F0EEFF3B461846FEF7E0FB0346002B91
:101F500006D07B7A1A463B4619460D4800F0E0FF52
:101F6000114B1B78DBB2002B04D00F4B00221A70F0
:101F7000FEF7E0FC30BF00BFBEE700BF00C0092095
:101F80008080024000C0024000C0004000000140CC
:101F90000080094000000B402F0B0010300B001098
:101FA000640A0010680A00107D0C001080B400AFB5
:101FB0002E4B4FF0C0629A6100BF00BF00BF00BF50
:101FC00000BF00BF00BF00BF00BF00BF00BF00BF19
:101FD00000BF00BF00BF00BF00BF00BF00BF00BF09
:101FE00000BF00BF00BF00BF00BF00BF00BF00BFF9
:101FF00000BF00BF00BF00BF1C4B4FF0C062DA61E2
:1020000000BF00BF00BF00BF00BF00BF00BF00BFD8
:1020100000BF00BF00BF00BF00BF00BF00BF00BFC8
:1020200000BF00BF00BF00BF00BF00BF00BF00BFB8
:1020300000BF00BF00BF00BF00BF00BF00BF00BFA8
:1020400000BF00BF00BF00BF00BF00BF00BF00BF98
:1020500000BF00BF00BF00BF00BF00BF00BF00BF88
:1020600000BF00BF00BFBD4680BC704760C00920F4
:1020700080B400AF334B4FF0C0629A6100BF00BF25
:1020800000BF00BF00BF00BF00BF00BF00BF00BF58
:1020900000BF00BF00BF00BF00BF00BF00BF00BF48
:1020A00000BF00BF00BF00BF00BF00BF00BF00BF38
:1020B00000BF00BF00BF00BF00BF00BF00BF00BF28
:1020C00000BF00BF00BF00BF00BF00BF00BF00BF18
:1020D00000BF00BF00BF00BF00BF00BF00BF00BF08
:1020E00000BF00BF00BF00BF00BF00BF00BF00BFF8
:1020F00000BF00BF00BF00BF00BF00BF00BF00BFE8
:1021000000BF00BF00BF00BF00BF00BF00BF00BFD7
:1021100000BF00BF0B4B4FF0C062DA6100BF00BFD1
:1021200000BF00BF00BF00BF00BF00BF00BF00BFB7
:1021300000BF00BF00BF00BF00BF00BF00BFBD4663
:1021400080BC704760C0092080B586B000AF786061
:102150000023FB8251E07B681968FA8A13465B0012
:102160001344CA1807F10C031188927819809A70E9
:1021700000237B750FE07B7B5BB2002B02DAFFF75D
:1021800077FF01E0FFF712FF7B7B5B00DBB27B7325
:102190007B7D01337B757B7D072BECD900233B7561
:1021A0000FE03B7B5BB2002B02DAFFF761FF01E03F
:1021B000FFF7FCFE3B7B5B00DBB23B733B7D0133F7
:1021C0003B753B7D072BECD90023FB740FE0BB7BF9
:1021D0005BB2002B02DAFFF74BFF01E0FFF7E6FEF0
:1021E000BB7B5B00DBB2BB73FB7C0133FB74FB7C12
:1021F000072BECD9FB8A0133FB827B681B791A46DB
:10220000FB8A9342A7D300233B8206E000BF00BFB6
:1022100000BF00BF3B8A01333B823B8AB3F5167F88
:10222000F4D300BF00BF1837BD4680BD80B582B073
:1022300000AF78600F2000F069FA00BF0837BD4694
:1022400080BD80B582B000AF78600F2000F05EFAEC
:1022500000BF0837BD4680BD80B483B000AF786052
:10226000084611461A460346FB700B46BB701346E0
:102270007B707B78002B0ED0FB785B017A6813446F
:102280009969BB7801229A40FB785B017868034426
:102290000A439A610DE0FB785B017A681344D969BF
:1022A000BB7801229A40FB785B01786803440A43BB
:1022B000DA6100BF0C37BD4680BC704780B584B082
:1022C00000AFF860B96011461A460B46FB71134621
:1022D000BB71BB68D9B2BB79FA79F868FFF7BCFF6C
:1022E00000BF1037BD4680BD80B483B000AF7860BA
:1022F0000B46FB701346BB70FB785B017A68134496
:102300001968BB7801229A40FB785B017868034426
:102310000A431A6000BF0C37BD4680BC704780B4CA
:1023200083B000AF78600B46FB701346BB70FB7840
:102330005B017A6813441968BB78012202FA03F33F
:10234000DA43FB785B01786803440A401A6000BFF7
:102350000C37BD4680BC704780B582B000AF786056
:10236000084611461A460346FB700B46BB701346DF
:102370007B707B78002B06D0BA78FB78194678689A
:10238000FFF7B2FF05E0BA78FB7819467868FFF7E7
:10239000C6FF00BF0837BD4680BD80B582B000AF24
:1023A0007860084611461A460346FB700B46BB7020
:1023B00013467B707B78BA78F9787868FFF7CCFFA2
:1023C00000BF0837BD4680BD80B582B000AF002396
:1023D0007B6018E07B685B000F4A13443B603B68FE
:1023E00019783B685A7801230C48FFF7D6FF3B6801
:1023F0001B7819463B685A7800230848FFF75EFFB0
:102400007B6801337B607B68052BE3D900BF00BF8D
:102410000837BD4680BD00BF4035000000C0092020
:1024200080B584B000AF03460A46FB711346BB710A
:10243000FB79002B11D0FB79062B0ED8FB79013BE1
:102440005B00084A1344FB60FB681B781946FB6875
:102450005A78BB790448FFF731FF00BF1037BD46FB
:1024600080BD00BF4035000000C0092080B500AF2E
:102470000448FFF7E6FE0448FFF7D8FEFFF7A4FF85
:1024800000BF80BD00C0092000C0024080B485B0FC
:1024900000AF0346FB71084B1B68C3F30B03FB60E3
:1024A000FB791A030449FB6813430B6000BF143720
:1024B000BD4680BC704700BF00C00F4080B500AF74
:1024C00010220349034800F0C3FA00BF80BD00BFDB
:1024D0005435000000C0024080B500AF00F0A8FBFA
:1024E0000420FFF7D3FF0121022000F059F9012158
:1024F000162000F055F90121032000F051F90121C7
:10250000042000F04DF90121182000F049F900BF26
:1025100080BD80B500AFFFF7D1FFFFF7DDFF00BF43
:1025200080BDFFFF80B500AF00F00EFA0346024AFF
:10253000136000BF80BD00BF3C0D001080B400AF31
:10254000064BD3F8883003F08073002B14BF0123AF
:102550000023DBB21846BD4680BC704700C00F4068
:1025600080B400AF064BD3F8883003F00073002B23
:1025700014BF01230023DBB21846BD4680BC704760
:1025800000C00F4080B483B000AF0346FB71094A1E
:10259000FB795B0113448C33AA221A60054AFB794C
:1025A0005B0113448C3355221A6000BF0C37BD46C3
:1025B00080BC704700C00F4080B400AF054BD3F81B
:1025C0000C31DBB203F00303DBB21846BD4680BC1E
:1025D000704700BF00C00F4080B400AF024B1B68C3
:1025E0001846BD4680BC70474C35000080B400AF33
:1025F000024B1846BD4680BC704700BF00093D0035
:1026000080B400AF024B1B681846BD4680BC7047C3
:102610005035000080B500AF00F03AF90346184687
:1026200080BDFFFF80B584B000AF03463960FB7109
:102630000C4AFB7904335B0113441B68FB60FA68A6
:102640003B681343FB60074AFB7904335B01134487
:10265000FA681A60FB791846FFF794FF00BF10373D
:10266000BD4680BD00C00F4080B584B000AF0346BA
:102670003960FB710D4AFB7904335B0113441B681D
:10268000FB603B68DB43FA681340FB60074AFB7959
:1026900004335B011344FA681A60FB791846FFF7AC
:1026A00071FF00BF1037BD4680BD00BF00C00F40A6
:1026B00080B586B000AF0346B9607A60FB73FB7BE0
:1026C000002B05D17B681B04BA6813437B6104E0CF
:1026D0007B685B01BA6813437B610B4AFB7B043365
:1026E0005B01134404337A691A60074AFB7B0433A5
:1026F0005B01134401221A60FB7B1846FFF742FF7F
:1027000000BF1837BD4680BD00C00F4080B485B003
:1027100000AF0346FB71FB79FB60084BD3F8C43074
:102720000121FA6801FA02F21146044A0B43C2F889
:10273000C43000BF1437BD4680BC704700C00F4096
:1027400080B582B000AFFFF70BFF0346002B02D02D
:102750000123FB7101E00023FB71FB791846083768
:10276000BD4680BD80B483B000AF7860044A7B680A
:10277000C2F8043100BF0C37BD4680BC704700BFB3
:1027800000C00F4080B400AF044BD3F80431DBB27B
:1027900001331846BD4680BC704700BF00C00F40E3
:1027A00080B487B000AF03460A46FB711346BB7185
:1027B000FB797B617B6903F00F035B003B617B6905
:1027C0001B097B610E4A7B696A3352F8233003216F
:1027D0003A6901FA02F2D2431340FB60BA793B69CD
:1027E00002FA03F3FA681343FB6005497B696A3315
:1027F000FA6841F8232000BF1C37BD4680BC7047F3
:1028000000C00F4080B487B000AF0346FB710123C6
:102810007B61FB795B003B613B6903F01F03FB605D
:102820003B695B093B61194A3B696A3352F82330C3
:102830007B617A69FB6822FA03F303F003037B618F
:102840007B69002B02D104237B6119E07B69012B9A
:1028500002D101237B6113E07B69022B02D10223A9
:102860007B610DE0FB790D2B05D0FB790E2B02D09F
:10287000FB790F2B02D106237B6101E008237B61EA
:102880007B6918461C37BD4680BC704700C00F40AE
:1028900080B500AFFFF790FE0346022B0ED0022B4F
:1028A00010DC002B02D0012B04D00BE0FFF79EFEC2
:1028B000034608E0FFF790FE034604E0FFF7A0FEA2
:1028C000034600E00023184680BDFFFF80B584B0BA
:1028D00000AF0023FB60FFF731FE0346002B18D04A
:1028E0000E4BD3F88430C3F30E030133BB600B4BA4
:1028F000D3F884301B0CDBB201337B60FFF78AFE18
:102900000246BB6802FB03F35A007B68B2FBF3F399
:10291000FB60FB6818461037BD4680BD00C00F4005
:1029200080B500AFFFF70CFF0346002B05D0012B4D
:1029300007D1FFF7CBFF034604E0FFF7A9FF0346EB
:1029400000E00023184680BD98B500AFFFF7E8FF10
:102950000446FFF717FF0346B4FBF3F3184698BD90
:1029600090B583B000AF0346FB71FFF7EDFF04465F
:10297000FB791846FFF746FF0346B4FBF3F318460E
:102980000C37BD4690BD80B586B002AFF8607B6065
:102990000B46FB721346BB727B6898087B68DBB200
:1029A00003F00303DBB2BA7AF97A00930346F868BE
:1029B00000F004F800BF1037BD4680BD80B487B07A
:1029C00000AFF8607B600B46FB721346BB72BB7AAC
:1029D00003F00F03DBB25B00FB75FB7A5B00DAB23E
:1029E000BB7A1B09DBB21344BB75BA7DFB6853F895
:1029F0002220FB7D032101FA03F3DB4313403B61FB
:102A000097F82020FB7D02FA03F31946BA7D3B6953
:102A10001943FB6843F82210BA7DFB68103253F863
:102A20002220FB7D032101FA03F3DB4313403B61CA
:102A3000FB7D7A6802FA03F1BA7D3B691943FB68B2
:102A4000103243F8221000BF1C37BD4680BC7047CF
:102A500080B586B000AFF860B9607A6000237B6112
:102A60001FE07B699B00BA6813441B78C3F3020321
:102A7000DBB219467B699B00BA6813441B78C3F329
:102A8000C403DBB218467B699B00BA6813441B6819
:102A9000C3F317230246F868FFF775FF7B6901331C
:102AA0007B617A697B689A42DBD300BF00BF18372D
:102AB000BD4680BD80B483B000AF786039607B686C
:102AC0003A681A6000BF0C37BD4680BC704780B4BE
:102AD00083B000AF786039607B689A683B681A43BE
:102AE0007B689A6000BF0C37BD4680BC704780B5DC
:102AF00082B000AF78601020FFF708FE7B684FF0CF
:102B0000FF321A607B6800225A607B680C229A6050
:102B10007B680022DA6000BF0837BD4680BDFFFF3A
:102B200080B584B000AF786039601D20FFF718FFD2
:102B300003460A4AA2FB03239A093B6802FB03F3FC
:102B4000FB60F9687868FFF7B5FF02217868FFF746
:102B5000BEFF00BF1037BD4680BD00BFD34D621021
:102B600080B400AF064BD3F8883003F08073002B9D
:102B700014BF01230023DBB21846BD4680BC70475A
:102B800000C00F4080B400AF064BD3F8883003F08C
:102B90008063002B14BF01230023DBB21846BD461F
:102BA00080BC704700C00F4080B400AF064BD3F824
:102BB000883003F00073002B14BF01230023DBB225
:102BC0001846BD4680BC704700C00F4080B400AFBF
:102BD000054BD3F8A031044A43F02003C2F8A031DA
:102BE00000BFBD4680BC704700C00F4080B400AF3E
:102BF000064BD3F8A03103F04003002B14BF012390
:102C00000023DBB21846BD4680BC704700C00F40B1
:102C100080B483B000AF0346FB71044AFB79C2F86D
:102C20000C3100BF0C37BD4680BC704700C00F4060
:102C300080B500AFFFF7B8FF0346002B03D0022199
:102C40000020FFF711FDFFF78BFF0346002B03D099
:102C500001210020FFF708FDFFF7C8FF034683F0BE
:102C60000103DBB2002B01D0FFF7B0FF00BFFFF77D
:102C7000BDFF034683F00103DBB2002BF7D1002038
:102C8000FFF770FD0120FFF7C3FF00220F21002096
:102C9000FFF70EFD01210020FFF7C4FC0320FFF722
:102CA00061FD00BFFFF76EFF034683F00103DBB257
:102CB000002BF7D102210020FFF7B4FC00BF80BD3C
:102CC00080B483B000AF78600B46FB70FA787B6805
:102CD0001A6000BF0C37BD4680BC704780B483B01B
:102CE00000AF786039607B683A689A6000BF0C3743
:102CF000BD4680BC704780B483B000AF7860396057
:102D00007B683A68DA6000BF0C37BD4680BC70470C
:102D100080B483B000AF78607B68DB6843F08002EA
:102D20007B68DA6000BF0C37BD4680BC704780B45A
:102D300083B000AF78607B68DB6823F080027B683B
:102D4000DA6000BF0C37BD4680BC704780B483B0EA
:102D500000AF78600B46FB701346BB70FA787B6857
:102D60001A60BA787B685A6000BF0C37BD4680BCD9
:102D7000704780B483B000AF78607B685B691846A9
:102D80000C37BD4680BC704780B485B000AF78601A
:102D90007B680E4A934202D10423FB730FE07B68E9
:102DA0000B4A934202D11823FB7308E07B68094A5F
:102DB000934202D11923FB7301E00323FB73FB7BD6
:102DC00018461437BD4680BC704700BF0000014064
:102DD0000080094000C0094080B485B000AF786031
:102DE0007B680E4A934202D10423FB730FE07B6899
:102DF0000B4A934202D11823FB7308E07B68094A0F
:102E0000934202D11923FB7301E00323FB73FB7B85
:102E100018461437BD4680BC704700BF0000014013
:102E20000080094000C0094080B584B000AF7860E0
:102E30007868FFF7A9FF03461846FFF767FC0721EC
:102E40007868FFF74BFF786800F036F87B6800225F
:102E50005A607B680022DA607B6800221A627B6815
:102E60000022DA647B6800225A657B6800221A65BA
:102E70007B680A4A934205D17B6800221A617B680D
:102E80009B69FB6003217868FFF735FF7B681022A0
:102E90009A6200BF1037BD4680BD00BF00000140F0
:102EA00080B483B000AF78607B6880221A6300BF73
:102EB0000C37BD4680BC704780B483B000AF7860EB
:102EC0007B6800221A6300BF0C37BD4680BC704788
:102ED00080B586B000AFF860B9607A6000237B618E
:102EE000BB683B610BE03B691B781946F868FFF74C
:102EF000E7FE3B6901333B617B6901337B617A69A2
:102F00007B689A4207DAF868FFF733FF034603F05D
:102F10002003002BE7D17B6918461837BD4680BDDA
:102F200080B588B000AFF860B9607A600023FB61BB
:102F3000BB68BB6111E07A68B969F868FFF7C8FF40
:102F400078617A687B69D31A7B60FA697B6913447C
:102F5000FB617B69BA691344BB617B68002BEADCC7
:102F6000FB6918462037BD4680BD80B586B000AFEE
:102F7000786039607868FFF72FFF03461846FFF73F
:102F8000EFFC78613B681B017A69B2FBF3F33B61AC
:102F90003B691B0AFB60FB681B023A69D31ABB60E2
:102FA0007868FFF7B5FEBB68DBB2FA68D2B21946A3
:102FB0007868FFF7CBFE7868FFF7B9FE7A693B695E
:102FC000B2FBF3F318461837BD4680BD08B500F0D4
:102FD00009F8BDE80840FEF7E9BE00F065BA00F068
:102FE0007DBAFFFF10B5174A1749002000F055F8C9
:102FF0004FF480734FF480620021124800F02EF8E5
:10300000124A1349012000F048F84FF480734FF43E
:10301000806200210D4800F021F80E4B1B68022B46
:103020000EDD0D4A0A49022000F037F8BDE81040D5
:103030004FF480734FF480620021074800F00EB80F
:1030400010BD00BF440D001094350000800D00102D
:103050009635000098350000BC0D001070B5C468AE
:10306000A50708D0B2F5007F11D0B2F5806F04D06B
:10307000B2F5807F0BD0012008E0012300F124018C
:10308000144301610160C361C460002070BD6FF032
:103090007F455E1EAE42F3D3EDE770B50D460646A2
:1030A0001046144600F02DF82B78722B17D0772B92
:1030B00018D0612B23D1082348F2020215F8011F12
:1030C0002B2912D0622915D01B07E260666104D556
:1030D00002220021204600F05FF8204670BD002348
:1030E0000122EBE704230222E8E742F0030243F067
:1030F0000203E3E742F0040243F00103DEE70024A9
:10310000EBE7F0B5C5680446A90789B022D02A07C5
:1031100018D4D0E9046700F021F8384600F0F7F938
:103120002B0502D5304600F087F96FF3150515F130
:10313000A54F07D120226846216A00F0F7F96846BA
:1031400000F0C8F83C2200212046FFF748FF00208D
:1031500009B0F0BD4FF0FF30FAE7FFFFF8B50446C5
:1031600038B905460A4B0B4E1F68A74205DC2846B6
:10317000F8BDBDE8F84000F0DEB8304600F0DBF8FE
:10318000002818BF4FF0FF3501343C36EDE700BF93
:1031900098350000440D00102DE9F843C6683B4BFC
:1031A000044633400D4690467BB1D0F81490484613
:1031B00000F0B3F9074640B9B8F1010F09D0B8F1F2
:1031C000020F31D0B8F1000F07D002273846BDE812
:1031D000F883204600F05CF80544002DF5DBB304CD
:1031E00004D52368E26A9A4238BFE362A069A84224
:1031F0000EDC2368E26A934238BF1346226919182D
:10320000891AA94204DB216B00EB010CAC452CDCD4
:103210000023C4E9013346F02006A56226F4032604
:1032200026F04006E660D1E7484600F073F9002832
:10323000E26804DA42F080020127E260C6E7216812
:10324000A369D4F82CC061452CBF5B186344216985
:103250009206A3EB010303D5A26A9342B8BF1346BB
:103260008342ACBFED182D18B7E72D1AB00744BF45
:10327000691AA160F10744BF9B1AEB1A2A4448BFA0
:103280006360226026F02006C8E700BF030010003C
:10329000C3689A0705D121220D4B4FF0FF301A6009
:1032A000704703F020021B0309D512B1806A013870
:1032B00070470368826900691344181AF7E70AB176
:1032C000806A70470368826900691344181A70475E
:1032D000400D001010B5044600F006F801462046E7
:1032E000BDE8104000F01CB9034610B59A071C4613
:1032F00015D1234654F8042BA2F1013121EA020131
:1033000011F0803FF5D0D1B299B112F47F4F0ED0B9
:1033100012F47F0F14BF23460333013003E01A4633
:1033200012F8011B09B9181A10BD1346DEE7023363
:10333000F3E70133F1E7C36870B513F00306044601
:1033400011D09B0611D5856A00F08EF8E3682046FF
:1033500023F44053E36000F00EF8002206462946AD
:103360002046FFF719FF304670BD836905681D448C
:103370000369ED1AEAE738B50446C36805690168D0
:10338000C26A23F40020E06003F08200022802D029
:103390004FF0FF3038BDDB030CD5914238BF1146EA
:1033A0008D4209D10023A360E368E56223F48033F2
:1033B0002560E3600020EDE722462846491B00F027
:1033C00003F80028EED0E3E72DE9F041D568804608
:1033D000EB020E461446576912D5384600F09AF8AB
:1033E00045F01005A0613846A16900F09CF800285E
:1033F00019DAE3684FF0FF3043F08003E36010E038
:103400000C4B2B40002BEED132464146384600F0A3
:1034100090F820F00043F61AA3693344A361002812
:10342000E7D1BDE8F08125F4003525F01005E56011
:10343000EAE700BF10000200A8B14FF0805340F847
:103440000C3C50F8042C72B11368B3F1805F0AD1C0
:1034500050F8083C516803330B4440F8083C93682B
:1034600040F8043CEDE77047C36810B523F0200234
:103470008169C260826A044691420FD0FFF77BFFE8
:10348000E36823F4405323F0100343F01003E36098
:10349000A36AA3612369E362236010BD23F4804320
:1034A00023F06003C360F8E740EA0103DB0703464B
:1034B0000CD40346043A22BF51F804CB43F804CBA2
:1034C000B2F10402F7D2043208BF7047013A24BFB8
:1034D00011F801CB03F801CBF8D87047034613F07D
:1034E000030F0ED101F0FF0141EA012141EA014140
:1034F000043A24BF43F8041BB2F10402F9D202F1EA
:103500000402013A24BF03F8011BFAE770474FF0A9
:10351000FF3070474FF0FF3070474FF0FF3070477B
:103520004FF0FF3070474FF0FF3070474FF0FF30E3
:10353000704710467047FFFF27970485FF0300166A
:10354000041C00040005000600070008001BB7006B
:10355000000000001009000018090000020A000025
:103560000A0A0000420A00004A0A0000E4080000BB
:10357000200800002808000030080000380800007B
:1035800040080000D3080000CB0800002200000023
:0C3590001A000000720077000800000024
:10359C005C0B0010600000005C0B00106000000071
:040000030000017187
:00000001FF
