:100000000080001071010000ED010000F50100000A
:10001000FD010000050200000D02000000000000CC
:1000200000000000000000000000000015020000B9
:100030001D0200000000000025020000CD0B0000A2
:1000400035020000350200003502000035020000D4
:100050003502000021090000250A000035020000D9
:1000600035020000350200003502000035020000B4
:1000700035020000350200003502000035020000A4
:100080003502000035020000350200003502000094
:100090003502000035020000350200003502000084
:1000A0003502000035020000350200003502000074
:1000B0003502000035020000350200003502000064
:1000C000350200003502000035020000BC1E0000B1
:1000D0000000001004000000BC1E000000C007204B
:1000E00000000000040000102C03000000C00720E6
:1000F0000000000080B489B000AFF860B9607A6099
:10010000BB68FB61FB68BB6100237B610AE0BA69E5
:10011000131DBB61FB69191DF96112681A607B69C7
:1001200004337B617A697B689A42F0D300BF00BFD9
:100130002437BD4680BC704780B485B000AF78607E
:1001400039607B68FB600023BB6007E0FB681A1D19
:10015000FA6000221A60BB680433BB60BA683B686F
:100160009A42F3D300BF00BF1437BD4680BC70472E
:1001700080B584B000AF1A4BFB6013E0FB681A1D1A
:10018000FA601B683B60FB681A1DFA601B68BB6065
:10019000FB681A1DFA601B687B607A68B96838686A
:1001A000FFF7A8FFFB680F4A9342E7D30DE0FB6817
:1001B0001A1DFA601B68BB60FB681A1DFA601B6899
:1001C0007B607968B868FFF7B7FFFB68064A93421F
:1001D000EDD300F033F801F0ABFB00BFFDE700BF4B
:1001E000CC000000E4000000F400000080B400AF88
:1001F00000BFFDE780B400AF00BFFDE780B400AFF3
:1002000000BFFDE780B400AF00BFFDE780B400AFE2
:1002100000BFFDE780B400AF00BFFDE780B400AFD2
:1002200000BFFDE780B400AF00BFFDE780B400AFC2
:1002300000BFFDE780B400AF00BFFDE780B582B02E
:1002400000AF054B7B60054A7B681A6000F09BFE9F
:1002500000BF0837BD4680BD08ED00E0000000008B
:1002600080B483B000AF0346FB71FB7903F01F033A
:10027000012202FA03F1054A97F907305B0942F8B7
:10028000231000BF0C37BD4680BC704700E100E082
:1002900080B483B000AF03463960FB7197F9073033
:1002A000002B0BDA3B68DAB20C49FB7903F00F0341
:1002B000043BD200D2B20B441A7609E03B68DAB2B2
:1002C000074997F90730D200D2B20B4483F80023D4
:1002D00000BF0C37BD4680BC704700BF00ED00E09A
:1002E00000E100E080B582B000AF78607B68013B40
:1002F000B3F1807F01D301230FE00A4A7B68013B01
:1003000053601F214FF0FF30FFF7C2FF054B002263
:100310009A60044B07221A60002318460837BD462E
:1003200080BD00BF10E000E080B483B000AF786013
:100330007B681B68DBB218460C37BD4680BC704733
:1003400080B483B000AF786039607B685A683B68DE
:100350001A437B685A6000BF0C37BD4680BC7047AB
:1003600080B483B000AF786039607B683A689A6087
:1003700000BF0C37BD4680BC704780B483B000AF6F
:10038000786039607B683A68DA6000BF0C37BD4638
:1003900080BC704780B483B000AF78607B685B69D5
:1003A00018460C37BD4680BC7047FFFF80B400AFD5
:1003B000074B1B78002B06D0054B1B781A463223BF
:1003C00002FB03F300E037231846BD4680BC7047AC
:1003D0002300001080B582B000AFFFF7E7FF386060
:1003E0003B680F335B007B607B68772B01D87823F9
:1003F0007B607B6841F28832934202D941F28833B4
:100400007B60034A7B68136000BF0837BD4680BD30
:100410000000001080B483B000AF0346FB71FB798D
:10042000002B08D0FB791F2B05D8FB79044A1268F2
:10043000044941F8232000BF0C37BD4680BC7047FB
:10044000240000102800001080B485B000AF0346DF
:10045000FB71FB79002B02D0FB791F2B01D9002304
:1004600015E0FB790C4A52F82330FB60FB68002B47
:1004700009D00A4B1A68FB68D21A094B1B689A42CA
:1004800001D8012300E0002303F00103DBB218468A
:100490001437BD4680BC70472800001024000010AF
:1004A0000000001080B584B000AF074A3B1D07CAAA
:1004B00003C31A703B1D09221946044801F0E2F9F2
:1004C00000BF1037BD4680BD641E00000000014023
:1004D00080B586B000AF0346FB7127233B7397239B
:1004E0007B730523BB738523FB73FB793B7400236C
:1004F0007B740023BB740023FB7416233B7507F148
:100500000C0309221946034801F0BCF900BF183753
:10051000BD4680BD0000014080B586B000AF0346F7
:100520000A46FB711346BB7127233B7397237B73EA
:100530000523BB738523FB73FB793B7402237B7418
:100540000123BB74BB79FB7416233B7507F10C03C5
:1005500009221946034801F095F900BF1837BD4636
:1005600080BD00BF0000014080B582B000AF084AE6
:100570003B4692E8030083E803003B460822194605
:10058000044801F07FF900BF0837BD4680BD00BFB9
:10059000701E00000000014080B582B000AF03462D
:1005A0000A46FB711346BB71FFF7DEFFBA79FB7990
:1005B00011461846FFF7B0FF00BF0837BD4680BDA3
:1005C00080B582B000AF03460A46FB711346BB718B
:1005D000FFF7CAFF00BF0837BD4680BD80B586B0B3
:1005E00000AF78600B46FB70374B1B787B747B7CCD
:1005F00007333B743B7C0333FB73FA7BFB789A42F3
:1006000001D900235BE07B687B617B695A1C7A61BE
:1006100027221A707B695A1C7A613A7C1A707B69AE
:100620005A1C7A6100221A707B695A1C7A61012275
:100630001A707B695A1C7A610A221A707B695A1CEB
:100640007A6100221A707B695A1C7A617A7C1A706E
:100650000023FB741FE0FB7C1C4AD35CBB730023AC
:10066000BB74BB7B1846FFF7EFFE0346002B0AD096
:10067000BB7B174AD35C7B737B7B032B01D10723A6
:1006800000E00523BB747B695A1C7A61BA7C1A703E
:10069000FB7C0133FB74FA7C7B7C9A42DBD37B6965
:1006A0005A1C7A6100221A707B695A1C7A610022F6
:1006B0001A707B695A1C7A6116221A70FB7B1846E5
:1006C0001837BD4680BD00BF230000100400001095
:1006D000A800001080B582B000AF29210748FFF7BD
:1006E0007DFF0346FB71FB79002B02D0044AFB79A6
:1006F000137000BF0837BD4680BD00BFCC0000109E
:10070000C800001080B584B000AF78600B46FB7065
:10071000FB78002B3CD07B681B78BB73BB7B5B00FA
:10072000DBB20133DBB2FA789A4233D31B4B00229F
:100730001A700023FB731EE0FB7B5B0001331A463B
:100740007B6813441B787B73FB7B5B0002337A6806
:1007500013441B783B733B7B012B09D10F4B1B7858
:100760005A1CD1B20D4A117019460D4A7B7B535465
:10077000FB7B0133FB73FA7BBB7B9A4203D2074BB3
:100780001B781E2BD8D9FFF725FEFFF7A3FF02E049
:1007900000BF00E000BF1037BD4680BD2300001041
:1007A0000400001080B584B000AF78600B46FB7089
:1007B000FB78022B1BD97B681B78FB737B680133AA
:1007C0001B78BB737B6802331B787B73FB7B002B2E
:1007D00006D07A7BBB7B11461846FFF7DDFE07E0AB
:1007E0007A7BBB7B11461846FFF7EAFE00E000BFAC
:1007F0001037BD4680BD80B582B000AF78600B4633
:10080000FB70FFF7B1FE00BF0837BD4680BD80B565
:1008100084B000AF78600B46FB70FB78012B11D9D8
:100820007B681B78FB737B6801331B78012B0CBF43
:1008300001230023BB73BA7BFB7B1146184600F0F3
:100840003DFB00E000BF1037BD4680BD80B586B0DF
:1008500000AF78600B46FB70FB78022B58D97B68A1
:100860001B78FB757B6801331B78BB757B68023393
:100870001B787B75FB78032B02D97B68033300E080
:1008800000233B61FB78032B03D9FB78033BDBB2EE
:1008900000E00023FB73FB7D852B3BD1BB7D012B4F
:1008A00038D17B7D062B15DC002B35DB062B33D8AE
:1008B00001A252F823F000BFDB0800001909000074
:1008C000ED08000019090000E10800001909000006
:1008D000050900003A2B0FD01EE0FFF7FBFE1CE0DD
:1008E000FB7B19463869FFF70DFF16E0FB7B1946C5
:1008F0003869FFF757FF10E0FB7B19463869FFF7AF
:100900007AFF0AE0FB7B19463869FFF780FF04E0B5
:1009100000BF02E000BF00E000BF1837BD4680BD49
:1009200080B582B000AF66E03948FFF7FDFC0346B2
:10093000FB71384B1B78DBB2032B55D801A252F860
:1009400023F000BF5509000063090000930900006F
:10095000CD090000FB79272B4AD12E4B01221A70BA
:1009600046E02D4AFB7913702B4B1B78DBB2002B32
:1009700004D0294B1B78DBB2422B03D9254B002234
:100980001A7038E0254B00221A70224B02221A708E
:1009900031E0224B1B78412B14D8204B1B785A1C7A
:1009A000D1B21E4A117019461D4AFB7953541B4B94
:1009B0001A78194B1B78DBB29A421BD1154B0322D4
:1009C0001A7017E0134B00221A7013E0FB79162BF4
:1009D00006D1114B1B78DBB219461148FFF736FFE1
:1009E0000C4B00221A7006E00A4B00221A7002E03B
:1009F00000BF00E000BF0648FFF7CCFC034603F051
:100A00000103002B90D100BF00BF0837BD4680BD59
:100A100000C00040F5000010F60000103A01001080
:100A2000F800001080B582B000AF6FE03E48FFF7DD
:100A30007BFC0346FB713D4B1B78DBB2062B60D879
:100A400001A252F823F000BF650A0000730A0000FB
:100A50007B0A0000910A0000A70A0000B50A000006
:100A6000C30A0000FB79272B4FD1304B01221A70AB
:100A70004BE02E4B02221A7048E0FB79032B03D186
:100A80002A4B03221A7041E0284B00221A703DE0E5
:100A9000FB790A2B03D1254B04221A7036E0234B35
:100AA00000221A7032E0224AFB7913701F4B052294
:100AB0001A702BE01F4AFB7913701C4B06221A7028
:100AC00024E0FB79162B18D1194B1B78DBB21846A2
:100AD000FFF7A0FC164B1B78DBB2002B0DD0144B9C
:100AE0001B78DBB21F2B08D8114B1B78DBB21A46E0
:100AF000104B1B78D9B2104B99540C4B00221A7032
:100B000004E00A4B00221A7000E000BF0648FFF71D
:100B100041FC034603F00103002B87D100BF00BF57
:100B20000837BD4680BD00BF000001403B010010FA
:100B30003C0100103D010010A800001080B582B0FB
:100B400000AF1D4B1B687B601C4B1B78002B0BD12F
:100B50001B4B1B687A68D31A362B28D9FFF7A2FCE7
:100B6000174A7B68136022E0154B1B687A68D31A1A
:100B7000312B1DD9134B1B781A46134B9B5CFB7012
:100B8000FB781846FFF7A4FC0E4B1B780133DAB252
:100B90000C4B1A700B4B1A78084B1B789A4202D3F5
:100BA000084B00221A70064A7B68136000E000BF01
:100BB0000837BD4680BD00BF240000102300001090
:100BC00040010010440100100400001080B400AF88
:100BD000044B1B680133034A136000BFBD4680BC51
:100BE000704700BF2400001080B582B000AF00F055
:100BF000D3F900F089F92E4800F0C8FD4FF4964172
:100C00002B4800F064FE03212948FFF7B6FB812141
:100C10002748FFF7A5FB264800F0F4FD254800F023
:100C2000B5FD4FF41651234800F051FE0321214831
:100C3000FFF7A3FB81211F48FFF792FB1D4800F03F
:100C4000E1FD05211A48FFF77BFB01210520FFF795
:100C50001FFB0520FFF704FB05211648FFF770FB7B
:100C600002210620FFF714FB0620FFF7F9FA124BCA
:100C70001B68124AA2FB03239B091846FFF732FBAD
:100C8000FFF7A8FB0E4B1B78DBB2002B0BD00C4BF5
:100C90001B78FB71FB791A460A49054800F0F2FD02
:100CA000074B00221A70FFF749FF30BF00BFE9E78A
:100CB00000C000400000014048010010D34D621008
:100CC000C8000010CC00001080B582B000AF786082
:100CD0000F2000F055FA00BF0837BD4680BD80B533
:100CE00082B000AF78600F2000F04AFA00BF0837EA
:100CF000BD4680BD80B483B000AF78600846114621
:100D00001A460346FB700B46BB7013467B707B781C
:100D1000002B0ED0FB785B017A6813449969BB788D
:100D200001229A40FB785B01786803440A439A6188
:100D30000DE0FB785B017A681344D969BB78012226
:100D40009A40FB785B01786803440A43DA6100BF8C
:100D50000C37BD4680BC704780B584B000AFF860EA
:100D6000B96011461A460B46FB711346BB71BB684E
:100D7000D9B2BB79FA79F868FFF7BCFF00BF10372A
:100D8000BD4680BD80B483B000AF78600B46FB7079
:100D90001346BB70FB785B017A6813441968BB7813
:100DA00001229A40FB785B01786803440A431A6089
:100DB00000BF0C37BD4680BC704780B483B000AF25
:100DC00078600B46FB701346BB70FB785B017A685A
:100DD00013441968BB78012202FA03F3DA43FB7863
:100DE0005B01786803440A401A6000BF0C37BD46B7
:100DF00080BC704780B582B000AF7860084611466D
:100E00001A460346FB700B46BB7013467B707B781B
:100E1000002B06D0BA78FB7819467868FFF7B2FF46
:100E200005E0BA78FB7819467868FFF7C6FF00BF7F
:100E30000837BD4680BD80B582B000AF78600846F7
:100E400011461A460346FB700B46BB7013467B7077
:100E50007B78BA78F9787868FFF7CCFF00BF08375D
:100E6000BD4680BD80B582B000AF00237B6018E036
:100E70007B685B000F4A13443B603B6819783B6812
:100E80005A7801230C48FFF7D6FF3B681B781946B8
:100E90003B685A7800230848FFF75EFF7B68013300
:100EA0007B607B68052BE3D900BF00BF0837BD46D8
:100EB00080BD00BF781E000000C0092080B584B04E
:100EC00000AF03460A46FB711346BB71FB79002B4A
:100ED00011D0FB79062B0ED8FB79013B5B00084A49
:100EE0001344FB60FB681B781946FB685A78BB7992
:100EF0000448FFF731FF00BF1037BD4680BD00BF7B
:100F0000781E000000C0092080B500AF0448FFF73C
:100F1000E6FE0448FFF7D8FEFFF7A4FF00BF80BD40
:100F200000C0092000C0024080B485B000AF034675
:100F3000FB71084B1B68C3F30B03FB60FB791A03BF
:100F40000449FB6813430B6000BF1437BD4680BCE7
:100F5000704700BF00C00F4080B500AF0A220349B0
:100F6000034800F07DFA00BF80BD00BF8C1E00006A
:100F700000C0024080B500AF00F00CFB0420FFF77A
:100F8000D3FF00BF80BD80B500AFFFF7E5FFFFF7DF
:100F9000F1FF00BF80BDFFFF80B500AF00F0DCF9BE
:100FA0000346024A136000BF80BD00BF4801001025
:100FB00080B400AF064BD3F8883003F08073002B69
:100FC00014BF01230023DBB21846BD4680BC704726
:100FD00000C00F4080B400AF064BD3F8883003F058
:100FE0000073002B14BF01230023DBB21846BD465B
:100FF00080BC704700C00F4080B483B000AF034690
:10100000FB71094AFB795B0113448C33AA221A60F5
:10101000054AFB795B0113448C3355221A6000BFEB
:101020000C37BD4680BC704700C00F4080B400AF95
:10103000054BD3F80C31DBB203F00303DBB21846E7
:10104000BD4680BC704700BF00C00F4080B400AFF9
:10105000024B1B681846BD4680BC7047841E0000CA
:1010600080B400AF024B1846BD4680BC704700BF3D
:1010700000093D0080B400AF024B1B681846BD4616
:1010800080BC7047881E000080B500AF00F008F9F2
:101090000346184680BDFFFF80B584B000AF03460D
:1010A0003960FB710C4AFB7904335B0113441B6804
:1010B000FB60FA683B681343FB60074AFB79043323
:1010C0005B011344FA681A60FB791846FFF794FF36
:1010D00000BF1037BD4680BD00C00F4080B584B052
:1010E00000AF03463960FB710D4AFB7904335B01A5
:1010F00013441B68FB603B68DB43FA681340FB60EA
:10110000074AFB7904335B011344FA681A60FB79E0
:101110001846FFF771FF00BF1037BD4680BD00BF06
:1011200000C00F4080B586B000AF0346B9607A605A
:10113000FB73FB7B002B05D17B681B04BA68134350
:101140007B6104E07B685B01BA6813437B610B4AF7
:10115000FB7B04335B01134404337A691A60074A4A
:10116000FB7B04335B01134401221A60FB7B1846AE
:10117000FFF742FF00BF1837BD4680BD00C00F40DB
:1011800080B485B000AF0346FB71FB79FB60084B70
:10119000D3F8C4300121FA6801FA02F21146044A78
:1011A0000B43C2F8C43000BF1437BD4680BC704743
:1011B00000C00F4080B582B000AFFFF70BFF0346C1
:1011C000002B02D00123FB7101E00023FB71FB79AE
:1011D00018460837BD4680BD80B483B000AF786044
:1011E000044A7B68C2F8043100BF0C37BD4680BC9E
:1011F000704700BF00C00F4080B400AF044BD3F86D
:101200000431DBB201331846BD4680BC704700BFD5
:1012100000C00F4080B487B000AF0346FB710123CC
:101220007B61FB795B003B613B6903F01F03FB6063
:101230003B695B093B61194A3B696A3352F82330C9
:101240007B617A69FB6822FA03F303F003037B6195
:101250007B69002B02D104237B6119E07B69012BA0
:1012600002D101237B6113E07B69022B02D10223AF
:101270007B610DE0FB790D2B05D0FB790E2B02D0A5
:10128000FB790F2B02D106237B6101E008237B61F0
:101290007B6918461C37BD4680BC704700C00F40B4
:1012A00080B500AFFFF7C2FE0346022B0ED0022B23
:1012B00010DC002B02D0012B04D00BE0FFF7D0FE96
:1012C000034608E0FFF7C2FE034604E0FFF7D2FE44
:1012D000034600E00023184680BDFFFF80B584B0C0
:1012E00000AF0023FB60FFF763FE0346002B18D01E
:1012F0000E4BD3F88430C3F30E030133BB600B4BAA
:10130000D3F884301B0CDBB201337B60FFF7BCFEEB
:101310000246BB6802FB03F35A007B68B2FBF3F39F
:10132000FB60FB6818461037BD4680BD00C00F400B
:1013300080B500AFFFF73EFF0346002B05D0012B21
:1013400007D1FFF7CBFF034604E0FFF7A9FF0346F1
:1013500000E00023184680BD98B500AFFFF7E8FF16
:101360000446FFF749FF0346B4FBF3F3184698BD64
:1013700090B583B000AF0346FB71FFF7EDFF044665
:10138000FB791846FFF746FF0346B4FBF3F3184614
:101390000C37BD4690BD80B586B002AFF8607B606B
:1013A0000B46FB721346BB727B6898087B68DBB206
:1013B00003F00303DBB2BA7AF97A00930346F868C4
:1013C00000F004F800BF1037BD4680BD80B487B080
:1013D00000AFF8607B600B46FB721346BB72BB7AB2
:1013E00003F00F03DBB25B00FB75FB7A5B00DAB244
:1013F000BB7A1B09DBB21344BB75BA7DFB6853F89B
:101400002220FB7D032101FA03F3DB4313403B6100
:1014100097F82020FB7D02FA03F31946BA7D3B6959
:101420001943FB6843F82210BA7DFB68103253F869
:101430002220FB7D032101FA03F3DB4313403B61D0
:10144000FB7D7A6802FA03F1BA7D3B691943FB68B8
:10145000103243F8221000BF1C37BD4680BC7047D5
:1014600080B586B000AFF860B9607A6000237B6118
:101470001FE07B699B00BA6813441B78C3F3020327
:10148000DBB219467B699B00BA6813441B78C3F32F
:10149000C403DBB218467B699B00BA6813441B681F
:1014A000C3F317230246F868FFF775FF7B69013322
:1014B0007B617A697B689A42DBD300BF00BF183733
:1014C000BD4680BD80B400AF064BD3F8883003F032
:1014D0008073002B14BF01230023DBB21846BD46E6
:1014E00080BC704700C00F4080B400AF064BD3F8FB
:1014F000883003F08063002B14BF01230023DBB28C
:101500001846BD4680BC704700C00F4080B400AF95
:10151000064BD3F8883003F00073002B14BF01236F
:101520000023DBB21846BD4680BC704700C00F40A8
:1015300080B400AF054BD3F8A031044A43F0200338
:10154000C2F8A03100BFBD4680BC704700C00F404C
:1015500080B400AF064BD3F8A03103F04003002B5A
:1015600014BF01230023DBB21846BD4680BC704780
:1015700000C00F4080B483B000AF0346FB71044A43
:10158000FB79C2F80C3100BF0C37BD4680BC7047F8
:1015900000C00F4080B500AFFFF7B8FF0346002B37
:1015A00003D002210020FFF799FDFFF78BFF0346D0
:1015B000002B03D001210020FFF790FDFFF7C8FFAB
:1015C000034683F00103DBB2002B01D0FFF7B0FF2D
:1015D00000BFFFF7BDFF034683F00103DBB2002B22
:1015E000F7D10020FFF7F8FD0120FFF7C3FF00222D
:1015F0000F210020FFF796FD01210020FFF74CFD91
:101600000320FFF7E9FD00BFFFF76EFF034683F0FD
:101610000103DBB2002BF7D102210020FFF73CFDD4
:1016200000BF80BD80B483B000AF78600B46FB7014
:10163000FA787B681A6000BF0C37BD4680BC7047E3
:1016400080B483B000AF786039607B683A689A6094
:1016500000BF0C37BD4680BC704780B483B000AF7C
:10166000786039607B683A68DA6000BF0C37BD4645
:1016700080BC704780B483B000AF78607B68DB6863
:1016800043F080027B68DA6000BF0C37BD4680BC47
:10169000704780B483B000AF78607B68DB6823F06C
:1016A00080027B68DA6000BF0C37BD4680BC7047A3
:1016B00080B483B000AF78600B46FB701346BB70FC
:1016C000FA787B681A60BA787B685A6000BF0C377A
:1016D000BD4680BC704780B483B000AF78607B6843
:1016E0005B6918460C37BD4680BC704780B485B036
:1016F00000AF78607B680E4A934202D10423FB73EB
:101700000FE07B680B4A934202D11823FB7308E079
:101710007B68094A934202D11923FB7301E003233A
:10172000FB73FB7B18461437BD4680BC704700BF77
:10173000000001400080094000C0094080B485B02D
:1017400000AF78607B680E4A934202D10423FB739A
:101750000FE07B680B4A934202D11823FB7308E029
:101760007B68094A934202D11923FB7301E00323EA
:10177000FB73FB7B18461437BD4680BC704700BF27
:10178000000001400080094000C0094080B584B0DD
:1017900000AF78607868FFF7A9FF03461846FFF7A7
:1017A000EFFC07217868FFF74BFF786800F036F808
:1017B0007B6800225A607B680022DA607B68002226
:1017C0001A627B680022DA647B6800225A657B68B3
:1017D00000221A657B680A4A934205D17B68002281
:1017E0001A617B689B69FB6003217868FFF735FF0E
:1017F0007B6810229A6200BF1037BD4680BD00BFD3
:101800000000014080B483B000AF78607B68802224
:101810001A6300BF0C37BD4680BC704780B483B0EC
:1018200000AF78607B6800221A6300BF0C37BD46AA
:1018300080BC704780B586B000AFF860B9607A6050
:1018400000237B61BB683B610BE03B691B78194659
:10185000F868FFF7E7FE3B6901333B617B690133C1
:101860007B617A697B689A4207DAF868FFF733FF91
:10187000034603F02003002BE7D17B691846183795
:10188000BD4680BD80B588B000AFF860B9607A60B1
:101890000023FB61BB68BB6111E07A68B969F86835
:1018A000FFF7C8FF78617A687B69D31A7B60FA69B1
:1018B0007B691344FB617B69BA691344BB617B6834
:1018C000002BEADCFB6918462037BD4680BD80B599
:1018D00086B000AF786039607868FFF72FFF034665
:1018E0001846FFF745FD78613B681B017A69B2FB3A
:1018F000F3F33B613B691B0AFB60FB681B023A691F
:10190000D31ABB607868FFF7B5FEBB68DBB2FA6834
:10191000D2B219467868FFF7CBFE7868FFF7B9FEB8
:101920007A693B69B2FBF3F318461837BD4680BDB0
:1019300008B500F005F8BDE80840FFF755B9FFFF0E
:1019400010B5174A1749002000F055F84FF480737E
:101950004FF480620021124800F02EF8124A134919
:10196000012000F048F84FF480734FF480620021AA
:101970000D4800F021F80E4B1B68022B0EDD0D4ABE
:101980000A49022000F037F8BDE810404FF4807398
:101990004FF480620021074800F00EB810BD00BF70
:1019A00050010010B41E00008C010010B61E000093
:1019B000B81E0000C801001070B5C468A50708D0A3
:1019C000B2F5007F11D0B2F5806F04D0B2F5807F00
:1019D0000BD0012008E0012300F124011443016130
:1019E0000160C361C460002070BD6FF07F455E1E62
:1019F000AE42F3D3EDE770B50D46064610461446E9
:101A000000F02DF82B78722B17D0772B18D0612B84
:101A100023D1082348F2020215F8011F2B2912D006
:101A2000622915D01B07E260666104D502220021FD
:101A3000204600F05FF8204670BD00230122EBE74E
:101A400004230222E8E742F0030243F00203E3E743
:101A500042F0040243F00103DEE70024EBE7F0B5B7
:101A6000C5680446A90789B022D02A0718D4D0E94E
:101A7000046700F021F8384600F0DFF92B0502D5A5
:101A8000304600F089F96FF3150515F1A54F07D120
:101A900020226846216A00F0DFF9684600F0C8F8A5
:101AA0003C220021204600F0F4F8002009B0F0BDEF
:101AB0004FF0FF30FAE7FFFFF8B5044638B90546A6
:101AC0000A4B0B4E1F68A74205DC2846F8BDBDE84F
:101AD000F84000F0E0B8304600F0DDF8002818BF0C
:101AE0004FF0FF3501343C36EDE700BFB81E000073
:101AF000500100102DE9F843C6683B4B04463340C3
:101B00000D4690467BB1D0F81490484600F09BF902
:101B1000074640B9B8F1010F09D0B8F1020F31D032
:101B2000B8F1000F07D002273846BDE8F8832046F9
:101B300000F05CF80544002DF5DBB30404D5236800
:101B4000E26A9A4238BFE362A069A8420EDC2368C9
:101B5000E26A934238BF134622691918891AA942CA
:101B600004DB216B00EB010CAC452CDC0023C4E949
:101B7000013346F02006A56226F4032626F040062F
:101B8000E660D1E7484600F05BF90028E26804DA35
:101B900042F080020127E260C6E72168A369D4F819
:101BA0002CC061452CBF5B18634421699206A3EBEE
:101BB000010303D5A26A9342B8BF13468342ACBF68
:101BC000ED182D18B7E72D1AB00744BF691AA160A8
:101BD000F10744BF9B1AEB1A2A4448BF6360226096
:101BE00026F02006C8E700BF03001000C3689A076C
:101BF00005D121220D4B4FF0FF301A60704703F0E2
:101C000020021B0309D512B1806A013870470368AE
:101C1000826900691344181AF7E70AB1806A7047AD
:101C20000368826900691344181A70474C01001058
:101C300010B5044600F006F801462046BDE8104005
:101C400000F004B9034610B59A071C4615D1234687
:101C500054F8042BA2F1013121EA020111F0803F76
:101C6000F5D0D1B299B112F47F4F0ED012F47F0F9C
:101C700014BF23460333013003E01A4612F8011B58
:101C800009B9181A10BD1346DEE70233F3E7013332
:101C9000F1E700F0B9B8C36870B513F00306044665
:101CA00011D09B0611D5856A00F08EF8E3682046B6
:101CB00023F44053E36000F00EF800220646294664
:101CC0002046FFF717FF304670BD836905681D4445
:101CD0000369ED1AEAE738B50446C3680569016887
:101CE000C26A23F40020E06003F08200022802D0E0
:101CF0004FF0FF3038BDDB030CD5914238BF1146A1
:101D00008D4209D10023A360E368E56223F48033A8
:101D10002560E3600020EDE722462846491B00F0DD
:101D200003F80028EED0E3E72DE9F041D5688046BE
:101D3000EB020E461446576912D5384600F080F87B
:101D400045F01005A0613846A16900F082F800282E
:101D500019DAE3684FF0FF3043F08003E36010E0EE
:101D60000C4B2B40002BEED132464146384600F05A
:101D700076F820F00043F61AA3693344A3610028E3
:101D8000E7D1BDE8F08125F4003525F01005E560C8
:101D9000EAE700BF10000200A8B14FF0805340F8FE
:101DA0000C3C50F8042C72B11368B3F1805F0AD177
:101DB00050F8083C516803330B4440F8083C9368E2
:101DC00040F8043CEDE77047C36810B523F02002EB
:101DD0008169C260826A044691420FD0FFF77BFF9F
:101DE000E36823F4405323F0100343F01003E3604F
:101DF000A36AA3612369E362236010BD23F48043D7
:101E000023F06003C360F8E7034613F0030F0ED11D
:101E100001F0FF0141EA012141EA0141043A24BFF6
:101E200043F8041BB2F10402F9D202F10402013AB0
:101E300024BF03F8011BFAE770474FF0FF307047EB
:101E40004FF0FF3070474FF0FF3070474FF0FF30DA
:101E500070474FF0FF3070474FF0FF30704710462B
:101E60007047FFFF2797058500000000160000005F
:101E700027970485FF030016041C000400050006D4
:101E800000070008001BB7000080000010090000D8
:101E900018090000020A00000A0A0000E408000015
:101EA0002008000028080000300800003808000062
:0C1EB000400800007200770008000000ED
:041EBC00C80000005A
:040000030000017187
:00000001FF
