:100000000080001071010000ED010000F50100000A
:10001000FD010000050200000D02000000000000CC
:1000200000000000000000000000000015020000B9
:100030001D02000000000000250200002D0200004B
:1000400035020000350200003502000035020000D4
:1000500035020000450C0000490D0000350200008B
:1000600035020000350200003502000035020000B4
:1000700035020000350200003502000035020000A4
:100080003502000035020000350200003502000094
:100090003502000035020000350200003502000084
:1000A0003502000035020000350200003502000074
:1000B00035020000710F000035020000350200001B
:1000C00035020000350200003502000098280000CB
:1000D00000000010100000009828000000C0072059
:1000E00000000000100000102808000000C00720D9
:1000F0000000000080B489B000AFF860B9607A6099
:10010000BB68FB61FB68BB6100237B610AE0BA69E5
:10011000131DBB61FB69191DF96112681A607B69C7
:1001200004337B617A697B689A42F0D300BF00BFD9
:100130002437BD4680BC704780B485B000AF78607E
:1001400039607B68FB600023BB6007E0FB681A1D19
:10015000FA6000221A60BB680433BB60BA683B686F
:100160009A42F3D300BF00BF1437BD4680BC70472E
:1001700080B584B000AF1A4BFB6013E0FB681A1D1A
:10018000FA601B683B60FB681A1DFA601B68BB6065
:10019000FB681A1DFA601B687B607A68B96838686A
:1001A000FFF7A8FFFB680F4A9342E7D30DE0FB6817
:1001B0001A1DFA601B68BB60FB681A1DFA601B6899
:1001C0007B607968B868FFF7B7FFFB68064A93421F
:1001D000EDD300F033F802F07FF800BFFDE700BF79
:1001E000CC000000E4000000F400000080B400AF88
:1001F00000BFFDE780B400AF00BFFDE780B400AFF3
:1002000000BFFDE780B400AF00BFFDE780B400AFE2
:1002100000BFFDE780B400AF00BFFDE780B400AFD2
:1002200000BFFDE780B400AF00BFFDE780B400AFC2
:1002300000BFFDE780B400AF00BFFDE780B582B02E
:1002400000AF054B7B60054A7B681A6001F0E7FA56
:1002500000BF0837BD4680BD08ED00E0000000008B
:1002600080B483B000AF0346FB71FB7903F01F033A
:10027000012202FA03F1054A97F907305B0942F8B7
:10028000231000BF0C37BD4680BC704700E100E082
:1002900080B483B000AF0346FB71FB7903F01F030A
:1002A000012202FA03F1064A97F907305B0960332D
:1002B00042F8231000BF0C37BD4680BC704700BF1A
:1002C00000E100E080B483B000AF03463960FB7109
:1002D00097F90730002B0BDA3B68DAB20C49FB794F
:1002E00003F00F03043BD200D2B20B441A7609E0AC
:1002F0003B68DAB2074997F90730D200D2B20B4413
:1003000083F8002300BF0C37BD4680BC704700BF98
:1003100000ED00E000E100E080B582B000AF786061
:100320000F2001F079FB00BF0837BD4680BD80B5C6
:1003300082B000AF78600F2001F06EFB00BF08377D
:10034000BD4680BD80B483B000AF78600B46FB70C3
:100350001346BB70FB785B017A6813441968BB785D
:1003600001229A40FB785B01786803440A431A60D3
:1003700000BF0C37BD4680BC704780B483B000AF6F
:1003800078607B689B6843F001027B689A6000BFDD
:100390000C37BD4680BC704780B483B000AF786036
:1003A0007B681B68DBB218460C37BD4680BC7047C3
:1003B00080B483B000AF786039607B685A683B686E
:1003C0001A437B685A6000BF0C37BD4680BC70473B
:1003D00080B483B000AF786039607B683A689A6017
:1003E00000BF0C37BD4680BC704780B483B000AFFF
:1003F000786039607B683A68DA6000BF0C37BD46C8
:1004000080BC704780B483B000AF78607B685B6964
:1004100018460C37BD4680BC7047FFFF80B584B0DE
:1004200000AF78600B46FB701E4B1B78DBB20133CC
:100430005A4203F03F0302F03F0258BF5342FB739E
:10044000194B1B78DBB2FA7B9A4201D1002324E0DE
:10045000FB78092B01D90923FB70124B1B78DBB207
:100460001A4613469B0013445B00104A1344FA7863
:100470007968184601F037FF0A4B1B78DBB2194642
:100480000A4A0B469B000B445B0013440933FA787D
:100490001A70044AFB7B1370012318461037BD46BF
:1004A00080BD00BF4000001041000010440000105B
:1004B00080B483B000AF7860174B1B78DAB2174B6B
:1004C0001B78DBB29A4201D1002320E0124B1B784B
:1004D000DBB219467868124A0B469B000B445B005E
:1004E0001A440346106851681860596012891A81CD
:1004F000094B1B78DBB201335A4203F03F0302F091
:100500003F0258BF5342DAB2034B1A700123184618
:100510000C37BD4680BC7047410000104000001001
:100520004400001080B586B000AF03460A46FB7158
:100530001346BB7127233B7397237B730523BB7340
:100540008523FB73FB793B7402237B740123BB740B
:10055000BB79FB7416233B7507F10C030921184680
:10056000FFF75CFF00BF1837BD4680BD80B582B085
:1005700000AF074A3B4692E8030083E803003B468E
:1005800008211846FFF74AFF00BF0837BD4680BD67
:100590004428000080B586B000AF0346FB712723D6
:1005A0003B7397237B730523BB738523FB73FB7915
:1005B0003B7400237B740023BB740023FB7416235D
:1005C0003B7507F10C0309211846FFF727FF00BF11
:1005D0001837BD4680BDFFFF80B48BB000AF786098
:1005E0000B46FB70474B1B7887F8213097F821307A
:1005F000073387F8203097F820300333FB77FA7FF2
:10060000FB789A4201D9002376E03F4B1A683F4BB2
:100610001B681343BB613E4B1A683E4B1B68134378
:10062000BA6913407B617B687B627B6A5A1C7A6281
:1006300027221A707B6A5A1C7A6297F820201A7057
:100640007B6A5A1C7A6200221A707B6A5A1C7A6290
:1006500001221A707B6A5A1C7A620A221A707B6A1B
:100660005A1C7A6200221A707B6A5A1C7A6297F8C6
:1006700021201A70002387F8233027E097F82330D1
:10068000254AD35CFB74FB7C013B012202FA03F395
:10069000FB60002387F82230BA69FB681340002B07
:1006A00009D07A69FB681340002B01D0072300E0D2
:1006B000052387F822307B6A5A1C7A6297F8222039
:1006C0001A7097F82330013387F8233097F82320E6
:1006D00097F821309A42D1D37B6A5A1C7A62002261
:1006E0001A707B6A5A1C7A6200221A707B6A5A1C42
:1006F0007A6216221A70FB7F18462C37BD4680BCE2
:10070000704700BF2F0000103800001030000010AC
:100710003C000010340000101000001080B582B0C2
:1007200000AF29210748FFF757FF0346FB71FB790C
:10073000002B02D0044AFB79137000BF0837BD4676
:1007400080BD00BF8C0300108A03001080B582B00A
:1007500000AF78600B467B807A8813465B001344B9
:100760001A460021786801F0C0FD00BF0837BD4679
:1007700080BD80B485B000AF78600B467B801346A7
:100780003B803B88002B1FD03A887B889A421BD83D
:100790003B88013BFB81FA8913465B0013447A686E
:1007A0001344FF221A70FA8913465B0013447A68D7
:1007B000134400225A70FA8913465B0013447A6886
:1007C000134400229A7000E000BF1437BD4680BC7D
:1007D0007047FFFF80B500AF0B4B1B78DBB2002BDF
:1007E00005D00A4800F03AFE074B00221A70084B69
:1007F0001B78DBB2002B05D0064800F02FFE044B1F
:1008000000221A7000BF80BDF80500100000001023
:10081000F90500100800001080B584B000AF7860C2
:100820000B46FB70FB78082B01D800233DE07B686A
:100830001B78002B09D17B6801331B78002B04D176
:100840007B6802331B78002B01D000232DE07B68EE
:1008500003331B78022B01D0002326E07B6804338E
:100860001B78FB737B6805331B78BB73FB7B012B09
:100870000BD1BB7B9BB21A4660210E48FFF779FF74
:100880000D4B01221A7001230FE0FB7B022B0BD1D1
:10089000BB7B9BB21A4660210848FFF76AFF084BF2
:1008A00001221A70012300E0002318461037BD46CC
:1008B00080BD00BFB8030010F8050010D804001078
:1008C000F905001080B485B000AF78600B46FB706E
:1008D000FB78002B38D07B681B78BB73BB7B5B003D
:1008E000DBB20133DBB2FA789A422FD31A4B0022E3
:1008F0001A700023FB731EE0FB7B5B0001331A467A
:100900007B6813441B787B73FB7B5B0002337A6844
:1009100013441B783B733B7B012B09D10E4B1B7897
:100920005A1CD1B20C4A117019460C4A7B7B5354A5
:10093000FB7B0133FB73FA7BBB7B9A4207D2064BEE
:100940001B781E2BD8D902E000BF00E000BF14378F
:10095000BD4680BC704700BF2F0000101000001083
:1009600080B584B000AF78600B46FB70FB78194609
:100970007868FFF751FF0346002B40F09680FB7824
:10098000022B40F294807B681B787B737B68013379
:100990001B783B737B6802331B78FB727B7B002BDD
:1009A00046D00023FB733FE0FA7B434913465B00CC
:1009B00013445B000B4404331B78DBB2002B30D1B3
:1009C000FA7B3D4913465B0013445B000B443A7BC2
:1009D0001A70FA7B384913465B0013445B000B44E2
:1009E0000133FA7A1A70FA7B344B1B8898B2324979
:1009F00013465B0013445B000B44023302461A802B
:100A0000BFF34F8F00BFBFF36F8F00BFFA7B2A4940
:100A100013465B0013445B000B44043301221A703D
:100A200046E0FB7B0133FB73FB7B1F2BBCD93FE014
:100A30000023BB7332E0BA7B1F4913465B001344AB
:100A40005B000B4404331B78DBB2002B23D0BA7B52
:100A5000194913465B0013445B000B441B78DBB25F
:100A60003A7B9A4217D1BA7B134913465B00134471
:100A70005B000B4401331B78DBB2FA7A9A420AD14D
:100A8000BA7B0D4913465B0013445B000B440433EF
:100A900000221A7005E0BB7B0133BB73BB7B1F2BAD
:100AA000C9D9074B01221A7002E000BF00E000BF65
:100AB0001037BD4680BD00BFC40200108603001081
:100AC0008403001080B584B000AF78600B46FB70E3
:100AD0000023FB730CE0FA7B114913465B001344BF
:100AE0005B000B44043300221A70FB7B0133FB7361
:100AF000FB7B1F2BEFD90B4B01221A7060210A4898
:100B0000FFF724FE094B01221A7060210848FFF705
:100B10001DFE084B01221A7000BF1037BD4680BD74
:100B2000C402001084030010B8030010F805001080
:100B3000D8040010F905001080B582B000AF7860CD
:100B40000B46FB70FB78012B0ED97B681A787B680B
:100B500001331B78012B0CBF01230023DBB21946A4
:100B6000104600F0E7FD00E000BF0837BD4680BD3D
:100B700080B586B000AF78600B46FB70FB78022B27
:100B800059D97B681B78FB757B6801331B78BB7573
:100B90007B6802331B787B75FB78032B02D97B685B
:100BA000033300E000233B61FB78032B03D9FB7880
:100BB000033BDBB200E00023FB73FB7D852B3CD1C4
:100BC000BB7D012B39D17B7D062B15DC002B2EDB69
:100BD000062B2CD801A252F823F000BF2F0C0000E6
:100BE0002F0C00000B0C00002F0C0000FF0B00006E
:100BF0002F0C0000230C00003A2B0CD017E0FB7BDD
:100C000019463869FFF75EFE12E0FB7B194638692A
:100C1000FFF7A6FE0CE0FB7B19463869FFF752FF91
:100C200006E0FB7B19463869FFF786FF00E000BF4E
:100C3000FFF774FD02E000BF00E000BF1837BD46BB
:100C400080BD00BF80B582B000AF66E03948FFF7D5
:100C5000A3FB0346FB71384B1B78DBB2032B55D843
:100C600001A252F823F000BF790C0000870C0000AD
:100C7000B70C0000F10C0000FB79272B4AD12E4B5A
:100C800001221A7046E02D4AFB7913702C4B00228A
:100C90001A702A4B1B78DBB2002B04D0274B1B7831
:100CA000DBB2422B03D9244B00221A7035E0224BD1
:100CB00002221A7031E0224B1B78412B14D8204BB2
:100CC0001B785A1CD1B21E4A117019461D4AFB7975
:100CD00053541B4B1A78194B1B78DBB29A421BD129
:100CE000154B03221A7017E0134B00221A7013E001
:100CF000FB79162B06D1114B1B78DBB21946114834
:100D0000FFF736FF0C4B00221A7006E00A4B002258
:100D10001A7002E000BF00E000BF0648FFF772FB58
:100D2000034603F00103002B90D100BF00BF08373A
:100D3000BD4680BD00C00040FA050010FB05001054
:100D40003E060010FC05001080B582B000AFCCE07C
:100D50006D48FFF721FB0346FB716C4B1B78DBB240
:100D6000042B00F2BB8001A252F823F0810D000099
:100D7000910D0000CF0D0000FF0D00002D0E0000B2
:100D8000FB79272B40F0AE80604B01221A70A9E05E
:100D9000FB79272B03D15D4B02221A70A5E05C4A38
:100DA000FB7913705B4B00221A70594B1B78DBB236
:100DB000002B04D0564B1B78DBB2082B03D9534BC6
:100DC00000221A7091E0514B03221A708DE0504AB4
:100DD000FB7913704F4B00221A704D4B1B78DBB21E
:100DE000002B04D04A4B1B78DBB2082B03D9474BAE
:100DF00000221A7079E0454B03221A7075E0454BCA
:100E00001B78DBB25A1CD1B2424A11701946424AD1
:100E1000FB7953543F4B1B78DAB23D4B1B78DBB266
:100E20009A4261D1394B04221A705DE0FB79162B8E
:100E300050D1374B1B78DBB2032B4BD1364B1B7891
:100E40000A2B47D1344B5B78BB71334B9B787B715A
:100E5000BB79002B3ED0BB791F2B3BD87B79002B75
:100E600038D0BB79013B012202FA03F33B602B4BE4
:100E70001A683B681343294A13607B79032B06D118
:100E8000274B1A683B681343254A136006E03B680A
:100E9000DA43234B1B681340214A1360214B1B7814
:100EA000DBB2002B16D0204B1A683B6813431E4A56
:100EB00013607B79032B06D11C4B1A683B681343E4
:100EC0001A4A136006E03B68DA43184B1B6813406C
:100ED000164A13600D4B00221A7006E00B4B0022DD
:100EE0001A7002E000BF00E000BF0748FFF78AFA6F
:100EF000034603F00103002B7FF42AAF00BF00BFBD
:100F00000837BD4680BD00BF000001403F0600100D
:100F1000400600104106001044060010300000108A
:100F20003400001089030010380000103C0000104D
:100F300080B400AF0A4B1B680A4A13600A4B1A6858
:100F4000084B1B681340094A1360054B00221A60C6
:100F5000054B00221A6000BFBD4680BC704700BF31
:100F60003000001038000010340000103C00001069
:100F700080B582B000AF6D48FFF7FFF96C4B1B885E
:100F80009BB201339AB26A4B1A806A4B1B78DBB270
:100F9000002B04D0FFF7EAFA664B00221A700023F8
:100FA000FB710023BB7111E0BA79634913465B0002
:100FB00013445B000B4404331B78DBB2002B02D0DC
:100FC0000123FB7105E0BB790133BB71BB791F2B9A
:100FD000EAD95A4AFB791370FB79002B6CD0584B35
:100FE00001221A7000237B7160E0564B1A787B79DE
:100FF0001344DBB203F01F03FB70FA784E4913462B
:101000005B0013445B000B4404331B78DBB2002B02
:1010100048D0474B1B8899B2FA78474813465B0083
:1010200013445B00034402331B889BB2CB1A9BB270
:101030001BB2DB439BB2DB0BBB70BB78002B32D007
:10104000FA783D4913465B0013445B000B441B7860
:10105000D8B2FA78384913465B0013445B000B445E
:1010600001331B78DBB21946FFF75CFA304B1B8863
:101070009BB2FA78023398B22F4913465B001344AF
:101080005B000B44023302461A80FB7801335A425C
:1010900003F01F0302F01F0258BF5342DAB2294B7C
:1010A0001A7006E000BF7B7901337B717B791F2BBF
:1010B0009BD9FFF78FFB36E0214B1B78DBB2002B6F
:1010C00005D01F4B00221A701F4B00221A701F4BB5
:1010D0001B78002B02D1FFF77DFB24E01A4B1B7815
:1010E000DBB2002B01D1FFF723FF174B1B78DBB2DC
:1010F0001A46174B9B5C3B713B791846FFF74AFA3F
:10110000114B1B78DBB20133DAB20F4B1A700E4B66
:101110001B78DAB20D4B1B789A4202D30A4B00229D
:101120001A70FFF757FB0837BD4680BD00000B4023
:101130008603001084030010C4020010890300100D
:101140004D060010880300104C0600102F00001000
:101150001000001080B584B000AF00F069FB00F013
:101160000FFB4C48FFF7D8F84B48FFF7E0F808238F
:1011700019220321474800F08CFD08231A2203217D
:10118000444800F086FD192203214348FFF7DAF8AE
:101190001A2203214048FFF7D5F860213F48FFF7A6
:1011A000D5FA3F4B01221A7060213E48FFF7CEFA74
:1011B0003D4B01221A703D4800F0BCFF4FF49641B0
:1011C0003A4801F058F803213848FFF70EF9812119
:1011D0003648FFF7FDF8354800F0E8FF344800F0E6
:1011E000A9FF4FF41651324801F045F80321304869
:1011F000FFF7FBF881212E48FFF7EAF82C4800F0B2
:10120000D5FF05212948FFF7D3F803210520FFF773
:1012100059F80520FFF724F805212548FFF7C8F8FD
:1012200002210620FFF74EF80620FFF719F82148A3
:1012300000F0E3FD46211F4800F0F8FD1D20FFF7F8
:1012400027F801211D20FFF73DF81D20FFF708F8C2
:10125000194B1B78DBB2002B0BD0174B1B78FB73A1
:10126000FB7B1A461549114800F0E0FF124B0022A3
:101270001A703B1D1846FFF71BF90346002B06D0DA
:101280007B7B1A463B1D1946094800F0CFFF30BF53
:1012900000BFDDE700C0024000C00920B803001015
:1012A000F8050010D8040010F905001000C0004037
:1012B0000000014000000B408A0300108C03001066
:1012C00080B400AF2E4B4FF0C0629A6100BF00BFE8
:1012D00000BF00BF00BF00BF00BF00BF00BF00BF16
:1012E00000BF00BF00BF00BF00BF00BF00BF00BF06
:1012F00000BF00BF00BF00BF00BF00BF00BF00BFF6
:1013000000BF00BF00BF00BF00BF00BF1C4B4FF0BD
:10131000C062DA6100BF00BF00BF00BF00BF00BFF6
:1013200000BF00BF00BF00BF00BF00BF00BF00BFC5
:1013300000BF00BF00BF00BF00BF00BF00BF00BFB5
:1013400000BF00BF00BF00BF00BF00BF00BF00BFA5
:1013500000BF00BF00BF00BF00BF00BF00BF00BF95
:1013600000BF00BF00BF00BF00BF00BF00BF00BF85
:1013700000BF00BF00BF00BF00BFBD4680BC7047BC
:1013800060C0092080B400AF334B4FF0C0629A6157
:1013900000BF00BF00BF00BF00BF00BF00BF00BF55
:1013A00000BF00BF00BF00BF00BF00BF00BF00BF45
:1013B00000BF00BF00BF00BF00BF00BF00BF00BF35
:1013C00000BF00BF00BF00BF00BF00BF00BF00BF25
:1013D00000BF00BF00BF00BF00BF00BF00BF00BF15
:1013E00000BF00BF00BF00BF00BF00BF00BF00BF05
:1013F00000BF00BF00BF00BF00BF00BF00BF00BFF5
:1014000000BF00BF00BF00BF00BF00BF00BF00BFE4
:1014100000BF00BF00BF00BF00BF00BF00BF00BFD4
:1014200000BF00BF00BF00BF0B4B4FF0C062DA61CE
:1014300000BF00BF00BF00BF00BF00BF00BF00BFB4
:1014400000BF00BF00BF00BF00BF00BF00BF00BFA4
:1014500000BFBD4680BC704760C0092080B586B023
:1014600000AF78600023FB8251E07B681968FA8A3C
:1014700013465B001344CA1807F10C0311889278D5
:1014800019809A7000237B750FE07B7B5BB2002B89
:1014900002DAFFF777FF01E0FFF712FF7B7B5B00CB
:1014A000DBB27B737B7D01337B757B7D072BECD9B6
:1014B00000233B750FE03B7B5BB2002B02DAFFF7AA
:1014C00061FF01E0FFF7FCFE3B7B5B00DBB23B739F
:1014D0003B7D01333B753B7D072BECD90023FB742F
:1014E0000FE0BB7B5BB2002B02DAFFF74BFF01E0A2
:1014F000FFF7E6FEBB7B5B00DBB2BB73FB7C01331B
:10150000FB74FB7C072BECD9FB8A0133FB827B68E5
:101510001B791A46FB8A9342A7D300233B8206E03D
:1015200000BF00BF00BF00BF3B8A01333B823B8A44
:10153000B3F5167FF4D300BF00BF1837BD4680BD9A
:1015400080B582B000AF78600F2000F065FA00BF70
:101550000837BD4680BD80B582B000AF78600F20EF
:1015600000F05AFA00BF0837BD4680BD80B483B092
:1015700000AF7860084611461A460346FB700B46DA
:10158000BB7013467B707B78002B0ED0FB785B0121
:101590007A6813449969BB7801229A40FB785B0111
:1015A000786803440A439A610DE0FB785B017A682E
:1015B0001344D969BB7801229A40FB785B017868B3
:1015C00003440A43DA6100BF0C37BD4680BC704754
:1015D00080B584B000AFF860B96011461A460B467A
:1015E000FB711346BB71BB68D9B2BB79FA79F86855
:1015F000FFF7BCFF00BF1037BD4680BD80B483B08D
:1016000000AF78600B46FB701346BB70FB785B0144
:101610007A6813441968BB7801229A40FB785B0111
:10162000786803440A431A6000BF0C37BD4680BC8B
:10163000704780B483B000AF78600B46FB701346F0
:10164000BB70FB785B017A6813441968BB78012290
:1016500002FA03F3DA43FB785B01786803440A403B
:101660001A6000BF0C37BD4680BC704780B582B0A1
:1016700000AF7860084611461A460346FB700B46D9
:10168000BB7013467B707B78002B06D0BA78FB7852
:1016900019467868FFF7B2FF05E0BA78FB7819467B
:1016A0007868FFF7C6FF00BF0837BD4680BD80B52C
:1016B00082B000AF7860084611461A460346FB70B8
:1016C0000B46BB7013467B707B78BA78F9787868E4
:1016D000FFF7CCFF00BF0837BD4680BD80B582B0A4
:1016E00000AF00237B6018E07B685B000F4A134467
:1016F0003B603B6819783B685A7801230C48FFF738
:10170000D6FF3B681B7819463B685A780023084887
:10171000FFF75EFF7B6801337B607B68052BE3D9B5
:1017200000BF00BF0837BD4680BD00BF4C28000089
:1017300000C0092080B584B000AF03460A46FB71A3
:101740001346BB71FB79002B11D0FB79062B0ED809
:10175000FB79013B5B00084A1344FB60FB681B7884
:101760001946FB685A78BB790448FFF731FF00BF80
:101770001037BD4680BD00BF4C28000000C00920C6
:1017800080B500AF0448FFF7E6FE0448FFF7D8FE37
:10179000FFF7A4FF00BF80BD00C0092000C00240C9
:1017A00080B485B000AF0346FB71084B1B68C3F3E0
:1017B0000B03FB60FB791A030449FB6813430B60BE
:1017C00000BF1437BD4680BC704700BF00C00F404B
:1017D00080B500AF0C220349034800F0BFFA00BFF8
:1017E00080BD00BF6028000000C0024080B500AF8F
:1017F00000F0A4FB0420FFF7D3FF0121022000F03A
:1018000055F90121162000F051F90121032000F0C3
:101810004DF90121042000F049F900BF80BD80B5D9
:1018200000AFFFF7D5FFFFF7E1FF00BF80BDFFFF6F
:1018300080B500AF00F00EFA0346024A136000BF05
:1018400080BD00BF5006001080B400AF064BD3F837
:10185000883003F08073002B14BF01230023DBB218
:101860001846BD4680BC704700C00F4080B400AF32
:10187000064BD3F8883003F00073002B14BF01230C
:101880000023DBB21846BD4680BC704700C00F4045
:1018900080B483B000AF0346FB71094AFB795B015A
:1018A00013448C33AA221A60054AFB795B01134466
:1018B0008C3355221A6000BF0C37BD4680BC704780
:1018C00000C00F4080B400AF054BD3F80C31DBB241
:1018D00003F00303DBB21846BD4680BC704700BF6F
:1018E00000C00F4080B400AF024B1B681846BD46D5
:1018F00080BC70475828000080B400AF024B1846E7
:10190000BD4680BC704700BF00093D0080B400AFF9
:10191000024B1B681846BD4680BC70475C2800001F
:1019200080B500AF00F03AF90346184680BDFFFFCE
:1019300080B584B000AF03463960FB710C4AFB7977
:1019400004335B0113441B68FB60FA683B68134374
:10195000FB60074AFB7904335B011344FA681A60A1
:10196000FB791846FFF794FF00BF1037BD4680BDD6
:1019700000C00F4080B584B000AF03463960FB71F2
:101980000D4AFB7904335B0113441B68FB603B6821
:10199000DB43FA681340FB60074AFB7904335B01C1
:1019A0001344FA681A60FB791846FFF771FF00BF0D
:1019B0001037BD4680BD00BF00C00F4080B586B067
:1019C00000AF0346B9607A60FB73FB7B002B05D147
:1019D0007B681B04BA6813437B6104E07B685B018E
:1019E000BA6813437B610B4AFB7B04335B011344EE
:1019F00004337A691A60074AFB7B04335B011344A2
:101A000001221A60FB7B1846FFF742FF00BF183720
:101A1000BD4680BD00C00F4080B485B000AF034616
:101A2000FB71FB79FB60084BD3F8C4300121FA68E5
:101A300001FA02F21146044A0B43C2F8C43000BF57
:101A40001437BD4680BC704700C00F4080B582B0DF
:101A500000AFFFF70BFF0346002B02D00123FB7101
:101A600001E00023FB71FB7918460837BD4680BDB5
:101A700080B483B000AF7860044A7B68C2F8043158
:101A800000BF0C37BD4680BC704700BF00C00F4090
:101A900080B400AF044BD3F80431DBB201331846F5
:101AA000BD4680BC704700BF00C00F4080B487B007
:101AB00000AF03460A46FB711346BB71FB797B619D
:101AC0007B6903F00F035B003B617B691B097B6152
:101AD0000E4A7B696A3352F8233003213A6901FACE
:101AE00002F2D2431340FB60BA793B6902FA03F376
:101AF000FA681343FB6005497B696A33FA6841F869
:101B0000232000BF1C37BD4680BC704700C00F407B
:101B100080B487B000AF0346FB7101237B61FB7982
:101B20005B003B613B6903F01F03FB603B695B09A2
:101B30003B61194A3B696A3352F823307B617A6909
:101B4000FB6822FA03F303F003037B617B69002B3C
:101B500002D104237B6119E07B69012B02D10123AF
:101B60007B6113E07B69022B02D102237B610DE0D4
:101B7000FB790D2B05D0FB790E2B02D0FB790F2BB7
:101B800002D106237B6101E008237B617B69184653
:101B90001C37BD4680BC704700C00F4080B500AF09
:101BA000FFF790FE0346022B0ED0022B10DC002B19
:101BB00002D0012B04D00BE0FFF79EFE034608E0A5
:101BC000FFF790FE034604E0FFF7A0FE034600E0A7
:101BD0000023184680BDFFFF80B584B000AF00230E
:101BE000FB60FFF731FE0346002B18D00E4BD3F8F5
:101BF0008430C3F30E030133BB600B4BD3F8843046
:101C00001B0CDBB201337B60FFF78AFE0246BB6828
:101C100002FB03F35A007B68B2FBF3F3FB60FB6843
:101C200018461037BD4680BD00C00F4080B500AFDC
:101C3000FFF70CFF0346002B05D0012B07D1FFF760
:101C4000CBFF034604E0FFF7A9FF034600E00023B3
:101C5000184680BD98B500AFFFF7E8FF0446FFF7D0
:101C600017FF0346B4FBF3F3184698BD90B583B055
:101C700000AF0346FB71FFF7EDFF0446FB79184602
:101C8000FFF746FF0346B4FBF3F318460C37BD4697
:101C900090BD80B586B002AFF8607B600B46FB72EA
:101CA0001346BB727B6898087B68DBB203F00303C2
:101CB000DBB2BA7AF97A00930346F86800F004F8C8
:101CC00000BF1037BD4680BD80B487B000AFF8605C
:101CD0007B600B46FB721346BB72BB7A03F00F03AB
:101CE000DBB25B00FB75FB7A5B00DAB2BB7A1B09E7
:101CF000DBB21344BB75BA7DFB6853F82220FB7D31
:101D0000032101FA03F3DB4313403B6197F82020E2
:101D1000FB7D02FA03F31946BA7D3B691943FB6860
:101D200043F82210BA7DFB68103253F82220FB7D65
:101D3000032101FA03F3DB4313403B61FB7D7A6827
:101D400002FA03F1BA7D3B691943FB68103243F88C
:101D5000221000BF1C37BD4680BC704780B586B0DE
:101D600000AFF860B9607A6000237B611FE07B6997
:101D70009B00BA6813441B78C3F30203DBB2194615
:101D80007B699B00BA6813441B78C3F3C403DBB2BE
:101D900018467B699B00BA6813441B68C3F317237A
:101DA0000246F868FFF775FF7B6901337B617A694A
:101DB0007B689A42DBD300BF00BF1837BD4680BDA9
:101DC00080B483B000AF786039607B683A681A608D
:101DD00000BF0C37BD4680BC704780B483B000AFF5
:101DE000786039607B689A683B681A437B689A60C0
:101DF00000BF0C37BD4680BC704780B582B000AFD5
:101E000078601020FFF708FE7B684FF0FF321A6001
:101E10007B6800225A607B680C229A607B680022F3
:101E2000DA6000BF0837BD4680BDFFFF80B584B0D3
:101E300000AF786039601D20FFF718FF03460A4A9B
:101E4000A2FB03239A093B6802FB03F3FB60F968DA
:101E50007868FFF7B5FF02217868FFF7BEFF00BF83
:101E60001037BD4680BD00BFD34D621080B400AFB7
:101E7000064BD3F8883003F08073002B14BF012386
:101E80000023DBB21846BD4680BC704700C00F403F
:101E900080B400AF064BD3F8883003F08063002B8A
:101EA00014BF01230023DBB21846BD4680BC704737
:101EB00000C00F4080B400AF064BD3F8883003F069
:101EC0000073002B14BF01230023DBB21846BD466C
:101ED00080BC704700C00F4080B400AF054BD3F802
:101EE000A031044A43F02003C2F8A03100BFBD4630
:101EF00080BC704700C00F4080B400AF064BD3F8E1
:101F0000A03103F04003002B14BF01230023DBB2F8
:101F10001846BD4680BC704700C00F4080B483B0F7
:101F200000AF0346FB71044AFB79C2F80C3100BFD5
:101F30000C37BD4680BC704700C00F4080B500AF75
:101F4000FFF7B8FF0346002B03D002210020FFF764
:101F500011FDFFF78BFF0346002B03D0012100206A
:101F6000FFF708FDFFF7C8FF034683F00103DBB26C
:101F7000002B01D0FFF7B0FF00BFFFF7BDFF034606
:101F800083F00103DBB2002BF7D10020FFF770FDD7
:101F90000120FFF7C3FF00220F210020FFF70EFDF5
:101FA00001210020FFF7C4FC0320FFF761FD00BF03
:101FB000FFF76EFF034683F00103DBB2002BF7D17E
:101FC00002210020FFF7B4FC00BF80BD80B483B0C5
:101FD00000AF78600B46FB70FA787B681A6000BF30
:101FE0000C37BD4680BC704780B483B000AF7860CA
:101FF00039607B683A689A6000BF0C37BD4680BC88
:10200000704780B483B000AF786039607B683A680D
:10201000DA6000BF0C37BD4680BC704780B483B027
:1020200000AF78607B68DB6843F080027B68DA6031
:1020300000BF0C37BD4680BC704780B483B000AF92
:1020400078607B68DB6823F080027B68DA6000BF21
:102050000C37BD4680BC704780B483B000AF786059
:102060000B46FB701346BB70FA787B681A60BA782F
:102070007B685A6000BF0C37BD4680BC704780B497
:1020800083B000AF78607B685B6918460C37BD464B
:1020900080BC704780B485B000AF78607B680E4A22
:1020A000934202D10423FB730FE07B680B4A9342F7
:1020B00002D11823FB7308E07B68094A934202D1DE
:1020C0001923FB7301E00323FB73FB7B18461437D2
:1020D000BD4680BC704700BF000001400080094041
:1020E00000C0094080B485B000AF78607B680E4ABC
:1020F000934202D10423FB730FE07B680B4A9342A7
:1021000002D11823FB7308E07B68094A934202D18D
:102110001923FB7301E00323FB73FB7B1846143781
:10212000BD4680BC704700BF0000014000800940F0
:1021300000C0094080B584B000AF78607868FFF7D0
:10214000A9FF03461846FFF767FC07217868FFF7E9
:102150004BFF786800F036F87B6800225A607B6895
:102160000022DA607B6800221A627B680022DA644F
:102170007B6800225A657B6800221A657B680A4AE0
:10218000934205D17B6800221A617B689B69FB60E2
:1021900003217868FFF735FF7B6810229A6200BF41
:1021A0001037BD4680BD00BF0000014080B483B041
:1021B00000AF78607B6880221A6300BF0C37BD4691
:1021C00080BC704780B483B000AF78607B68002229
:1021D0001A6300BF0C37BD4680BC704780B586B01F
:1021E00000AFF860B9607A6000237B61BB683B6137
:1021F0000BE03B691B781946F868FFF7E7FE3B697F
:1022000001333B617B6901337B617A697B689A4268
:1022100007DAF868FFF733FF034603F02003002BCB
:10222000E7D17B6918461837BD4680BD80B588B0B8
:1022300000AFF860B9607A600023FB61BB68BB61E6
:1022400011E07A68B969F868FFF7C8FF78617A68C1
:102250007B69D31A7B60FA697B691344FB617B69F4
:10226000BA691344BB617B68002BEADCFB69184642
:102270002037BD4680BD80B586B000AF786039603C
:102280007868FFF72FFF03461846FFF7EFFC7861E9
:102290003B681B017A69B2FBF3F33B613B691B0AA4
:1022A000FB60FB681B023A69D31ABB607868FFF7D2
:1022B000B5FEBB68DBB2FA68D2B219467868FFF7A0
:1022C000CBFE7868FFF7B9FE7A693B69B2FBF3F39E
:1022D00018461837BD4680BD08B500F009F8BDE8BE
:1022E0000840FEF737BF00F065BA00F07DBAFFFF87
:1022F00010B5174A1749002000F055F84FF48073C5
:102300004FF480620021124800F02EF8124A13495F
:10231000012000F048F84FF480734FF480620021F0
:102320000D4800F021F80E4B1B68022B0EDD0D4A04
:102330000A49022000F037F8BDE810404FF48073DE
:102340004FF480620021074800F00EB810BD00BFB6
:1023500058060010902800009406001092280000F3
:1023600094280000D006001070B5C468A50708D0F6
:10237000B2F5007F11D0B2F5806F04D0B2F5807F46
:102380000BD0012008E0012300F124011443016176
:102390000160C361C460002070BD6FF07F455E1EA8
:1023A000AE42F3D3EDE770B50D460646104614462F
:1023B00000F02DF82B78722B17D0772B18D0612BCB
:1023C00023D1082348F2020215F8011F2B2912D04D
:1023D000622915D01B07E260666104D50222002144
:1023E000204600F05FF8204670BD00230122EBE795
:1023F00004230222E8E742F0030243F00203E3E78A
:1024000042F0040243F00103DEE70024EBE7F0B5FD
:10241000C5680446A90789B022D02A0718D4D0E994
:10242000046700F021F8384600F0F7F92B0502D5D3
:10243000304600F087F96FF3150515F1A54F07D168
:1024400020226846216A00F0F7F9684600F0C8F8D3
:102450003C2200212046FFF748FF002009B0F0BDD4
:102460004FF0FF30FAE7FFFFF8B5044638B90546EC
:102470000A4B0B4E1F68A74205DC2846F8BDBDE895
:10248000F84000F0DEB8304600F0DBF8002818BF56
:102490004FF0FF3501343C36EDE700BF94280000D3
:1024A000580600102DE9F843C6683B4B04463340FC
:1024B0000D4690467BB1D0F81490484600F0B3F931
:1024C000074640B9B8F1010F09D0B8F1020F31D079
:1024D000B8F1000F07D002273846BDE8F883204640
:1024E00000F05CF80544002DF5DBB30404D5236847
:1024F000E26A9A4238BFE362A069A8420EDC236810
:10250000E26A934238BF134622691918891AA94210
:1025100004DB216B00EB010CAC452CDC0023C4E98F
:10252000013346F02006A56226F4032626F0400675
:10253000E660D1E7484600F073F90028E26804DA63
:1025400042F080020127E260C6E72168A369D4F85F
:102550002CC061452CBF5B18634421699206A3EB34
:10256000010303D5A26A9342B8BF13468342ACBFAE
:10257000ED182D18B7E72D1AB00744BF691AA160EE
:10258000F10744BF9B1AEB1A2A4448BF63602260DC
:1025900026F02006C8E700BF03001000C3689A07B2
:1025A00005D121220D4B4FF0FF301A60704703F028
:1025B00020021B0309D512B1806A013870470368F5
:1025C000826900691344181AF7E70AB1806A7047F4
:1025D0000368826900691344181A70475406001092
:1025E00010B5044600F006F801462046BDE810404C
:1025F00000F01CB9034610B59A071C4615D12346B6
:1026000054F8042BA2F1013121EA020111F0803FBC
:10261000F5D0D1B299B112F47F4F0ED012F47F0FE2
:1026200014BF23460333013003E01A4612F8011B9E
:1026300009B9181A10BD1346DEE70233F3E7013378
:10264000F1E7C36870B513F00306044611D09B068A
:1026500011D5856A00F08EF8E368204623F44053D4
:10266000E36000F00EF80022064629462046FFF7F8
:1026700019FF304670BD836905681D440369ED1A72
:10268000EAE738B50446C36805690168C26A23F4FD
:102690000020E06003F08200022802D04FF0FF30FB
:1026A00038BDDB030CD5914238BF11468D4209D1AC
:1026B0000023A360E368E56223F480332560E360D0
:1026C0000020EDE722462846491B00F003F80028C9
:1026D000EED0E3E72DE9F041D5688046EB020E46E7
:1026E0001446576912D5384600F09AF845F010059F
:1026F000A0613846A16900F09CF8002819DAE36867
:102700004FF0FF3043F08003E36010E00C4B2B40B0
:10271000002BEED132464146384600F090F820F0CA
:102720000043F61AA3693344A3610028E7D1BDE84A
:10273000F08125F4003525F01005E560EAE700BFDB
:1027400010000200A8B14FF0805340F80C3C50F844
:10275000042C72B11368B3F1805F0AD150F8083CC1
:10276000516803330B4440F8083C936840F8043C3C
:10277000EDE77047C36810B523F020028169C2609D
:10278000826A044691420FD0FFF77BFFE36823F48F
:10279000405323F0100343F01003E360A36AA361E6
:1027A0002369E362236010BD23F4804323F06003B8
:1027B000C360F8E740EA0103DB0703460CD4034695
:1027C000043A22BF51F804CB43F804CBB2F104021F
:1027D000F7D2043208BF7047013A24BF11F801CB89
:1027E00003F801CBF8D87047034613F0030F0ED15E
:1027F00001F0FF0141EA012141EA0141043A24BF0D
:1028000043F8041BB2F10402F9D202F10402013AC6
:1028100024BF03F8011BFAE770474FF0FF30704701
:102820004FF0FF3070474FF0FF3070474FF0FF30F0
:1028300070474FF0FF3070474FF0FF307047104641
:102840007047FFFF27970485FF030016041C000450
:102850000005000600070008001BB700000000008C
:102860001009000018090000020A00000A0A00000E
:10287000E4080000200800002808000030080000DC
:102880003808000040080000D3080000CB08000012
:0828900072007700080000004F
:10289800B803001060000000D804001060000000B9
:040000030000017187
:00000001FF
