:100000000080001071010000ED010000F50100000A
:10001000FD010000050200000D02000000000000CC
:1000200000000000000000000000000015020000B9
:100030001D02000000000000250200002D0200004B
:1000400035020000350200003502000035020000D4
:100050003502000095100000A911000035020000D3
:1000600035020000350200003502000035020000B4
:1000700035020000350200003502000035020000A4
:100080003502000035020000350200003502000094
:1000900035020000FD1600003502000035020000A8
:1000A0003502000035020000350200003502000074
:1000B00035020000D11300003502000035020000B7
:1000C000350200003502000035020000F82E000065
:1000D0000000001010000000F82E000000C00720F3
:1000E0000000000010000010F809000000C0072008
:1000F0000000000080B489B000AFF860B9607A6099
:10010000BB68FB61FB68BB6100237B610AE0BA69E5
:10011000131DBB61FB69191DF96112681A607B69C7
:1001200004337B617A697B689A42F0D300BF00BFD9
:100130002437BD4680BC704780B485B000AF78607E
:1001400039607B68FB600023BB6007E0FB681A1D19
:10015000FA6000221A60BB680433BB60BA683B686F
:100160009A42F3D300BF00BF1437BD4680BC70472E
:1001700080B584B000AF1A4BFB6013E0FB681A1D1A
:10018000FA601B683B60FB681A1DFA601B68BB6065
:10019000FB681A1DFA601B687B607A68B96838686A
:1001A000FFF7A8FFFB680F4A9342E7D30DE0FB6817
:1001B0001A1DFA601B68BB60FB681A1DFA601B6899
:1001C0007B607968B868FFF7B7FFFB68064A93421F
:1001D000EDD300F033F802F0A9FB00BFFDE700BF4C
:1001E000CC000000E4000000F400000080B400AF88
:1001F00000BFFDE780B400AF00BFFDE780B400AFF3
:1002000000BFFDE780B400AF00BFFDE780B400AFE2
:1002100000BFFDE780B400AF00BFFDE780B400AFD2
:1002200000BFFDE780B400AF00BFFDE780B400AFC2
:1002300000BFFDE780B400AF00BFFDE780B582B02E
:1002400000AF054B7B60054A7B681A6001F011FE28
:1002500000BF0837BD4680BD08ED00E0000000008B
:1002600080B483B000AF0346FB71FB7903F01F033A
:10027000012202FA03F1054A97F907305B0942F8B7
:10028000231000BF0C37BD4680BC704700E100E082
:1002900080B483B000AF0346FB71FB7903F01F030A
:1002A000012202FA03F1064A97F907305B0960332D
:1002B00042F8231000BF0C37BD4680BC704700BF1A
:1002C00000E100E080B483B000AF03463960FB7109
:1002D00097F90730002B0BDA3B68DAB20C49FB794F
:1002E00003F00F03043BD200D2B20B441A7609E0AC
:1002F0003B68DAB2074997F90730D200D2B20B4413
:1003000083F8002300BF0C37BD4680BC704700BF98
:1003100000ED00E000E100E080B582B000AF786061
:100320000F2001F0A3FE00BF0837BD4680BD80B599
:1003300082B000AF78600F2001F098FE00BF083750
:10034000BD4680BD80B483B000AF78600B46FB70C3
:100350001346BB70FB785B017A6813441968BB785D
:1003600001229A40FB785B01786803440A431A60D3
:1003700000BF0C37BD4680BC704780B483B000AF6F
:1003800078600B46FB701346BB70FB785B017A68A4
:1003900013441968BB78012202FA03F3DA43FB78AD
:1003A0005B01786803440A401A6000BF0C37BD4601
:1003B00080BC704780B485B000AFF8600B467A60AF
:1003C000FB72FB7A002B03D1FB687A685A6102E06A
:1003D000FB687A685A6300BF1437BD4680BC70471B
:1003E00080B483B000AF78600B46FB70FB78002BC5
:1003F00002D17B689B6801E07B689B6A18460C37DA
:10040000BD4680BC704780B483B000AF78600B46B7
:10041000FB70FB78002B02D17B685B6801E07B6896
:100420005B6A18460C37BD4680BC704780B485B007
:1004300000AFF8600B467A60FB72FB7A002B03D1A9
:10044000FB687A68DA6002E0FB687A68DA6200BF0B
:100450001437BD4680BC704780B483B000AF78606D
:100460007B689B6843F001027B689A6000BF0C3791
:10047000BD4680BC704780B483B000AF78607B68B5
:100480001B68DBB218460C37BD4680BC704780B491
:1004900083B000AF786039607B685A683B681A4364
:1004A0007B685A6000BF0C37BD4680BC704780B483
:1004B00083B000AF786039607B683A689A6000BFAB
:1004C0000C37BD4680BC704780B483B000AF786005
:1004D00039607B683A68DA6000BF0C37BD4680BC83
:1004E000704780B483B000AF78607B685B69184662
:1004F0000C37BD4680BC704780B584B000AF7860D3
:100500000B46FB701E4B1B78DBB201335A4203F0E3
:100510003F0302F03F0258BF5342FB73194B1B7855
:10052000DBB2FA7B9A4201D1002324E0FB78092B4D
:1005300001D90923FB70124B1B78DBB21A46134614
:100540009B0013445B00104A1344FA7879681846FC
:1005500002F0F3F90A4B1B78DBB219460A4A0B4644
:100560009B000B445B0013440933FA781A70044A69
:10057000FB7B1370012318461037BD4680BD00BFBA
:1005800044000010450000104800001080B483B003
:1005900000AF7860174B1B78DAB2174B1B78DBB2D1
:1005A0009A4201D1002320E0124B1B78DBB219469E
:1005B0007868124A0B469B000B445B001A440346C2
:1005C000106851681860596012891A81094B1B78AC
:1005D000DBB201335A4203F03F0302F03F0258BF3F
:1005E0005342DAB2034B1A70012318460C37BD464A
:1005F00080BC704745000010440000104800001007
:1006000080B584B000AF78600B46FB701E4B1B7842
:10061000DBB201335A4203F03F0302F03F0258BFFE
:100620005342FB73194B1B78DBB2FA7B9A4201D120
:10063000002324E0FB78092B01D90923FB70124B1E
:100640001B78DBB21A4613469B0013445B00104A2A
:100650001344FA787968184602F06FF90A4B1B7850
:10066000DBB219460A4A0B469B000B445B0013445D
:100670000933FA781A70044AFB7B13700123184679
:100680001037BD4680BD00BFC8020010C90200106F
:10069000CC02001080B483B000AF7860174B1B7899
:1006A000DAB2174B1B78DBB29A4201D1002320E06B
:1006B000124B1B78DBB219467868124A0B469B0036
:1006C0000B445B001A440346106851681860596077
:1006D00012891A81094B1B78DBB201335A4203F0AD
:1006E0003F0302F03F0258BF5342DAB2034B1A7085
:1006F000012318460C37BD4680BC7047C902001064
:10070000C8020010CC02001080B586B000AF0346CE
:100710000A46FB711346BB7127233B7397237B73F8
:100720000523BB738523FB73FB793B7402237B7426
:100730000123BB74BB79FB7416233B7507F10C03D3
:1007400009211846FFF7D8FE00BF1837BD4680BD07
:1007500080B582B000AF074A3B4692E8030083E8C9
:1007600003003B4608211846FFF7C6FE00BF0837C6
:10077000BD4680BD982E000080B586B000AF034610
:10078000FB7127233B7397237B730523BB7385235F
:10079000FB73FB793B7400237B740023BB74002341
:1007A000FB7416233B7507F10C0309211846FFF76C
:1007B000A3FE00BF1837BD4680BD80B586B000AF30
:1007C00003460A46FB711346BB7127233B739723ED
:1007D0007B730523BB738523FB73FB793B74042375
:1007E0007B740123BB74BB79FB7416233B7507F143
:1007F0000C0309211846FFF703FF00BF1837BD4659
:1008000080BDFFFF80B582B000AF074A3B4692E84B
:10081000030083E803003B4608211846FFF7F0FE7B
:1008200000BF0837BD4680BD982E000080B48BB055
:1008300000AF78600B46FB704C4B1B7887F821307B
:1008400097F82130073387F8203097F820300333AA
:10085000FB77FA7FFB789A4201D9002380E0444B72
:100860001A68444B1B681343BB61434B1A68434BE4
:100870001B681343BA6913407B617B687B627B6AA8
:100880005A1C7A6227221A707B6A5A1C7A6297F87D
:1008900020201A707B6A5A1C7A6200221A707B6AC6
:1008A0005A1C7A6201221A707B6A5A1C7A620A22E6
:1008B0001A707B6A5A1C7A62314A1278D2B21A7064
:1008C0007B6A5A1C7A6297F821201A70002387F8F5
:1008D00023302FE097F823302A4AD35CFB74FB7C4B
:1008E000002B08D0FB7C1F2B05D8FB7C013B012291
:1008F00002FA03F300E00023FB60002387F82230B4
:10090000BA69FB681340002B09D07A69FB68134071
:10091000002B01D0072300E0052387F822307B6AF3
:100920005A1C7A6297F822201A7097F82330013304
:1009300087F8233097F8232097F821309A42C9D3BB
:100940007B6A5A1C7A6200221A707B6A5A1C7A628D
:1009500000221A707B6A5A1C7A6216221A70FB7F78
:1009600018462C37BD4680BC704700BF33000010CE
:100970003C0000103400001040000010380000104F
:10098000100000101400001080B582B000AF2921C3
:100990000748FFF74BFF0346FB71FB79002B02D0A2
:1009A000044AFB79137000BF0837BD4680BD00BF05
:1009B000180600101606001080B500AF4FF49072B4
:1009C0000021044801F0BBFF034B01221A7000BF55
:1009D00080BD00BF440600106407001080B485B0DD
:1009E00000AF0346FB80FB88002B23D0FB88602BE5
:1009F00020D8FB88013BFB81FA89114913465B0033
:100A000013440B44FF221A70FA890D4913465B0008
:100A100013440B44013300221A70FA890849134623
:100A20005B0013440B44023300221A70054B012271
:100A30001A7000E000BF1437BD4680BC704700BF8D
:100A4000440600106407001080B500AF094B1B7806
:100A5000DBB283F00103DBB2002B09D1064801F0C1
:100A600023F8064801F020F8024B00221A7000E03B
:100A700000BF80BD640700100000001008000010D7
:100A800080B485B000AF03460A46FB711346BB71C4
:100A90000023FB7335E0FA7B404913465B001344A7
:100AA0005B000B4404331B78DBB2002B26D0FA7BAF
:100AB0003A4913465B0013445B000B441B78DBB2DE
:100AC000FA799A421AD1FA7B344913465B001344EF
:100AD0005B000B4401331B78DBB2BA799A420DD12B
:100AE000FA7B2F4B1B8898B22C4913465B001344AA
:100AF0005B000B44023302461A804BE0FB7B013360
:100B0000FB73FB7B0F2BC6D90023BB733FE0BA7B83
:100B1000224913465B0013445B000B4404331B78EB
:100B2000DBB2002B30D1BA7B1C4913465B00134467
:100B30005B000B44FA791A70BA7B184913465B00C4
:100B400013445B000B440133BA791A70BA7B144B1F
:100B50001B8898B2114913465B0013445B000B4499
:100B6000023302461A80BFF34F8F00BFBFF36F8F6F
:100B700000BFBA7B094913465B0013445B000B447A
:100B8000043301221A7005E0BB7B0133BB73BB7BCE
:100B90000F2BBCD91437BD4680BC704768070010C6
:100BA0001206001080B485B000AF0346FB7100232D
:100BB000FB7325E0FA7B174913465B0013445B0087
:100BC0000B4404331B78DBB2002B16D0FA7B11499F
:100BD00013465B0013445B000B4401331B78DBB20C
:100BE000FA799A4209D1FA7B0A4913465B00134409
:100BF0005B000B44043300221A70FB7B0133FB7350
:100C0000FB7B0F2BD6D900BF00BF1437BD4680BC7D
:100C1000704700BF6807001080B483B000AF0023A6
:100C2000FB710CE0FA790A4913465B0013445B0040
:100C30000B44043300221A70FB790133FB71FB79FA
:100C40000F2BEFD900BF00BF0C37BD4680BC7047EB
:100C50006807001080B584B000AF78600B46FB7069
:100C6000FB78082B01D800232FE07B681B78002B32
:100C700009D17B6801331B78002B04D17B680233D8
:100C80001B78002B01D000231FE07B6803331B7807
:100C9000022B01D0002318E07B6804331B78FB7320
:100CA0007B6805331B78BB73BA7BFB7B1146184608
:100CB000FFF7E6FEFB7B012B06D1BB7B9BB2184600
:100CC000FFF78CFE012300E0012318461037BD46D4
:100CD00080BDFFFF80B485B000AF78600B46FB702D
:100CE000FB78002B3BD07B681B78BB73BB7B5B0026
:100CF000DBB20133DBB2FA789A4232D31B4B0022CB
:100D00001A700023FB731EE0FB7B5B0001331A4665
:100D10007B6813441B787B73FB7B5B0002337A6830
:100D200013441B783B733B7B012B09D10F4B1B7882
:100D30005A1CD1B20D4A117019460D4A7B7B53548F
:100D4000FB7B0133FB73FA7BBB7B9A4203D2074BDD
:100D50001B781E2BD8D9074B00221A7002E000BF67
:100D600000E000BF1437BD4680BC70473300001060
:100D7000140000101000001080B584B000AF78603F
:100D80000B46FB70FB7819467868FFF763FF034654
:100D9000002B40F09D80FB78022B40F29B807B680B
:100DA0001B787B737B6801331B783B737B68023352
:100DB0001B78FB727B7B002B46D00023FB733FE04C
:100DC000FA7B464913465B0013445B000B44043333
:100DD0001B78DBB2002B30D1FA7B404913465B0015
:100DE00013445B000B443A7B1A70FA7B3B49134671
:100DF0005B0013445B000B440133FA7A1A70FA7BF0
:100E0000374B1B8898B2354913465B0013445B008F
:100E10000B44023302461A80BFF34F8F00BFBFF36B
:100E20006F8F00BFFA7B2D4913465B0013445B00B4
:100E30000B44043301221A704DE0FB7B0133FB733A
:100E4000FB7B1F2BBCD946E00023BB7332E0BA7B8F
:100E5000224913465B0013445B000B4404331B78A8
:100E6000DBB2002B23D0BA7B1C4913465B00134432
:100E70005B000B441B78DBB23A7B9A4217D1BA7BFA
:100E8000164913465B0013445B000B4401331B7887
:100E9000DBB2FA7A9A420AD1BA7B104913465B0058
:100EA00013445B000B44043300221A7005E0BB7B43
:100EB0000133BB73BB7B1F2BC9D9FB7A1846FFF7E5
:100EC00071FE084B01221A70074B01221A7002E0D2
:100ED00000BF00E000BF1037BD4680BD50050010C8
:100EE0001206001010060010C907001080B584B06B
:100EF00000AF78600B46FB700023FB730CE0FA7BBD
:100F00000F4913465B0013445B000B44043300227B
:100F10001A70FB7B0133FB73FB7B1F2BEFD9094B53
:100F200001221A70FFF778FE074B01221A70074B57
:100F300000221A70FFF740FD00BF1037BD4680BD8C
:100F40005005001010060010C90700101000001016
:100F500080B582B000AF78600B46FB70FB78012B48
:100F60000ED97B681A787B6801331B78012B0CBF84
:100F700001230023DBB21946104600F001FF00E018
:100F800000BF0837BD4680BD80B483B000AF786035
:100F90000B46FB70034B00221A7000BF0C37BD4696
:100FA00080BC70471000001080B586B000AF78603C
:100FB0000B46FB70FB78022B65D97B681B78FB75B1
:100FC0007B6801331B78BB757B6802331B787B75AC
:100FD000FB78032B02D97B68033300E000233B61DD
:100FE000FB78032B03D9FB78033BDBB200E0002343
:100FF000FB73FB7D852B48D1BB7D012B45D17B7DD0
:10100000092B1BDC002B3ADB092B38D801A252F844
:1010100023F000BF7F1000007F1000004F10000081
:101020007F100000431000007F10000067100000D8
:101030007F1000007F100000731000003A2B0CD0CE
:101040001DE0FB7B19463869FFF744FE18E0FB7B87
:1010500019463869FFF790FE12E0FB7B19463869A4
:10106000FFF744FF0CE0FB7B19463869FFF770FF80
:1010700006E0FB7B19463869FFF786FF00E000BFFA
:10108000FFF782FC02E000BF00E000BF1837BD465A
:1010900080BD00BF80B582B000AF6AE03B48FFF77B
:1010A000EAF90346FB713A4B1B889AB2394B1A8016
:1010B000394B1B78DBB2032B54D801A252F823F032
:1010C000D1100000DF1000000F11000049110000D6
:1010D000FB79272B4AD1304B01221A7046E02F4A68
:1010E000FB7913702E4B00221A702C4B1B78DBB24D
:1010F000002B04D0294B1B78DBB2422B03D9264BA3
:1011000000221A7035E0244B02221A7031E0244B81
:101110001B78412B14D8224B1B785A1CD1B2204A81
:10112000117019461F4AFB7953541D4B1A781B4BFB
:101130001B78DBB29A421BD1174B03221A7017E0BF
:10114000154B00221A7013E0FB79162B06D1134BB6
:101150001B78DBB219461348FFF726FF0E4B00221F
:101160001A7006E00C4B00221A7002E000BF00E08B
:1011700000BF0648FFF7B5F9034603F00103002B53
:101180008CD100BF00BF0837BD4680BD00C0004005
:10119000120600104C050010CA070010CB07001003
:1011A0000E080010CC07001080B582B000AFCCE074
:1011B0006D48FFF760F90346FB716C4B1B78DBB29F
:1011C000042B00F2BB8001A252F823F0E1110000D1
:1011D000F11100002F1200005F1200008D120000BC
:1011E000FB79272B40F0AE80604B01221A70A9E0FA
:1011F000FB79272B03D15D4B02221A70A5E05C4AD4
:10120000FB7913705B4B00221A70594B1B78DBB2D1
:10121000002B04D0564B1B78DBB2082B03D9534B61
:1012200000221A7091E0514B03221A708DE0504A4F
:10123000FB7913704F4B00221A704D4B1B78DBB2B9
:10124000002B04D04A4B1B78DBB2082B03D9474B49
:1012500000221A7079E0454B03221A7075E0454B65
:101260001B78DBB25A1CD1B2424A11701946424A6D
:10127000FB7953543F4B1B78DAB23D4B1B78DBB202
:101280009A4261D1394B04221A705DE0FB79162B2A
:1012900050D1374B1B78DBB2032B4BD1364B1B782D
:1012A0000A2B47D1344B5B78BB71334B9B787B71F6
:1012B000BB79002B3ED0BB791F2B3BD87B79002B11
:1012C00038D0BB79013B012202FA03F33B602B4B80
:1012D0001A683B681343294A13607B79032B06D1B4
:1012E000274B1A683B681343254A136006E03B68A6
:1012F000DA43234B1B681340214A1360214B1B78B0
:10130000DBB2002B16D0204B1A683B6813431E4AF1
:1013100013607B79032B06D11C4B1A683B6813437F
:101320001A4A136006E03B68DA43184B1B68134007
:10133000164A13600D4B00221A7006E00B4B002278
:101340001A7002E000BF00E000BF0748FFF7C9F8CD
:10135000034603F00103002B7FF42AAF00BF00BF58
:101360000837BD4680BD00BF000001400F080010D7
:1013700010080010110800101408001034000010AC
:1013800038000010150600103C000010400000104E
:1013900080B400AF0A4B1B680A4A13600A4B1A68F4
:1013A000084B1B681340094A1360054B00221A6062
:1013B000054B00221A6000BFBD4680BC704700BFCD
:1013C000340000103C0000103800001040000010F5
:1013D00080B584B000AF8548FFF73EF8844B1B888A
:1013E0009BB201339AB2824B1A80824B1B78DBB2DC
:1013F000002B04D0FFF7ACF97E4B00221A707E4B15
:101400001B78DBB2002B04D0FFF7FCF97A4B0022EB
:101410001A70774B1B889AB2784B1B889BB2D31AF1
:101420009BB21BB21C2BCCBF01230023FB72FB7AA7
:10143000002B10D0FFF78CF9FFF7E4F9704B1B7805
:10144000DBB2002B04D1FFF7B7FA6D4B01221A7003
:10145000FFF7FAFA48E16A4B00221A700023FB7387
:101460000023BB7311E0BA7B664913465B0013444B
:101470005B000B4404331B78DBB2002B02D001234A
:10148000FB7305E0BB7B0133BB73BB7B1F2BEAD92E
:101490005D4AFB7B1370FB7B002B6CD05B4B012206
:1014A0001A7000237B7360E0594B1A787B7B1344DE
:1014B000DBB203F01F037B727A7A524913465B005A
:1014C00013445B000B4404331B78DBB2002B48D081
:1014D000474B1B8899B27A7A4A4813465B001344FB
:1014E0005B00034402331B889BB2CB1A9BB21BB236
:1014F000DB439BB2DB0B3B723B7A002B32D07A7A18
:10150000404913465B0013445B000B441B78D8B280
:101510007A7A3C4913465B0013445B000B44013369
:101520001B78DBB21946FFF7EFF8314B1B889BB2F3
:101530007A7A013398B2334913465B0013445B0057
:101540000B44023302461A807B7A01335A4203F07D
:101550001F0302F01F0258BF5342DAB22C4B1A701D
:1015600006E000BF7B7B01337B737B7B1F2B9BD90A
:10157000FFF76AFA36E0254B1B78DBB2002B05D06B
:10158000224B00221A70234B00221A70224B1B7828
:10159000002B02D1FFF758FA24E01E4B1B78DBB278
:1015A000002B01D1FFF7F4FE1A4B1B78DBB21A4671
:1015B0001A4B9B5CBB72BB7A1846FFF7DDF8154BE4
:1015C0001B78DBB20133DAB2124B1A70114B1B7865
:1015D000DAB2114B1B789A4202D30E4B00221A70DA
:1015E000FFF732FA00233B737BE000BF00000B40A3
:1015F0001206001010060010C90700104C0500105C
:101600004E05001050050010150600101D080010B2
:10161000140600101C080010330000101400001005
:10162000334B1A783B7B1344DBB203F00F03FB719F
:10163000FA79304913465B0013445B000B440433D2
:101640001B78DBB2002B48D02B4B1B8899B2FA7960
:10165000284813465B0013445B00034402331B8895
:101660009BB2CB1A9BB21BB2DB439BB2DB0BBB71B1
:10167000BB79002B32D0FA791E4913465B00134424
:101680005B000B441B78D8B2FA791A4913465B0009
:1016900013445B000B4401331B78DBB21946FFF7A0
:1016A0008CF8154B1B889BB2FA79013398B211491B
:1016B00013465B0013445B000B44023302461A805E
:1016C000FB7901335A4203F00F0302F00F0258BFB7
:1016D0005342DAB2064B1A7006E000BF3B7B01337F
:1016E0003B733B7B0F2B9BD91037BD4680BD00BFA2
:1016F000C8070010680700101206001090B583B0EC
:1017000000AF02210D48FEF77EFE044602210B4881
:10171000FEF766FE034623437B607B6803F0080305
:10172000002B07D0064B02221A7008220221034820
:10173000FEF77CFE00BF0C37BD4690BD80800240A6
:101740001000001080B586B000AF00F09BFB00F0E9
:101750003DFB032202216248FEF70FFE0822022110
:101760006048FEF727FE1520FEF792FD02211520A6
:10177000FEF7A8FD1520FEF773FD5B48FEF7CCFDD4
:101780005748FEF7D4FD082319220321564800F0DC
:10179000AAFD08231A220321534800F0A4FD1922B0
:1017A00003214F48FEF7CEFD1A2203214C48FEF7D5
:1017B000C9FD4E4800F0E8FF4FF496414B4801F058
:1017C00084F803214948FEF77FFE81214748FEF750
:1017D0006EFE464801F014F8454800F0D5FF4FF47E
:1017E0001651434801F071F803214148FEF76CFEA1
:1017F00081213F48FEF75BFE3D4801F001F83D487E
:1018000000F0C2FF4FF416513A4801F05EF8032190
:101810003848FEF759FE81213648FEF748FE354824
:1018200000F0EEFF05213148FEF731FE03210520CF
:10183000FEF748FD0520FEF713FD05212C48FEF7B5
:1018400026FE02210620FEF73DFD0620FEF708FDDC
:10185000294800F0FCFD4621274800F011FE1D201C
:10186000FEF716FD01211D20FEF72CFD1D20FEF7C1
:10187000F7FC224B1B78DBB2002B10D01F4B1B78E0
:10188000FB75FB7D1A461E49184800F0F9FF1B4BFB
:1018900000221A701B4B1B889AB21B4B1A8007F14F
:1018A0000C031846FEF772FE0346002B07D07B7D23
:1018B0001A4607F10C0319460D4800F0E1FF3B46BC
:1018C0001846FEF7E7FE0346002B06D07B7A1A4641
:1018D0003B461946074800F0D3FF30BF00BFC8E7BA
:1018E00000C009208080024000C0024000C00040CB
:1018F000000001400080094000000B401606001067
:1019000018060010120600104C05001080B400AF3D
:101910002E4B4FF0C0629A6100BF00BF00BF00BFF6
:1019200000BF00BF00BF00BF00BF00BF00BF00BFBF
:1019300000BF00BF00BF00BF00BF00BF00BF00BFAF
:1019400000BF00BF00BF00BF00BF00BF00BF00BF9F
:1019500000BF00BF00BF00BF1C4B4FF0C062DA6188
:1019600000BF00BF00BF00BF00BF00BF00BF00BF7F
:1019700000BF00BF00BF00BF00BF00BF00BF00BF6F
:1019800000BF00BF00BF00BF00BF00BF00BF00BF5F
:1019900000BF00BF00BF00BF00BF00BF00BF00BF4F
:1019A00000BF00BF00BF00BF00BF00BF00BF00BF3F
:1019B00000BF00BF00BF00BF00BF00BF00BF00BF2F
:1019C00000BF00BF00BFBD4680BC704760C009209B
:1019D00080B400AF334B4FF0C0629A6100BF00BFCC
:1019E00000BF00BF00BF00BF00BF00BF00BF00BFFF
:1019F00000BF00BF00BF00BF00BF00BF00BF00BFEF
:101A000000BF00BF00BF00BF00BF00BF00BF00BFDE
:101A100000BF00BF00BF00BF00BF00BF00BF00BFCE
:101A200000BF00BF00BF00BF00BF00BF00BF00BFBE
:101A300000BF00BF00BF00BF00BF00BF00BF00BFAE
:101A400000BF00BF00BF00BF00BF00BF00BF00BF9E
:101A500000BF00BF00BF00BF00BF00BF00BF00BF8E
:101A600000BF00BF00BF00BF00BF00BF00BF00BF7E
:101A700000BF00BF0B4B4FF0C062DA6100BF00BF78
:101A800000BF00BF00BF00BF00BF00BF00BF00BF5E
:101A900000BF00BF00BF00BF00BF00BF00BFBD460A
:101AA00080BC704760C0092080B586B000AF786008
:101AB0000023FB8251E07B681968FA8A13465B00B9
:101AC0001344CA1807F10C031188927819809A7090
:101AD00000237B750FE07B7B5BB2002B02DAFFF704
:101AE00077FF01E0FFF712FF7B7B5B00DBB27B73CC
:101AF0007B7D01337B757B7D072BECD900233B7508
:101B00000FE03B7B5BB2002B02DAFFF761FF01E0E5
:101B1000FFF7FCFE3B7B5B00DBB23B733B7D01339D
:101B20003B753B7D072BECD90023FB740FE0BB7B9F
:101B30005BB2002B02DAFFF74BFF01E0FFF7E6FE96
:101B4000BB7B5B00DBB2BB73FB7C0133FB74FB7CB8
:101B5000072BECD9FB8A0133FB827B681B791A4681
:101B6000FB8A9342A7D300233B8206E000BF00BF5D
:101B700000BF00BF3B8A01333B823B8AB3F5167F2F
:101B8000F4D300BF00BF1837BD4680BD80B582B01A
:101B900000AF78600F2000F069FA00BF0837BD463B
:101BA00080BD80B582B000AF78600F2000F05EFA93
:101BB00000BF0837BD4680BD80B483B000AF7860F9
:101BC000084611461A460346FB700B46BB70134687
:101BD0007B707B78002B0ED0FB785B017A68134416
:101BE0009969BB7801229A40FB785B0178680344CD
:101BF0000A439A610DE0FB785B017A681344D96966
:101C0000BB7801229A40FB785B01786803440A4361
:101C1000DA6100BF0C37BD4680BC704780B584B028
:101C200000AFF860B96011461A460B46FB711346C7
:101C3000BB71BB68D9B2BB79FA79F868FFF7BCFF12
:101C400000BF1037BD4680BD80B483B000AF786060
:101C50000B46FB701346BB70FB785B017A6813443C
:101C60001968BB7801229A40FB785B0178680344CD
:101C70000A431A6000BF0C37BD4680BC704780B471
:101C800083B000AF78600B46FB701346BB70FB78E7
:101C90005B017A6813441968BB78012202FA03F3E6
:101CA000DA43FB785B01786803440A401A6000BF9E
:101CB0000C37BD4680BC704780B582B000AF7860FD
:101CC000084611461A460346FB700B46BB70134686
:101CD0007B707B78002B06D0BA78FB781946786841
:101CE000FFF7B2FF05E0BA78FB7819467868FFF78E
:101CF000C6FF00BF0837BD4680BD80B582B000AFCB
:101D00007860084611461A460346FB700B46BB70C6
:101D100013467B707B78BA78F9787868FFF7CCFF48
:101D200000BF0837BD4680BD80B582B000AF00233C
:101D30007B6018E07B685B000F4A13443B603B68A4
:101D400019783B685A7801230C48FFF7D6FF3B68A7
:101D50001B7819463B685A7800230848FFF75EFF56
:101D60007B6801337B607B68052BE3D900BF00BF34
:101D70000837BD4680BD00BFA02E000000C009206E
:101D800080B584B000AF03460A46FB711346BB71B1
:101D9000FB79002B11D0FB79062B0ED8FB79013B88
:101DA0005B00084A1344FB60FB681B781946FB681C
:101DB0005A78BB790448FFF731FF00BF1037BD46A2
:101DC00080BD00BFA02E000000C0092080B500AF7C
:101DD0000448FFF7E6FE0448FFF7D8FEFFF7A4FF2C
:101DE00000BF80BD00C0092000C0024080B485B0A3
:101DF00000AF0346FB71084B1B68C3F30B03FB608A
:101E0000FB791A030449FB6813430B6000BF1437C6
:101E1000BD4680BC704700BF00C00F4080B500AF1A
:101E20000F220349034800F0C3FA00BF80BD00BF82
:101E3000B42E000000C0024080B500AF00F0A8FB47
:101E40000420FFF7D3FF0121022000F059F90121FE
:101E5000162000F055F90121032000F051F901216D
:101E6000042000F04DF90121182000F049F900BFCD
:101E700080BD80B500AFFFF7D1FFFFF7DDFF00BFEA
:101E800080BDFFFF80B500AF00F00EFA0346024AA6
:101E9000136000BF80BD00BF2008001080B400AFF9
:101EA000064BD3F8883003F08073002B14BF012356
:101EB0000023DBB21846BD4680BC704700C00F400F
:101EC00080B400AF064BD3F8883003F00073002BCA
:101ED00014BF01230023DBB21846BD4680BC704707
:101EE00000C00F4080B483B000AF0346FB71094AC5
:101EF000FB795B0113448C33AA221A60054AFB79F3
:101F00005B0113448C3355221A6000BF0C37BD4669
:101F100080BC704700C00F4080B400AF054BD3F8C1
:101F20000C31DBB203F00303DBB21846BD4680BCC4
:101F3000704700BF00C00F4080B400AF024B1B6869
:101F40001846BD4680BC7047AC2E000080B400AF80
:101F5000024B1846BD4680BC704700BF00093D00DB
:101F600080B400AF024B1B681846BD4680BC70476A
:101F7000B02E000080B500AF00F03AF903461846D5
:101F800080BDFFFF80B584B000AF03463960FB71B0
:101F90000C4AFB7904335B0113441B68FB60FA684D
:101FA0003B681343FB60074AFB7904335B0113442E
:101FB000FA681A60FB791846FFF794FF00BF1037E4
:101FC000BD4680BD00C00F4080B584B000AF034661
:101FD0003960FB710D4AFB7904335B0113441B68C4
:101FE000FB603B68DB43FA681340FB60074AFB7900
:101FF00004335B011344FA681A60FB791846FFF753
:1020000071FF00BF1037BD4680BD00BF00C00F404C
:1020100080B586B000AF0346B9607A60FB73FB7B86
:10202000002B05D17B681B04BA6813437B6104E075
:102030007B685B01BA6813437B610B4AFB7B04330B
:102040005B01134404337A691A60074AFB7B04334B
:102050005B01134401221A60FB7B1846FFF742FF25
:1020600000BF1837BD4680BD00C00F4080B485B0AA
:1020700000AF0346FB71FB79FB60084BD3F8C4301B
:102080000121FA6801FA02F21146044A0B43C2F830
:10209000C43000BF1437BD4680BC704700C00F403D
:1020A00080B582B000AFFFF70BFF0346002B02D0D4
:1020B0000123FB7101E00023FB71FB79184608370F
:1020C000BD4680BD80B483B000AF7860044A7B68B1
:1020D000C2F8043100BF0C37BD4680BC704700BF5A
:1020E00000C00F4080B400AF044BD3F80431DBB222
:1020F00001331846BD4680BC704700BF00C00F408A
:1021000080B487B000AF03460A46FB711346BB712B
:10211000FB797B617B6903F00F035B003B617B69AB
:102120001B097B610E4A7B696A3352F82330032115
:102130003A6901FA02F2D2431340FB60BA793B6973
:1021400002FA03F3FA681343FB6005497B696A33BB
:10215000FA6841F8232000BF1C37BD4680BC704799
:1021600000C00F4080B487B000AF0346FB7101236D
:102170007B61FB795B003B613B6903F01F03FB6004
:102180003B695B093B61194A3B696A3352F823306A
:102190007B617A69FB6822FA03F303F003037B6136
:1021A0007B69002B02D104237B6119E07B69012B41
:1021B00002D101237B6113E07B69022B02D1022350
:1021C0007B610DE0FB790D2B05D0FB790E2B02D046
:1021D000FB790F2B02D106237B6101E008237B6191
:1021E0007B6918461C37BD4680BC704700C00F4055
:1021F00080B500AFFFF790FE0346022B0ED0022BF6
:1022000010DC002B02D0012B04D00BE0FFF79EFE68
:10221000034608E0FFF790FE034604E0FFF7A0FE48
:10222000034600E00023184680BDFFFF80B584B060
:1022300000AF0023FB60FFF731FE0346002B18D0F0
:102240000E4BD3F88430C3F30E030133BB600B4B4A
:10225000D3F884301B0CDBB201337B60FFF78AFEBE
:102260000246BB6802FB03F35A007B68B2FBF3F340
:10227000FB60FB6818461037BD4680BD00C00F40AC
:1022800080B500AFFFF70CFF0346002B05D0012BF4
:1022900007D1FFF7CBFF034604E0FFF7A9FF034692
:1022A00000E00023184680BD98B500AFFFF7E8FFB7
:1022B0000446FFF717FF0346B4FBF3F3184698BD37
:1022C00090B583B000AF0346FB71FFF7EDFF044606
:1022D000FB791846FFF746FF0346B4FBF3F31846B5
:1022E0000C37BD4690BD80B586B002AFF8607B600C
:1022F0000B46FB721346BB727B6898087B68DBB2A7
:1023000003F00303DBB2BA7AF97A00930346F86864
:1023100000F004F800BF1037BD4680BD80B487B020
:1023200000AFF8607B600B46FB721346BB72BB7A52
:1023300003F00F03DBB25B00FB75FB7A5B00DAB2E4
:10234000BB7A1B09DBB21344BB75BA7DFB6853F83B
:102350002220FB7D032101FA03F3DB4313403B61A1
:1023600097F82020FB7D02FA03F31946BA7D3B69FA
:102370001943FB6843F82210BA7DFB68103253F80A
:102380002220FB7D032101FA03F3DB4313403B6171
:10239000FB7D7A6802FA03F1BA7D3B691943FB6859
:1023A000103243F8221000BF1C37BD4680BC704776
:1023B00080B586B000AFF860B9607A6000237B61B9
:1023C0001FE07B699B00BA6813441B78C3F30203C8
:1023D000DBB219467B699B00BA6813441B78C3F3D0
:1023E000C403DBB218467B699B00BA6813441B68C0
:1023F000C3F317230246F868FFF775FF7B690133C3
:102400007B617A697B689A42DBD300BF00BF1837D3
:10241000BD4680BD80B483B000AF786039607B6812
:102420003A681A6000BF0C37BD4680BC704780B464
:1024300083B000AF786039607B689A683B681A4364
:102440007B689A6000BF0C37BD4680BC704780B582
:1024500082B000AF78601020FFF708FE7B684FF075
:10246000FF321A607B6800225A607B680C229A60F7
:102470007B680022DA6000BF0837BD4680BDFFFFE1
:1024800080B584B000AF786039601D20FFF718FF79
:1024900003460A4AA2FB03239A093B6802FB03F3A3
:1024A000FB60F9687868FFF7B5FF02217868FFF7ED
:1024B000BEFF00BF1037BD4680BD00BFD34D6210C8
:1024C00080B400AF064BD3F8883003F08073002B44
:1024D00014BF01230023DBB21846BD4680BC704701
:1024E00000C00F4080B400AF064BD3F8883003F033
:1024F0008063002B14BF01230023DBB21846BD46C6
:1025000080BC704700C00F4080B400AF064BD3F8CA
:10251000883003F00073002B14BF01230023DBB2CB
:102520001846BD4680BC704700C00F4080B400AF65
:10253000054BD3F8A031044A43F02003C2F8A03180
:1025400000BFBD4680BC704700C00F4080B400AFE4
:10255000064BD3F8A03103F04003002B14BF012336
:102560000023DBB21846BD4680BC704700C00F4058
:1025700080B483B000AF0346FB71044AFB79C2F814
:102580000C3100BF0C37BD4680BC704700C00F4007
:1025900080B500AFFFF7B8FF0346002B03D0022140
:1025A0000020FFF711FDFFF78BFF0346002B03D040
:1025B00001210020FFF708FDFFF7C8FF034683F065
:1025C0000103DBB2002B01D0FFF7B0FF00BFFFF724
:1025D000BDFF034683F00103DBB2002BF7D10020DF
:1025E000FFF770FD0120FFF7C3FF00220F2100203D
:1025F000FFF70EFD01210020FFF7C4FC0320FFF7C9
:1026000061FD00BFFFF76EFF034683F00103DBB2FD
:10261000002BF7D102210020FFF7B4FC00BF80BDE2
:1026200080B483B000AF78600B46FB70FA787B68AB
:102630001A6000BF0C37BD4680BC704780B483B0C1
:1026400000AF786039607B683A689A6000BF0C37E9
:10265000BD4680BC704780B483B000AF78603960FD
:102660007B683A68DA6000BF0C37BD4680BC7047B3
:1026700080B483B000AF78607B68DB6843F0800291
:102680007B68DA6000BF0C37BD4680BC704780B401
:1026900083B000AF78607B68DB6823F080027B68E2
:1026A000DA6000BF0C37BD4680BC704780B483B091
:1026B00000AF78600B46FB701346BB70FA787B68FE
:1026C0001A60BA787B685A6000BF0C37BD4680BC80
:1026D000704780B483B000AF78607B685B69184650
:1026E0000C37BD4680BC704780B485B000AF7860C1
:1026F0007B680E4A934202D10423FB730FE07B6890
:102700000B4A934202D11823FB7308E07B68094A05
:10271000934202D11923FB7301E00323FB73FB7B7C
:1027200018461437BD4680BC704700BF000001400A
:102730000080094000C0094080B485B000AF7860D7
:102740007B680E4A934202D10423FB730FE07B683F
:102750000B4A934202D11823FB7308E07B68094AB5
:10276000934202D11923FB7301E00323FB73FB7B2C
:1027700018461437BD4680BC704700BF00000140BA
:102780000080094000C0094080B584B000AF786087
:102790007868FFF7A9FF03461846FFF767FC072193
:1027A0007868FFF74BFF786800F036F87B68002206
:1027B0005A607B680022DA607B6800221A627B68BC
:1027C0000022DA647B6800225A657B6800221A6561
:1027D0007B680A4A934205D17B6800221A617B68B4
:1027E0009B69FB6003217868FFF735FF7B68102247
:1027F0009A6200BF1037BD4680BD00BF0000014097
:1028000080B483B000AF78607B6880221A6300BF19
:102810000C37BD4680BC704780B483B000AF786091
:102820007B6800221A6300BF0C37BD4680BC70472E
:1028300080B586B000AFF860B9607A6000237B6134
:10284000BB683B610BE03B691B781946F868FFF7F2
:10285000E7FE3B6901333B617B6901337B617A6948
:102860007B689A4207DAF868FFF733FF034603F004
:102870002003002BE7D17B6918461837BD4680BD81
:1028800080B588B000AFF860B9607A600023FB6162
:10289000BB68BB6111E07A68B969F868FFF7C8FFE7
:1028A00078617A687B69D31A7B60FA697B69134423
:1028B000FB617B69BA691344BB617B68002BEADC6E
:1028C000FB6918462037BD4680BD80B586B000AF95
:1028D000786039607868FFF72FFF03461846FFF7E6
:1028E000EFFC78613B681B017A69B2FBF3F33B6153
:1028F0003B691B0AFB60FB681B023A69D31ABB6089
:102900007868FFF7B5FEBB68DBB2FA68D2B2194649
:102910007868FFF7CBFE7868FFF7B9FE7A693B6904
:10292000B2FBF3F318461837BD4680BD08B500F07A
:1029300009F8BDE80840FEF705BF00F065BA00F0F1
:102940007DBAFFFF10B5174A1749002000F055F86F
:102950004FF480734FF480620021124800F02EF88B
:10296000124A1349012000F048F84FF480734FF4E5
:10297000806200210D4800F021F80E4B1B68022BED
:102980000EDD0D4A0A49022000F037F8BDE810407C
:102990004FF480734FF480620021074800F00EB8B6
:1029A00010BD00BF28080010F02E000064080010C1
:1029B000F22E0000F42E0000A008001070B5C468CC
:1029C000A50708D0B2F5007F11D0B2F5806F04D012
:1029D000B2F5807F0BD0012008E0012300F1240133
:1029E000144301610160C361C460002070BD6FF0D9
:1029F0007F455E1EAE42F3D3EDE770B50D46064649
:102A00001046144600F02DF82B78722B17D0772B38
:102A100018D0612B23D1082348F2020215F8011FB8
:102A20002B2912D0622915D01B07E260666104D5FC
:102A300002220021204600F05FF8204670BD0023EE
:102A40000122EBE704230222E8E742F0030243F00D
:102A50000203E3E742F0040243F00103DEE700244F
:102A6000EBE7F0B5C5680446A90789B022D02A076C
:102A700018D4D0E9046700F021F8384600F0F7F9DF
:102A80002B0502D5304600F087F96FF3150515F1D7
:102A9000A54F07D120226846216A00F0F7F9684661
:102AA00000F0C8F83C2200212046FFF748FF002034
:102AB00009B0F0BD4FF0FF30FAE7FFFFF8B504466C
:102AC00038B905460A4B0B4E1F68A74205DC28465D
:102AD000F8BDBDE8F84000F0DEB8304600F0DBF8A5
:102AE000002818BF4FF0FF3501343C36EDE700BF3A
:102AF000F42E0000280800102DE9F843C6683B4B6F
:102B0000044633400D4690467BB1D0F814904846B9
:102B100000F0B3F9074640B9B8F1010F09D0B8F198
:102B2000020F31D0B8F1000F07D002273846BDE8B8
:102B3000F883204600F05CF80544002DF5DBB30473
:102B400004D52368E26A9A4238BFE362A069A842CA
:102B50000EDC2368E26A934238BF134622691918D3
:102B6000891AA94204DB216B00EB010CAC452CDC7B
:102B70000023C4E9013346F02006A56226F40326AB
:102B800026F04006E660D1E7484600F073F90028D9
:102B9000E26804DA42F080020127E260C6E72168B9
:102BA000A369D4F82CC061452CBF5B18634421692C
:102BB0009206A3EB010303D5A26A9342B8BF134662
:102BC0008342ACBFED182D18B7E72D1AB00744BFEC
:102BD000691AA160F10744BF9B1AEB1A2A4448BF47
:102BE0006360226026F02006C8E700BF03001000E3
:102BF000C3689A0705D121220D4B4FF0FF301A60B0
:102C0000704703F020021B0309D512B1806A013816
:102C100070470368826900691344181AF7E70AB11C
:102C2000806A70470368826900691344181A704704
:102C30002408001010B5044600F006F801462046AE
:102C4000BDE8104000F01CB9034610B59A071C46B9
:102C500015D1234654F8042BA2F1013121EA0201D7
:102C600011F0803FF5D0D1B299B112F47F4F0ED060
:102C700012F47F0F14BF23460333013003E01A46DA
:102C800012F8011B09B9181A10BD1346DEE702330A
:102C9000F3E70133F1E7C36870B513F003060446A8
:102CA00011D09B0611D5856A00F08EF8E3682046A6
:102CB00023F44053E36000F00EF800220646294654
:102CC0002046FFF719FF304670BD836905681D4433
:102CD0000369ED1AEAE738B50446C3680569016877
:102CE000C26A23F40020E06003F08200022802D0D0
:102CF0004FF0FF3038BDDB030CD5914238BF114691
:102D00008D4209D10023A360E368E56223F4803398
:102D10002560E3600020EDE722462846491B00F0CD
:102D200003F80028EED0E3E72DE9F041D5688046AE
:102D3000EB020E461446576912D5384600F09AF851
:102D400045F01005A0613846A16900F09CF8002804
:102D500019DAE3684FF0FF3043F08003E36010E0DE
:102D60000C4B2B40002BEED132464146384600F04A
:102D700090F820F00043F61AA3693344A3610028B9
:102D8000E7D1BDE8F08125F4003525F01005E560B8
:102D9000EAE700BF10000200A8B14FF0805340F8EE
:102DA0000C3C50F8042C72B11368B3F1805F0AD167
:102DB00050F8083C516803330B4440F8083C9368D2
:102DC00040F8043CEDE77047C36810B523F02002DB
:102DD0008169C260826A044691420FD0FFF77BFF8F
:102DE000E36823F4405323F0100343F01003E3603F
:102DF000A36AA3612369E362236010BD23F48043C7
:102E000023F06003C360F8E740EA0103DB070346F1
:102E10000CD40346043A22BF51F804CB43F804CB48
:102E2000B2F10402F7D2043208BF7047013A24BF5E
:102E300011F801CB03F801CBF8D87047034613F023
:102E4000030F0ED101F0FF0141EA012141EA0141E6
:102E5000043A24BF43F8041BB2F10402F9D202F190
:102E60000402013A24BF03F8011BFAE770474FF050
:102E7000FF3070474FF0FF3070474FF0FF30704722
:102E80004FF0FF3070474FF0FF3070474FF0FF308A
:102E9000704710467047FFFF27970485FF03001611
:102EA000041C00040005000600070008001BB70012
:102EB000000000001009000018090000020A0000CC
:102EC0000A0A0000420A00004A0A0000E408000062
:102ED0002008000028080000300800003808000022
:102EE00040080000D3080000CB0800001A000000D2
:082EF0007200770008000000E9
:102EF8004406001060000000440600106000000056
:040000030000017187
:00000001FF
